:020000040000FA
:06000000BEEFA1F01200AA
:0600180001EF01F01200EF
:020200000000FC
:0E020200DACFE4FFE2CFDAFFE9CFE4FFEACF84
:10021000E4FFF6CFE4FFF7CFE4FFF5CFE4FFF3CF41
:10022000E4FFF4CFE4FFFACFE4FF00EE00F0140E99
:10023000E80403E3EECFE4FFFBD700EE14F00A0E70
:10024000E80403E3EECFE4FFFBD7E6528794F29E87
:10025000F2A210D0F2920F01010E3B6F460EE66E35
:10026000E66E7AEC5CF0E552E552640EE66EAEECBA
:100270005AF0E55287840F013B6B8786E55200EE0A
:100280001DF00A0EE80403E3E5CFEDFFFBD700EE17
:1002900013F0140EE80403E3E5CFEDFFFBD7E5CF41
:1002A000FAFFE5CFF4FFE5CFF3FFE5CFF5FFE5CFAC
:1002B000F7FFE5CFF6FFE5CFEAFFE5CFE9FFE5CFB2
:1002C000DAFF11000201816B93800F01590E406F1C
:1002D000949A416BF28EF288D08E310EC86EF18EF8
:1002E000800EE66E080EE66E62ECA1F0E552E55275
:1002F000948894869A909A929A949A889A8A9A8CD8
:100300009A8E948499909992999499969988999AA9
:10031000999C9692968E9A969380938293849590C8
:100320009594959697969798979A979C979E949060
:1003300093980F0120691F69070EC16EB80EC06E39
:10034000879A8596F0EC5AF0878487868790879203
:100350000201230E5C6F2A0E696F829A0F01356BC2
:10036000010EE66E5EEC9DF0E5520F01306FAA0EB5
:10037000305D02E12B6B306B330E305D0BE10C0E08
:100380002B6F640EE66E210EE66E44EC9DF0E55296
:10039000E55201D02B6B010E0F01E76E3019E8AE6C
:1003A00002D0E73402D0E750305D1CE3330E305DFD
:1003B00019E0210EE66E5EEC9DF0E5520F01356FFF
:1003C000FF0E355D03E0620E355D01E1356B352BC7
:1003D00035CFE6FF210EE66E44EC9DF0E552E55286
:1003E0000F013569020EE66E5EEC9DF0E5520F01DD
:1003F000316FAA0E315D02E12C6B316B330E315D32
:100400000CE1640EE66E220EE66E44EC9DF0E552C1
:10041000E5520F010C0E2C6F01D02C6B010EE76E14
:100420003119E8AE02D0E73402D0E750315D1CE369
:10043000330E315D19E0220EE66E5EEC9DF0E55262
:100440000F01356FFF0E355D03E0620E355D01E192
:10045000356B352B35CFE6FF220EE66E44EC9DF072
:10046000E552E5520F013569030EE66E5EEC9DF034
:10047000E5520F01326FAA0E325D02E12D6B326B35
:10048000330E325D0BE10C0E2D6F640EE66E230E03
:10049000E66E44EC9DF0E552E55201D02D6B010E65
:1004A0000F01E76E3219E8AE02D0E73402D0E75010
:1004B000325D1CE3030E325D19E0230EE66E5EEC46
:1004C0009DF0E5520F01356FFF0E355D03E0620EC2
:1004D000355D01E1356B352B35CFE6FF230EE66E3A
:1004E00044EC9DF0E552E5520F013569040EE66ECD
:1004F0005EEC9DF0E5520F01336FAA0E335D02E111
:100500002E6B336B330E335D0BE10C0E2E6F640ECE
:10051000E66E240EE66E44EC9DF0E552E55201D005
:100520002E6B010E0F01E76E3319E8AE02D0E734EF
:1005300002D0E750335D1CE3330E335D19E0240E27
:10054000E66E5EEC9DF0E5520F01356FFF0E355DF6
:1005500003E0620E355D01E1356B352B35CFE6FFEB
:10056000240EE66E44EC9DF0E552E5520F0135692C
:10057000050EE66E5EEC9DF0E5520F01346FAA0E9B
:10058000345D02E12F6B346B330E345D0BE10C0EE6
:100590002F6F640EE66E250EE66E44EC9DF0E5527C
:1005A000E55201D02F6B010E0F01E76E3419E8AE52
:1005B00002D0E73402D0E750345D1CE3330E345DE3
:1005C00019E0250EE66E5EEC9DF0E5520F01356FE9
:1005D000FF0E355D03E0620E355D01E1356B352BB5
:1005E00035CFE6FF250EE66E44EC9DF0E552E55270
:1005F0000F01356987808782426B85868588858A69
:10060000858C858E3E6B446B456B0101230E7D6F9F
:10061000300E7E6F7F6F390E806F85968598859A34
:10062000859C859E310E816F350E826F410E836FE2
:10063000310E846F856F866F876F320E886F896F7A
:100640008A6F8B6F300E8C6F8D6F8E6F8F6F420E37
:10065000906F520E916F410E926F2F0E936F380E66
:10066000946F956F966F976F2F0E986F320E996FEC
:100670009A6F2F0E9B6F310E9C6F430E9D6F4F0E26
:100680009E6F4D0E9F6FA06F450EA16F4E0EA26F15
:10069000540EA36F410EA46F490EA56F520EA66FA4
:1006A000450EA76F530EA86F490EA96F430EAA6F90
:1006B000490EAB6F520EAC6F4F0EAD6F420EAE6F68
:1006C000390EAF6FB06F330EB16F320EB26F360EA0
:1006D000B36F310EB46FB56FB66F350EB76F320EA4
:1006E000B86F350EB96F300EBA6FBB6F310EBC6F7D
:1006F000300EBD6F320EBE6F300EBF6FC06FC16F58
:10070000C26F340EC36F350EC46F360EC56F370E11
:10071000C66F380EC76F300EC86F310EC96F300EFE
:10072000CA6F380ECB6F360ECC6F350ECD6F300ED4
:10073000CE6F380ECF6FD06FD16F320ED26FD36FB6
:10074000370ED46F360ED56F370ED66F2A0ED76F91
:100750002D0ED86FD96FDA6FDB6FDC6FDD6FDE6F58
:10076000DF6FE06FE16FE26FE36FE46FE56FE66FFD
:10077000E76FE86FE96FEA6FEB6FEC6FED6FEE6FAD
:10078000EF6FF06FF16FF26FF36FF46FF56FF66F5D
:10079000F76FF86FF96FFA6F889288908884E66A2D
:1007A00060EC7CF0E5520201E56F9FEC7CF08886FE
:1007B00088868896889655EC0BF002EC5CF088925F
:1007C000889088840201E76BE86BF28EE66A60EC41
:1007D0007CF0E5520201E56F010EE66E7D0EE66EDD
:1007E000010EE66E7D0EE66E010EE66EBEEC56F074
:1007F000E552E552F3CF14F0F4CF15F0F3CFE6FF56
:10080000F4CFE6FF7D0EE66E010EE66E9EEC58F02C
:10081000E552E552E66EF9EC5AF0166E060EE15E10
:1008200016500201E56F010EE66E000EE66E010E37
:10083000E66E7D0EE66E010EE66EBEEC56F0E552FB
:10084000E552F3CF14F0F4CF15F0F3CFE6FFF4CF79
:10085000E6FF7D0EE66E010EE66E9EEC58F0E55268
:10086000E552E66E84EC59F0166E060EE15E165007
:100870000201E56F010EE66E8DEC81F0E5529FEC12
:100880007CF00F01080E3E6F3E293E6F010E266F71
:100890000201816B9BEC74F06CEC78F0010EE66E5B
:1008A000AEEC5AF0E552838E839E0201E56B010E99
:1008B000E66E000EE66E010EE66EE7C2E6FFE8C2E7
:1008C000E6FFE66A84EC59F0146E060EE15E145001
:1008D000040EE66EAEEC5AF0E55201018229826FF9
:1008E0003A0E825D04E1300E826F310E816F310E5F
:1008F000815D24E1370E825D21E1300E826F816FD0
:10090000010E0201E725E76F000EE821E86F030EF4
:10091000E66EE66AA20EE66E020EE66EE7C2E6FF3D
:10092000E8C2E6FF3CEC71F0146E060EE15E145076
:10093000A2C27EF1A3C27FF1A4C280F191EC56F075
:100940008198030EE66E75EC7EF0E5529BEC74F038
:100950006CEC78F09FEC7CF055EC9CF0FF0E0F01F6
:100960001F5D11E1FF0E205D0EE0010EE66E75ECDD
:100970007EF0E5528188010EE66E75EC7EF0E55260
:1009800081980F011F6BFF0E355D02E1F8EF08F053
:100990000C6A0D6A0E6A400E0F6EC2C207F0C3C227
:1009A00008F0C4C209F0C5C20AF003ECA0F0010AC5
:1009B00020E1040E0F01E76E2B19E8AE02D02B35B3
:1009C00003D0E750D8802B5514E3020EE66E75EC89
:1009D0007EF0E552A80EE66E020EE66E300EE66E72
:1009E000010EE66EE66EA6EC0CF0146E050EE15EEE
:1009F0001450FF0E0F011F5D11E1FF0E205D0EE090
:100A0000010EE66E75EC7EF0E5528188010EE66E11
:100A100075EC7EF0E55281980F011F6B9BEC74F032
:100A20006CEC78F0040E0F01E76E2B19E8AE02D0E3
:100A3000E73402D0E7502B5D2EE30C0EE76E2B1946
:100A4000E8AE02D0E73402D0E7502B5D24E2020E7C
:100A5000E76E3019E8AE02D0E73402D0E750305DDF
:100A60000BE30C0E2B6F330EE66E010EE66E44ECBC
:100A70009DF0E552E5520FD0302B2C0EE66EAEEC19
:100A80005AF0E55230CFE6FF010EE66E44EC9DF0E1
:100A9000E552E552878A0C6A0D6A0E6A400E0F6EA7
:100AA000C6C207F0C7C208F0C8C209F0C9C20AF03E
:100AB00003ECA0F0010A21E1040E0F01E76E2C19EE
:100AC000E8AE02D02C3503D0E750D8802C5515E382
:100AD000030EE66E75EC7EF0E552A80EE66E020E91
:100AE000E66E300EE66E010EE66E020EE66EA6ECC7
:100AF0000CF0146E050EE15E1450FF0E0F011F5D29
:100B000011E1FF0E205D0EE0010EE66E75EC7EF049
:100B1000E5528188010EE66E75EC7EF0E552819813
:100B20000F011F6B9BEC74F06CEC78F0040E0F015E
:100B3000E76E2C19E8AE02D0E73402D0E7502C5D06
:100B40002EE30C0EE76E2C19E8AE02D0E73402D08B
:100B5000E7502C5D24E2020EE76E3119E8AE02D0B8
:100B6000E73402D0E750315D0BE30C0E2C6F330EEF
:100B7000E66E020EE66E44EC9DF0E552E5520FD0B3
:100B8000312B2C0EE66EAEEC5AF0E55231CFE6FF7B
:100B9000020EE66E44EC9DF0E552E552878A0C6A3F
:100BA0000D6A0E6A400E0F6ECAC207F0CBC208F083
:100BB000CCC209F0CDC20AF003ECA0F0010A21E199
:100BC000040E0F01E76E2D19E8AE02D02D3503D0CB
:100BD000E750D8802D5515E3030EE66E75EC7EF0D8
:100BE000E552A80EE66E020EE66E300EE66E010EBF
:100BF000E66E030EE66EA6EC0CF0146E050EE15EDA
:100C00001450FF0E0F011F5D11E1FF0E205D0EE07D
:100C1000010EE66E75EC7EF0E5528188010EE66EFF
:100C200075EC7EF0E55281980F011F6B9BEC74F020
:100C30006CEC78F0040E0F01E76E2D19E8AE02D0CF
:100C4000E73402D0E7502D5D2EE30C0EE76E2D1930
:100C5000E8AE02D0E73402D0E7502D5D24E2020E68
:100C6000E76E3219E8AE02D0E73402D0E750325DC9
:100C70000BE30C0E2D6F330EE66E030EE66E44ECA6
:100C80009DF0E552E5520FD0322B2C0EE66EAEEC05
:100C90005AF0E55232CFE6FF030EE66E44EC9DF0CB
:100CA000E552E552878A0C6A0D6A0E6A400E0F6E95
:100CB000CEC207F0CFC208F0D0C209F0D1C20AF00C
:100CC00003ECA0F0010A21E1040E0F01E76E2E19DA
:100CD000E8AE02D02E3503D0E750D8802E5515E36C
:100CE000030EE66E75EC7EF0E552A80EE66E020E7F
:100CF000E66E300EE66E010EE66E040EE66EA6ECB3
:100D00000CF0146E050EE15E1450FF0E0F011F5D16
:100D100011E1FF0E205D0EE0010EE66E75EC7EF037
:100D2000E5528188010EE66E75EC7EF0E552819801
:100D30000F011F6B9BEC74F06CEC78F0040E0F014C
:100D4000E76E2E19E8AE02D0E73402D0E7502E5DF0
:100D50002EE30C0EE76E2E19E8AE02D0E73402D077
:100D6000E7502E5D24E2020EE76E3319E8AE02D0A2
:100D7000E73402D0E750335D0BE30C0E2E6F330ED9
:100D8000E66E040EE66E44EC9DF0E552E5520FD09F
:100D9000332B2C0EE66EAEEC5AF0E55233CFE6FF65
:100DA000040EE66E44EC9DF0E552E552878A0C6A2B
:100DB0000D6A0E6A400E0F6ED2C207F0D3C208F061
:100DC000D4C209F0D5C20AF003ECA0F0010A21E177
:100DD000040E0F01E76E2F19E8AE02D02F3503D0B5
:100DE000E750D8802F5515E3030EE66E75EC7EF0C4
:100DF000E552A80EE66E020EE66E300EE66E010EAD
:100E0000E66E050EE66EA6EC0CF0146E050EE15EC5
:100E10001450FF0E0F011F5D11E1FF0E205D0EE06B
:100E2000010EE66E75EC7EF0E5528188010EE66EED
:100E300075EC7EF0E55281980F011F6B040EE76E92
:100E40002F19E8AE02D0E73402D0E7502F5D2EE331
:100E50000C0EE76E2F19E8AE02D0E73402D0E7504F
:100E60002F5D24E2020EE76E3419E8AE02D0E734BB
:100E700002D0E750345D0BE30C0E2F6F330EE66E9D
:100E8000050EE66E44EC9DF0E552E5520FD0342B92
:100E90002C0EE66EAEEC5AF0E55234CFE6FF050EAE
:100EA000E66E44EC9DF0E552E552878A0301300E70
:100EB000E66FE76F310EE86F300EE96FEA6FEB6FA8
:100EC000320EEC6F300EED6F310EEE6F360EEF6FAF
:100ED0000F01010E216FFF0E1F5D11E1FF0E205D5E
:100EE0000EE0010EE66E75EC7EF0E5528188010E93
:100EF000E66E75EC7EF0E55281980F011F6B010ED6
:100F0000216F9BEC74F06CEC78F00C6A0D6A0E6A41
:100F1000400E0F6EC2C207F0C3C208F0C4C209F08F
:100F2000C5C20AF003ECA0F0010A22E1040E0F0191
:100F3000E76E2B19E8AE02D02B3503D0E750D880EE
:100F40002B5516E3010EE66E75EC7EF0E552E60ECB
:100F5000E66E030EE66E140EE66E010EE66EE66EAB
:100F6000A6EC0CF0146E050EE15E14500201816BCC
:100F7000FF0E0F011F5D11E1FF0E205D0EE0010E5F
:100F8000E66E75EC7EF0E5528188010EE66E75EC3A
:100F90007EF0E55281980F011F6B010E216F9BECD3
:100FA00074F06CEC78F00C6A0D6A0E6A400E0F6EED
:100FB000C6C207F0C7C208F0C8C209F0C9C20AF029
:100FC00003ECA0F0010A23E1040E0F01E76E2C19D7
:100FD000E8AE02D02C3503D0E750D8802C5517E36B
:100FE000010EE66E75EC7EF0E552E60EE66E030E3F
:100FF000E66E140EE66E010EE66E020EE66EA6ECCE
:101000000CF0146E050EE15E14500201816BFF0EB0
:101010000F011F5D11E1FF0E205D0EE0010EE66E77
:1010200075EC7EF0E5528188010EE66E75EC7EF07F
:10103000E55281980F011F6B010E216F9BEC74F03C
:101040006CEC78F00C6A0D6A0E6A400E0F6ECAC224
:1010500007F0CBC208F0CCC209F0CDC20AF003EC15
:10106000A0F0010A23E1040E0F01E76E2D19E8AE8E
:1010700002D02D3503D0E750D8802D5517E3010E4F
:10108000E66E75EC7EF0E552E60EE66E030EE66E59
:10109000140EE66E010EE66E030EE66EA6EC0CF084
:1010A000146E050EE15E14500201816BFF0E0F01FC
:1010B0001F5D11E1FF0E205D0EE0010EE66E75EC86
:1010C0007EF0E5528188010EE66E75EC7EF0E55209
:1010D00081980F011F6B010E216F9BEC74F06CEC7B
:1010E00078F00C6A0D6A0E6A400E0F6ECEC207F0E1
:1010F000CFC208F0D0C209F0D1C20AF003ECA0F0D0
:10110000010A23E1040E0F01E76E2E19E8AE02D0AA
:101110002E3503D0E750D8802E5517E3010EE66E2A
:1011200075EC7EF0E552E60EE66E030EE66E140EEA
:10113000E66E010EE66E040EE66EA6EC0CF0146E82
:10114000050EE15E14500201816BFF0E0F011F5D61
:1011500011E1FF0E205D0EE0010EE66E75EC7EF0F3
:10116000E5528188010EE66E75EC7EF0E5528198BD
:101170000F011F6B010E216F9BEC74F06CEC78F08B
:101180000C6A0D6A0E6A400E0F6ED2C207F0D3C20F
:1011900008F0D4C209F0D5C20AF003ECA0F0010AAD
:1011A00022E1040E0F01E76E2F19E8AE02D02F35B1
:1011B00003D0E750D8802F5516E3010EE66E75EC8C
:1011C0007EF0E552E60EE66E030EE66E140EE66E57
:1011D000010EE66E050EE66EB9DB146E050EE15EDD
:1011E00014500201816B020EE66E75EC7EF0E55242
:1011F0000F01020E266F87B8C1D0FF0E205D52E1AD
:10120000828A640EE66EAEEC5AF0E552829A640E63
:10121000E66EAEEC5AF0E552828A0F01010E246FA1
:10122000256B240528E1050EE76E2519E8AE02D0EE
:10123000E73402D0E750255D1EE2246BFF0E355DDA
:101240000F0EE66E75EC7EF0E5520F01252B020EB7
:10125000E76E4119E8AE02D0E73402D0E750415DB5
:101260000AE2050EE76E2519E8AE02D0E73402D097
:10127000E750255DD5E3020E415D01E1416BFF0EB4
:101280001F5D0EE1010EE66E75EC7EF0E552818881
:10129000010EE66E75EC7EF0E55281980F011F6B32
:1012A000206B7AD0FF0E1F5D0FE1010EE66E75EC2C
:1012B0007EF0E5528188010EE66E75EC7EF0E55217
:1012C00081980F011F6B5FD01F515DE1010EE66E2B
:1012D00075EC7EF0E5528188010EE66E75EC7EF0CD
:1012E000E55281980F011F69256B010E246F2405BB
:1012F0001EE10A0EE76E2519E8AE02D0E73402D0EF
:10130000E750255D14E2246B0F0EE66E75EC7EF05F
:10131000E5520F01252B3C510AE10A0EE76E251913
:10132000E8AE02D0E73402D0E750255DE0E30101EA
:10133000410E036F550E046F490E056F4E0E066F7A
:10134000490E076F540E086F2A0E096FC6DA030E96
:10135000E66E75EC7EF0E552FF0E0F013C5D01E19B
:101360003C6BFF0E1F5D18E18188010EE66E75EC87
:101370007EF0E55281980F011F6B0ED0010EE66ED4
:1013800075EC7EF0E552010EE66E75EC7EF0E552EE
:101390009BEC74F06CEC78F0FF0E0F011F5D11E117
:1013A000FF0E205D0EE0010EE66E75EC7EF0E5525C
:1013B0008188010EE66E75EC7EF0E55281980F0192
:1013C0001F6B0C6A0D6A0E6A400E0F6EC2C207F0E8
:1013D000C3C208F0C4C209F0C5C20AF003ECA0F011
:1013E000010A0EE1040E0F01E76E2B19E8AE02D0E0
:1013F0002B3503D0E750D8802B5502E34529456FA4
:101400000C6A0D6A0E6A400E0F6EC6C207F0C7C2A4
:1014100008F0C8C209F0C9C20AF003ECA0F0010A42
:101420000FE1040E0F01E76E2C19E8AE02D02C3547
:1014300003D0E750D8802C5503E3020E4525456FB5
:101440000C6A0D6A0E6A400E0F6ECAC207F0CBC25C
:1014500008F0CCC209F0CDC20AF003ECA0F0010AFA
:101460000FE1040E0F01E76E2D19E8AE02D02D3505
:1014700003D0E750D8802D5503E3040E4525456F72
:101480000C6A0D6A0E6A400E0F6ECEC207F0CFC214
:1014900008F0D0C209F0D1C20AF003ECA0F0010AB2
:1014A0000FE1040E0F01E76E2E19E8AE02D02E35C3
:1014B00003D0E750D8802E5503E3080E4525456F2D
:1014C0000C6A0D6A0E6A400E0F6ED2C207F0D3C2CC
:1014D00008F0D4C209F0D5C20AF003ECA0F0010A6A
:1014E0000FE1040E0F01E76E2F19E8AE02D02F3581
:1014F00003D0E750D8802F5503E3100E4525456FE4
:101500000F01376B386B446B010E266F050EE66ECC
:1015100075EC7EF0E5520F01372B000E38230C6A74
:101520000D6A0E6A400E0F6EC2C207F0C3C208F009
:10153000C4C209F0C5C20AF003ECA0F0010A10E130
:10154000040E0F01E76E2B19E8AE02D02B3503D045
:10155000E750D8802B5504E388A802D04429446F73
:101560000C6A0D6A0E6A400E0F6EC6C207F0C7C243
:1015700008F0C8C209F0C9C20AF003ECA0F0010AE1
:1015800011E1040E0F01E76E2C19E8AE02D02C35E4
:1015900003D0E750D8802C5505E388AA03D0020E6B
:1015A0004425446F0C6A0D6A0E6A400E0F6ECAC263
:1015B00007F0CBC208F0CCC209F0CDC20AF003ECB0
:1015C000A0F0010A11E1040E0F01E76E2D19E8AE3B
:1015D00002D02D3503D0E750D8802D5505E388AED5
:1015E00003D0040E4425446F0C6A0D6A0E6A400E47
:1015F0000F6ECEC207F0CFC208F0D0C209F0D1C240
:101600000AF003ECA0F0010A11E1040E0F01E76EED
:101610002E19E8AE02D02E3503D0E750D8802E55D3
:1016200005E388AC03D0080E4425446F0C6A0D6AAC
:101630000E6A400E0F6ED2C207F0D3C208F0D4C2B9
:1016400009F0D5C20AF003ECA0F0010A11E1040E82
:101650000F01E76E2F19E8AE02D02F3503D0E75007
:10166000D8802F5505E382A403D0100E4425446F83
:10167000FF0E0F01355D02E1356B0DD03C0E38AF2A
:1016800002D0D89003D0375D000E385904E245519E
:10169000445D01E038D70A0EE66EAEEC5AF0E55232
:1016A0000F01446B456B44EF04F0D9CFE6FFE1CF67
:1016B000D9FF020EE126949A948E949C949A929863
:1016C000AB8EAC987E86AC84700EDE6E020EDD6E44
:1016D000DF50AF6EDECF14F0DDCF15F015C014F083
:1016E000156A14507F6E9F8A9E9A9D9AAC9AAB9C05
:1016F000AC9CAB98D08E020EE15C02E2E16AE5524E
:10170000E16EE552E7CFD9FF1200D9CFE6FFE1CF76
:10171000D9FF050EE1268098AB889EAAFED7AE5071
:10172000DF6E9E9AAB98DF50146E050EE15C02E20C
:10173000E16AE552E16E1450E552E7CFD9FF12009D
:10174000D9CFE6FFE1CFD9FF050EE1268098AB881F
:10175000010EDB6A020EDB6A030EDB6A040EDB6A33
:101760000201E26B87749E50200B3CE1030EDBCF3D
:1017700014F0040EDBCF15F0FE0EDB28166E176A90
:101780001450165C155017582DE3010EE76EDBCF91
:1017900014F0020EDBCF15F0E7501426000E1522D0
:1017A000010E14C0DBFF020E15C0DBFF010EDBCF04
:1017B00014F0020EDBCF15F0166AD8901650000A0E
:1017C00006E6500E145CC30E1558000E1658CBE3F7
:1017D000030EDB2A040E01E3DB2A010EDB6A020E94
:1017E000DB6AC1D7AE50DF6E040EDF5C01E1878A91
:1017F000030EDBCF14F0040EDBCF15F0FE0EDB5032
:10180000176AE850145C1750155802E30201E269A8
:101810009E9AAB98DF50146E050EE15C02E2E16A1D
:10182000E552E16E1450E552E7CFD9FF1200D9CF4F
:10183000E6FFE1CFD9FF80888776AC9AAB98AC8A77
:10184000FE0EDB50AD6EACA2FED7AC9A8098E5528E
:10185000E7CFD9FF1200D9CFE6FFE1CFD9FF020EC3
:10186000E126010EDB6AFE0EDBCFE6FF69DFE55203
:10187000DF6E010EDB50EA6A7D0FE96E010EEA228F
:10188000DFCFEFFF010EDB28E76E010EE7CFDBFFB6
:101890002A0EDF5C13E0010EDB50146E156AD8903F
:1018A000155004E6C80E145C000E155807E2FF0E32
:1018B0000201E25D03E0240EDF5CD5E10A0EE66E74
:1018C000AEEC5AF0E552020EE15C02E2E16AE5524A
:1018D000E16EE552E7CFD9FF1200D9CFE6FFE1CFA5
:1018E000D9FF020EE126010EDB6A010EDB50EA6A27
:1018F000000FE96E010EEA22EFCFDFFFFF0EDF5C83
:1019000002E1780EDF6EDFCFE6FF91DFE552010ED8
:10191000DB28E76E010EE7CFDBFF2A0EDF5C0CE071
:10192000010EDB50146E156AD890155004E6C80EEF
:10193000145C000E1558D9E3020EE15C02E2E16A84
:10194000E552E16EE552E7CFD9FF1200D9CFE6FFAD
:10195000E1CFD9FF0B0EE1260201430E5D6F4D0E64
:101960005E6FFE0EDB50070A24E0010A1EE0030A48
:1019700018E0010A12E0070A0CE0010A06E0030A77
:101980001CE1520E5F6F310E17D0520E5F6F320E98
:1019900013D0520E5F6F330E0FD0520E5F6F340EA6
:1019A0000BD0520E5F6F350E07D0410E5F6F550E94
:1019B00003D0490E5F6F4F0E606FFC0EDBCF08F057
:1019C000FD0EDBCF09F02C0E081802E1010E0918FC
:1019D00002E135EF19F03B0E081802E1010E09187B
:1019E00002E1ACEF18F0160E081802E1010E09181A
:1019F00002E1F2EF17F01D0E081802E1010E0918BE
:101A000002E183EF17F0310E081802E1010E091808
:101A100002E127EF16F0300E081802E1010E091856
:101A200002E1A1EF14F0220E081802E1010E0918DC
:101A300002E114EF14F0340E081802E1010E091847
:101A400002E188EF13F0140E081802E1010E0918E4
:101A500001E11AD22E0E081802E1010E091801E167
:101A60009AD14D0E081802E1010E091801E1D8D0F3
:101A7000230E081802E1010E091801E178D02D0E9D
:101A8000081802E018EF1BF0010E091802E018EF29
:101A90001BF0010EF36E020EF3CFDBFF030EDB6AC9
:101AA000F29E0201460E616F4F0E626F520E636F1F
:101AB0005CC200F15DC201F15EC202F15FC203F1DE
:101AC00060C204F161C205F162C206F1E8CF07F11C
:101AD000080EE36FE46B0BEC56F0050E0201EA6AA8
:101AE000E325E96EE451EA22000EE926010EEA221E
:101AF00069C2EFFF020EDB6A030EDB6A5F0EE66E61
:101B0000020EE66EC9EC5EF0E552E552640EE66E3A
:101B1000AEEC5AF0E552E1DE190EE66E9CDEE552BF
:101B200057EC56F05F0EE66E020EE66E7BEC5FF051
:101B3000E552E552FF0E0201E25D02E018EF1BF0F4
:101B4000010EE66E75EC7EF0E552020EDB2A030E06
:101B500001E3DB2A020EDBCF14F0030EDBCF15F01E
:101B6000145C000E155802E318EF1BF099D7F29E93
:101B7000440E616F626F570E636F5CC200F15DC20D
:101B800001F15EC202F15FC203F160C204F161C201
:101B900005F162C206F1E8CF07F187908792FA0E4D
:101BA000DBCFE9FFFB0EDBCFEAFFEF50440806E195
:101BB000440EE66EACEC92F0E552F28EFA0EDBCFFC
:101BC000E9FFFB0EDBCFEAFFEF50430805E1430ED0
:101BD000E66EACEC92F0E552FA0EDBCFE9FFFB0EBD
:101BE000DBCFEAFFEF504D0807E1F29E4D0EE66EA7
:101BF000ACEC92F0E552F28EFA0EDBCFE9FFFB0E71
:101C0000DBCFEAFFEF504E0802E018EF1BF0F29E28
:101C10004E0EE66EACEC92F0E552F28E18EF1BF031
:101C20005A0E616F540E626F450E636F5CC200F115
:101C30005DC201F15EC202F15FC203F160C204F154
:101C400061C205F162C206F1E8CF07F10A0E146E17
:101C50000E6E01C309F051EC9FF0D6EC9DF0070E1B
:101C600007C0DBFF080E08C0DBFF090E09C0DBFF61
:101C70000A0E0AC0DBFF070EDBCF07F0080EDBCF32
:101C800008F0090EDBCF09F00A0EDBCF0AF0DCEC1E
:101C90009FF0060E09C0DBFFDB500A0DF350030175
:101CA000015D146E096ED6EC9DF0070E07C0DBFFD8
:101CB000080E08C0DBFF090E09C0DBFF0A0E0AC0D0
:101CC000DBFF060EDB50300F0101086F070EDBCF84
:101CD00007F0080EDBCF08F0090EDBCF09F00A0E83
:101CE000DBCF0AF0DCEC9FF0060E09C0DBFFDB5017
:101CF000300F0101096F040EDB6A050EDB6A040E6A
:101D0000DBCF14F0050EDBCF15F0D890155004E6AC
:101D1000170E145C000E155829E2020EE76E040E31
:101D2000DBCFE9FF050EDBCFEAFFE750E926000E27
:101D3000EA22000EE926030EEA22EF50E66E040EB8
:101D4000DBCFE9FF050EDBCFEAFF0A0EE926000E26
:101D5000EA22000EE926010EEA22E552E750EF6E74
:101D6000040EDB2A050ECBE3DB2AC9D71F0E0201C6
:101D7000E36FE46B0BEC56F0050E0201EA6AE32513
:101D8000E96EE451EA22000EE926010EEA2269C258
:101D9000EFFFA3DD73D0450E616F520E626F636F6C
:101DA0005CC200F15DC201F15EC202F15FC203F1EB
:101DB00060C204F161C205F1E8CF06F1E8CF07F196
:101DC000080EDE6EDD6ADECF14F0DDCF15F0D890A0
:101DD000155004E61C0E145C000E155822E2DECFEE
:101DE00014F0DDCF15F0080E145E000E155AFA0E31
:101DF000DB501424E96EFB0EDB501520EA6EEF5029
:101E0000E66EDECFE9FFDDCFEAFF000EE926010E28
:101E1000EA22E552E750EF6EDF2A010ED4E3DB2A17
:101E2000D2D70F01420506E101014D0E066F076F83
:101E3000086F096F1C0E0201E36FE46B0BEC56F0A8
:101E4000050E0201EA6AE325E96EE451EA22000E7A
:101E5000E926010EEA2269C2EFFF5F0EE66E020E6E
:101E6000E66EC9EC5EF0E552E55237DD5F0EE66ED8
:101E7000020EE66E7BEC5FF0E552E552020EDB6A85
:101E8000030EDB6A18EF1BF0F28E0F011D6B0201CF
:101E9000DD0E816F440E616F490E626F430E636FFA
:101EA0005CC200F15DC201F15EC202F15FC203F1EA
:101EB00060C204F161C205F162C206F1E8CF07F128
:101EC000FA0EDBCFE9FFFB0EDBCFEAFFEFCF08F125
:101ED000010EE76EFA0EDBCFE9FFFB0EDBCFEAFF68
:101EE000E750E926000EEA22EFCF09F1020EE76E75
:101EF000FA0EDBCFE9FFFB0EDBCFEAFFE750E92666
:101F0000000EEA22EFCF0AF1030EE76EFA0EDBCFE6
:101F1000E9FFFB0EDBCFEAFFE750E926000EEA22DD
:101F2000EFCF0BF1040EE76EFA0EDBCFE9FFFB0EED
:101F3000DBCFEAFFE750E926000EEA22EFCF0CF1F3
:101F40000F01215103E101012D0E0D6F0F0121053C
:101F500003E101012F0E0D6F050EE76EFA0EDBCFC8
:101F6000E9FFFB0EDBCFEAFFE750E926000EEA228D
:101F7000EFCF0EF1060EE76EFA0EDBCFE9FFFB0E98
:101F8000DBCFEAFFE750E926000EEA22EFCF0FF1A0
:101F9000070EE76EFA0EDBCFE9FFFB0EDBCFEAFFA1
:101FA000E750E926000EEA22EFCF10F1080EE76EA7
:101FB000FA0EDBCFE9FFFB0EDBCFEAFFE750E926A5
:101FC000000EEA22EFCF11F1090EE76EFA0EDBCF19
:101FD000E9FFFB0EDBCFEAFFE750E926000EEA221D
:101FE000EFCF12F1130E0201E36FE46B0BEC56F02E
:101FF000050E0201EA6AE325E96EE451EA22000EC9
:10200000E926010EEA2269C2EFFFE66BE56B040EDA
:10201000E76EE619E8AE02D0E63503D0E750D88087
:10202000E65502E218EF1BF05F0EE66E020EE66E5A
:10203000C9EC5EF0E552E552640EE66EAEEC5AF085
:10204000E5524BDC5F0EE66E020EE66E7BEC5FF057
:10205000E552E552090EE66EA0EC0BF0E5520201E6
:10206000E56FD10E815D04E0D20E815D01E0ECD020
:10207000090EE66E2BEC0CF0E55257EC56F002011F
:10208000440E6C6F6D6F020EDE6EDD6ADECF14F0F3
:10209000DDCF15F0D890155004E6140E145C000E38
:1020A00015580FE2DECFE9FFDDCFEAFF6C0EE9261F
:1020B000020EEA22780EEF6EDF2A010EE7E3DB2A3A
:1020C000E5D7D10E0201815DD20E815D0FE16C0E6C
:1020D000E66E020EE66E2E0EE66E010EE66E070E40
:1020E000E66E34DC146E050EE15E1450D20E020171
:1020F000815D07E1090EE66E2BEC0CF0E55257EC22
:1021000056F00201410E6C6F6D6F020EDE6EDD6ADD
:10211000DECF14F0DDCF15F0D890155004E6140E84
:10212000145C000E15580FE2DECFE9FFDDCFEAFFA9
:102130006C0EE926020EEA22780EEF6EDF2A010EFF
:10214000E7E3DB2AE5D7310E01017F5D0FE16C0E7D
:10215000E66E020EE66E2E0EE66E010EE66EE66E80
:10216000A6EC0CF0146E050EE15E1450320E010167
:102170007F5D10E16C0EE66E020EE66E2E0EE66ED0
:10218000010EE66E020EE66EA6EC0CF0146E050E65
:10219000E15E1450330E01017F5D10E16C0EE66EBE
:1021A000020EE66E2E0EE66E010EE66E030EE66E73
:1021B000A6EC0CF0146E050EE15E1450340E010115
:1021C0007F5D10E16C0EE66E020EE66E2E0EE66E80
:1021D000010EE66E040EE66EA6EC0CF0146E050E13
:1021E000E15E1450350E01017F5D10E16C0EE66E6C
:1021F000020EE66E2E0EE66E010EE66E050EE66E21
:10220000A6EC0CF0146E050EE15E1450350E0101C3
:102210007F5D01E11DD1340E7F5D01E119D1330EE7
:102220007F5D01E115D1320E7F5D01E111D1310EEB
:102230007F5D01E10DD16C0EE66E020EE66E2E0E94
:10224000E66E010EE66EFDD0250EE55D03E0E629A3
:10225000E66FDDD65F0EE66E020EE66E7BEC5FF09B
:10226000E552E552020EDB6A030EDB6A010EE76EF1
:10227000020EDBCF14F0030EDBCF15F0E75014266F
:10228000000E1522020E14C0DBFF030E15C0DBFF8B
:10229000D10E0201815D04E0D20E815D01E0E1D04A
:1022A000090EE66E2BEC0CF0E55257EC56F00201ED
:1022B000440E6C6F6D6F020EDE6EDD6ADECF14F0C1
:1022C000DDCF15F0D890155004E6140E145C000E06
:1022D00015580FE2DECFE9FFDDCFEAFF6C0EE926ED
:1022E000020EEA22780EEF6EDF2A010EE7E3DB2A08
:1022F000E5D7D10E0201815DD20E815D10E16C0E39
:10230000E66E020EE66E2E0EE66E010EE66E070E0D
:10231000E66EA6EC0CF0146E050EE15E1450D20EC3
:102320000201815D0CE1090EE66E2BEC0CF0E5522A
:1023300057EC56F00201520E5F6F7FC160F2410E02
:102340006C6F6D6F640EE66EAEEC5AF0E552020EE5
:10235000DE6EDD6ADECF14F0DDCF15F0D8901550BB
:1023600004E6140E145C000E15580FE2DECFE9FFF0
:10237000DDCFEAFF6C0EE926020EEA22780EEF6E40
:10238000DF2A010EE7E3DB2AE5D7310E0201605DAB
:102390000FE16C0EE66E020EE66E2E0EE66E010E7C
:1023A000E66EE66EA6EC0CF0146E050EE15E1450BF
:1023B000320E0201605D10E16C0EE66E020EE66EFA
:1023C0002E0EE66E010EE66E020EE66EA6EC0CF028
:1023D000146E050EE15E1450330E0201605D10E1D3
:1023E0006C0EE66E020EE66E2E0EE66E010EE66EC8
:1023F000030EE66EA6EC0CF0146E050EE15E1450B2
:10240000340E0201605D10E16C0EE66E020EE66EA7
:102410002E0EE66E010EE66E040EE66EA6EC0CF0D5
:10242000146E050EE15E1450350E0201605D10E180
:102430006C0EE66E020EE66E2E0EE66E010EE66E77
:10244000050EE66EA6EC0CF0146E050EE15E14505F
:102450005F0EE66E020EE66E7BEC5FF0E552E55233
:102460009FD0090EE66E2BEC0CF0E5525C0E0201DB
:10247000E36FE46BDCEC8CF0FF0E0201E25D02E145
:102480000F011D2B040E0F011D5D01E189D0240EEB
:1024900001017D5D01E177D0F29EFF0E0F011E5D0F
:1024A0003DE1390E0101CF5D02E1300ECF6F380EF4
:1024B000D05D03E0390ED05D02E1300ED06F3F0EEB
:1024C000B95D15E03F0EBA5D12E03F0EBB5D0FE057
:1024D0003F0EBC5D0CE03F0EBD5D09E03F0EBE5DF2
:1024E00006E03F0EBF5D03E03F0EC05D0FE1320E20
:1024F000B96F390EBA6F310EBB6FBC6F300EBD6F46
:10250000370EBE6F310EBF6F350EC06F720EE66EA6
:10251000010EE66EC2EC39F0E552E552F28E020190
:10252000300E6C6F6D6F020EDE6EDD6ADECF14F062
:10253000DDCF15F0D890155004E6140E145C000E93
:1025400015580FE2DECFE9FFDDCFEAFF6C0EE9267A
:10255000020EEA22780EEF6EDF2A010EE7E3DB2A95
:10256000E5D76C0EE66E020EE66E2E0EE66E010EDE
:10257000E66E300E0201605DE66EA6EC0CF0146EA5
:10258000050EE15E1450240E01017E5D04E0240E70
:102590007D5D01E06BD6DD0E0201815D01E1816BA5
:1025A0000201410E6C6F6D6F020EDE6EDD6ADECFD2
:1025B00014F0DDCF15F0D890155004E6140E145C1D
:1025C000000E15580FE2DECFE9FFDDCFEAFF6C0EFB
:1025D000E926020EEA22780EEF6EDF2A010EE7E30B
:1025E000DB2AE5D7310E01017F5D0FE16C0EE66E4F
:1025F000020EE66E2E0EE66E010EE66EE66EA6EC9E
:102600000CF0146E050EE15E1450320E01017F5D78
:1026100010E16C0EE66E020EE66E2E0EE66E010EF8
:10262000E66E020EE66EA6EC0CF0146E050EE15E90
:102630001450330E01017F5D10E16C0EE66E020E48
:10264000E66E2E0EE66E010EE66E030EE66EA6EC4C
:102650000CF0146E050EE15E1450340E01017F5D26
:1026600010E16C0EE66E020EE66E2E0EE66E010EA8
:10267000E66E040EE66EA6EC0CF0146E050EE15E3E
:102680001450350E01017F5D10E16C0EE66E020EF6
:10269000E66E2E0EE66E010EE66E050EE66EA6ECFA
:1026A0000CF0146E050EE15E1450350E01017F5DD5
:1026B0001BE0340E7F5D18E0330E7F5D15E0320EB7
:1026C0007F5D12E0310E7F5D0FE06C0EE66E020E54
:1026D000E66E2E0EE66E010EE66EE66EA6EC0CF0D1
:1026E000146E050EE15E1450020EDB6A030EDB6A07
:1026F000F28ED10E0201815D07E1E66A060EE66EFA
:102700007AEC5CF0E552E5520201816B18EF1BF0A8
:102710004C0E616F490E626F530E636F5CC200F125
:102720005DC201F15EC202F15FC203F160C204F159
:1027300061C205F162C206F1E8CF07F1080EE36F4E
:10274000E46B0BEC56F0050E0201EA6AE325E96E34
:10275000E451EA22000EE926010EEA2269C2EFFFE7
:102760005F0EE66E020EE66EC9EC5EF0E552E552D3
:102770006DEC0CF05F0EE66E020EE66E7BEC5FF029
:10278000E552E552090EE66E2BEC0CF0E55257ECE3
:1027900056F07D0EE66E010EE66E22EC1BF0E55261
:1027A000E552E66A7D0EE66E010EE66EBCEC7AF04E
:1027B000E552E552E5520201300E6C6F6D6F020E6C
:1027C000DE6EDD6ADECF14F0DDCF15F0D890155047
:1027D00004E6140E145C000E15580FE2DECFE9FF7C
:1027E000DDCFEAFF6C0EE926020EEA22780EEF6ECC
:1027F000DF2A010EE7E3DB2AE5D76C0EE66E020E58
:10280000E66E2E0EE66E010EE66EFE0EDBCFE6FFE6
:10281000A6EC0CF0146E050EE15E1450460E01019C
:10282000DF5DB0E118EF1BF04C0E616F490E626F77
:10283000410E636F5CC200F15DC201F15EC202F144
:102840005FC203F160C204F161C205F162C206F128
:10285000E8CF07F1080EE36FE46B0BEC56F0050EC2
:102860000201EA6AE325E96EE451EA22000EE92654
:10287000010EEA2269C2EFFF5F0EE66E020EE66EFF
:10288000C9EC5EF0E552E5526DEC0CF05F0EE66EC1
:10289000020EE66E7BEC5FF0E552E552090EE66E45
:1028A0002BEC0CF0E55257EC56F07D0EE66E010E67
:1028B000E66E22EC1BF0E552E552010EE66E7D0E4F
:1028C000E66E010EE66EBCEC7AF0E552E552E5529A
:1028D0000201300E6C6F6D6F020EDE6EDD6ADECFB0
:1028E00014F0DDCF15F0D890155004E6140E145CEA
:1028F000000E15580FE2DECFE9FFDDCFEAFF6C0EC8
:10290000E926020EEA22780EEF6EDF2A010EE7E3D7
:10291000DB2AE5D76C0EE66E020EE66E2E0EE66E34
:10292000010EE66EFE0EDBCFE6FFA6EC0CF0146E99
:10293000050EE15E1450460E0101DF5DAFE118EFB8
:102940001BF0EE0E816FF28E540E616F450E626FBA
:10295000430E636F5CC200F15DC201F15EC202F121
:102960005FC203F160C204F161C205F162C206F107
:10297000E8CF07F1080EE36FE46B0BEC56F0050EA1
:102980000201EA6AE325E96EE451EA22000EE92633
:10299000010EEA2269C2EFFF020EDB6A030EDB6A58
:1029A000E66BE56B040EE76EE619E8AE02D0E6359D
:1029B00003D0E750D880E65502E218EF1BF05F0E17
:1029C000E66E020EE66EC9EC5EF0E552E552640E6C
:1029D000E66EAEEC5AF0E5526DEC0CF05F0EE66E72
:1029E000020EE66E7BEC5FF0E552E552090EE66EF4
:1029F000A0EC0BF0E5520201E56FFF0EE25D26E16F
:102A0000310E605D03E10F012B292B6F320E0201A5
:102A1000605D03E10F012C292C6F330E0201605D14
:102A200003E10F012D292D6F340E0201605D03E1DA
:102A30000F012E292E6F350E0201605D03E10F019B
:102A40002F292F6F0201E629E66FACD7310E605DAA
:102A50000BE1AA0EE66E010EE66E44EC9DF0E55227
:102A6000E5520F012B6B306B320E0201605D0BE102
:102A7000AA0EE66E020EE66E44EC9DF0E552E552BB
:102A80000F012C6B316B330E0201605D0BE1AA0E5E
:102A9000E66E030EE66E44EC9DF0E552E5520F0142
:102AA0002D6B326B340E0201605D0BE1AA0EE66EF7
:102AB000040EE66E44EC9DF0E552E5520F012E6BDC
:102AC000336B350E0201605D0BE1AA0EE66E050E5A
:102AD000E66E44EC9DF0E552E5520F012F6B346B2E
:102AE0005F0EE66E020EE66E7BEC5FF0E552E5529D
:102AF000020EDB6A030EDB6A010EE76E020EDBCF0D
:102B000014F0030EDBCF15F0E7501426000E15224B
:102B1000020E14C0DBFF030E15C0DBFF090EE66ECC
:102B20002BEC0CF0E5521C0E0201E36FE46BDCECC5
:102B30008CF0240E01017D5D0EE0F29EFF0E0F0170
:102B40001E5D08E17D0EE66E010EE66EA7EC81F0DB
:102B5000E552E552F28ED950020FE96EDACFEAFF64
:102B60000F0EEE1801E1ED50240E01017D5D04E031
:102B7000FF0E0201E25DC0E1020EDB6A030EDB6ABA
:102B8000020EDB6A030EDB6A020EDBCF14F0030ECB
:102B9000DBCF15F0640E145C000E155832E2040E03
:102BA000E66E000EE66E010EE66E800E086E096A95
:102BB000020EDBCF0DF0030EDBCF0EF0BEEC9FF06C
:102BC00006C014F007C015F0300E1426750E15223D
:102BD00014C0E6FF15C0E6FF030EE66E84EC59F064
:102BE000166E060EE15E1650240E01017D5D02E1B7
:102BF000000E01D0010E020EDB2A030EC5E3DB2A14
:102C0000C3D7EE0E0201815D01E1816BE10E815DB2
:102C100005E0E20E815D02E018EF1BF0E20E815D3F
:102C200007E1E66A070EE66E7AEC5CF0E552E552E3
:102C3000E10E0201815D07E1E66A060EE66E7AECBE
:102C40005CF0E552E5520201816B18EF1BF0770E44
:102C5000816F480E616F4F0E626F520E636F5CC2E0
:102C600000F15DC201F15EC202F15FC203F160C218
:102C700004F161C205F162C206F1E8CF07F1FA0E74
:102C8000DBCFE9FFFB0EDBCFEAFFEFCF08F1010E50
:102C9000E76EFA0EDBCFE9FFFB0EDBCFEAFFE75072
:102CA000E926000EEA22EFCF09F1020EE76EFA0ED6
:102CB000DBCFE9FFFB0EDBCFEAFFE750E926000E92
:102CC000EA22EFCF0AF1030EE76EFA0EDBCFE9FF3F
:102CD000FB0EDBCFEAFFE750E926000EEA22EFCF3A
:102CE0000BF1040EE76EFA0EDBCFE9FFFB0EDBCF34
:102CF000EAFFE750E926000EEA22EFCF0CF1050EBD
:102D0000E76EFA0EDBCFE9FFFB0EDBCFEAFFE75001
:102D1000E926000EEA22EFCF0DF1060EE76EFA0E5D
:102D2000DBCFE9FFFB0EDBCFEAFFE750E926000E21
:102D3000EA22EFCF0EF1070EE76EFA0EDBCFE9FFC6
:102D4000FB0EDBCFEAFFE750E926000EEA22EFCFC9
:102D50000FF1080EE76EFA0EDBCFE9FFFB0EDBCFBB
:102D6000EAFFE750E926000EEA22EFCF10F1090E44
:102D7000E76EFA0EDBCFE9FFFB0EDBCFEAFFE75091
:102D8000E926000EEA22EFCF11F10A0EE76EFA0EE5
:102D9000DBCFE9FFFB0EDBCFEAFFE750E926000EB1
:102DA000EA22EFCF12F10B0EE76EFA0EDBCFE9FF4E
:102DB000FB0EDBCFEAFFE750E926000EEA22EFCF59
:102DC00013F1140EE36FE46B0BEC56F0050E0201E9
:102DD000EA6AE325E96EE451EA22000EE926010ED3
:102DE000EA2269C2EFFF020EDB6A030EDB6AE66BC2
:102DF000E56B0F013F6B040E0201E76EE619E8AECA
:102E000002D0E63503D0E750D880E65502E218EF4D
:102E10001BF0815102E118EF1BF081A015D002ECEC
:102E20005CF0020E0201EA1502080EE1816B010E50
:102E3000E66E75EC7EF0E552E66A060EE66E7AEC1A
:102E40005CF0E552E5525CD05F0EE66E020EE66E77
:102E5000C9EC5EF0E552E552640EE66EAEEC5AF057
:102E6000E5526DEC0CF05F0EE66E020EE66E7BEC4A
:102E70005FF0E552E552090EE66E2BEC0CF0E552E0
:102E800057EC56F0FF0E0201E25D3AE19FEC7CF058
:102E9000020EDB6A030EDB6A020EDBCF14F0030EB8
:102EA000DBCF15F00C0E145C000E155825E2020E57
:102EB000DBCFE9FF030EDBCFEAFF820EE926020E2D
:102EC000EA22EF50E66E080EE76E020EDBCFE9FF56
:102ED000030EDBCFEAFFE750E926000EEA22000EE0
:102EE000E926010EEA22E552E750EF6E020EDB2AD8
:102EF000030ED2E3DB2AD0D70201E629E66F7BD7A7
:102F00000201816B24D1430E616F520E626F450E38
:102F1000636F610EE66EE66AC2EC39F0E552E55287
:102F20009EEC82F02EEC60F05CC200F15DC201F11B
:102F30005EC202F15FC203F160C204F161C205F139
:102F400062C206F163C207F10BEC56F0050E0201F6
:102F5000EA6AE325E96EE451EA22000EE926010E51
:102F6000EA2269C2EFFFE66BE56B0A0EE76EE6192F
:102F7000E8AE02D0E63503D0E750D880E65501E24E
:102F800057D30F012A5108E1300E0101815D04E1A0
:102F9000300E825D01E15C6B5F0EE66E020EE66E46
:102FA000C9EC5EF0E552E552640EE66EAEEC5AF006
:102FB000E5526DEC0CF05F0EE66E020EE66E7BECF9
:102FC0005FF0E552E552090EE66E2BEC0CF0E5528F
:102FD00057EC56F0FF0E0201E25D01E0B8D0E629A1
:102FE000E66FC3D7450E616F460E626F636F5CC2BA
:102FF00000F15DC201F15EC202F15FC203F160C285
:1030000004F161C205F1E8CF06F1E8CF07F1FA0E4D
:10301000DBCFE9FFFB0EDBCFEAFFEFCF08F1010EBC
:10302000E76EFA0EDBCFE9FFFB0EDBCFEAFFE750DE
:10303000E926000EEA22EFCF09F1020EE76EFA0E42
:10304000DBCFE9FFFB0EDBCFEAFFE750E926000EFE
:10305000EA22EFCF0AF1030EE76EFA0EDBCFE9FFAB
:10306000FB0EDBCFEAFFE750E926000EEA22EFCFA6
:103070000BF1040EE76EFA0EDBCFE9FFFB0EDBCFA0
:10308000EAFFE750E926000EEA22EFCF0CF1050E29
:10309000E76EFA0EDBCFE9FFFB0EDBCFEAFFE7506E
:1030A000E926000EEA22EFCF0DF10E0EE36FE46B7E
:1030B0000BEC56F0050E0201EA6AE325E96EE451D5
:1030C000EA22000EE926010EEA2269C2EFFFE66B52
:1030D000E56B0A0EE76EE619E8AE02D0E63503D0DE
:1030E000E750D880E65501E2A3D20A0EE66EAEECB8
:1030F0005AF0E5525F0EE66E020EE66EC9EC5EF027
:10310000E552E552640EE66EAEEC5AF0E5526DEC17
:103110000CF05F0EE66E020EE66E7BEC5FF0E552A1
:10312000E552090EE66E2BEC0CF0E55257EC56F02A
:10313000FF0E0201E25D03E1E629E66FCAD7930EB6
:10314000E66E020EE66E2CEC6EF0E552E552020ED3
:10315000DB6A030EDB6A6CD2F29E530E616F430E84
:10316000626F520E636F5CC200F15DC201F15EC21C
:1031700002F15FC203F160C204F161C205F162C2F3
:1031800006F1E8CF07F1A8C208F1A9C209F10A0EB9
:10319000E36FE46B0BEC56F00F01390504E101011C
:1031A000370E0A6F0B6F050E0201EA6AE325E96E1E
:1031B000E451EA22000EE926010EEA2269C2EFFF7D
:1031C000E66BE56B0A0EE76EE619E8AE02D0E6356F
:1031D00003D0E750D880E65501E22AD25F0EE66EB2
:1031E000020EE66EC9EC5EF0E552E552640EE66E44
:1031F000AEEC5AF0E5526DEC0CF05F0EE66E020E8E
:10320000E66E7BEC5FF0E552E552120EE66E2BECBB
:103210000CF0E55257EC56F0FF0E0201E25D03E1BF
:10322000E629E66FCFD7120EE66EA0EC0BF0E55262
:103230000201E56FE25101E1E66B370EE55D09E160
:10324000240EE56F020EE66E75EC7EF0E5520F017E
:10325000272B0201E55104E1240EE56F0F01272B16
:10326000240E0201E55DDFE1E3D1F29EFA0EDBCF31
:10327000E9FFFB0EDBCFEAFFEFCF9DF2010EE76E19
:10328000FA0EDBCFE9FFFB0EDBCFEAFFE750E926C2
:10329000000EEA22EFCF9EF2020EE76EFA0EDBCFAF
:1032A000E9FFFB0EDBCFEAFFE750E926000EEA223A
:1032B000EFCF9FF2030EE76EFA0EDBCFE9FFFB0EB6
:1032C000DBCFEAFFE750E926000EEA22EFCFA0F2BB
:1032D000040EE76EFA0EDBCFE9FFFB0EDBCFEAFF51
:1032E000E750E926000EEA22EFCFA1F24F0E616F00
:1032F000450E626F490E636F5CC200F15DC201F161
:103300005EC202F15FC203F160C204F161C205F165
:1033100062C206F1E8CF07F19DC208F19EC209F131
:103320009FC20AF1A0C20BF1A1C20CF10D0EE36F16
:10333000E46B0BEC56F0050E0201EA6AE325E96E38
:10334000E451EA22000EE926010EEA2269C2EFFFEB
:10335000E66BE56B46EC88F0310E0101045D0EE191
:103360000F01450E366F0201575D08E00101300E76
:103370000B6F310E0C6F0F014D0E366F320E0101C7
:10338000045D0EE10F01450E366F0201585D08E045
:103390000101300E0B6F310E0C6F0F014D0E366FA9
:1033A000330E0101045D0EE10F01450E366F02017F
:1033B000595D08E00101300E0B6F310E0C6F0F01EB
:1033C0004D0E366F340E0101045D0EE10F01450E06
:1033D000366F02015A5D08E00101300E0B6F310EAD
:1033E0000C6F0F014D0E366F350E0101045D0EE1BD
:1033F0000F01450E366F02015B5D08E00101300EE2
:103400000B6F310E0C6F0F014D0E366F0B0E02015C
:10341000C15D01E0A3D00A0EE76EE619E8AE02D066
:10342000E63503D0E750D880E65501E2F5D05F0ECF
:10343000E66E020EE66EC9EC5EF0E552E552640EF1
:10344000E66EAEEC5AF0E5526DEC0CF00F0EE66E47
:103450002BEC0CF0E55257EC56F0FF0E0201E25D4A
:1034600003E1E629E66FD2D75F0EE66E020EE66E46
:103470007BEC5FF0E552E5520201E66BE56B030E73
:10348000E76EE619E8AE02D0E63503D0E750D88003
:10349000E65501E2C1D0450E0F01365D05E00F0E85
:1034A000E66E2BEC0CF0E552450E0F01365D05E1A2
:1034B000290EE66E2BEC0CF0E55257EC56F0720E2E
:1034C000E66E010EE66EC2EC39F0E552E552FF0EF3
:1034D0000201E25D03E1E629E66FD1D70101430E67
:1034E000016F4D0E026F410E036F550E046F4F0EAC
:1034F000056F450E066F490E076F0201080EE66F55
:103500005D0EE76EE619E8AE02D0E73402D0E75070
:10351000E65D1AE2070EE65DE96EEA6AE9BEEA6870
:103520007D0EE926010EEA22EF50E66EE6C2E9FFC3
:10353000EA6AE9BEEA68000EE926010EEA22E552CF
:10354000E750EF6EE62BDCD75C0EE36FE46B0BEC21
:1035500056F0320EE66EAEEC5AF04BD00101230E5F
:10356000006F430E016F4D0E026F410E036F550E3B
:10357000046F4F0E056F450E066F490E076F02016F
:10358000080EE66F5D0EE76EE619E8AE02D0E7348E
:1035900002D0E750E65D0DE2E6C2E9FFEA6AE9BE65
:1035A000EA68000EE926010EEA22390EEF6EE62BDC
:1035B000E9D70101300E546F556F566F576F140ED7
:1035C0000201C15D07E10101300E166F176F186F20
:1035D000370E196F5C0E0201E36FE46B0BEC56F0D3
:1035E000320EE66EAEEC5AF0E552030EE66E75EC66
:1035F0007EF0E5526DEC0CF002EC5CF0020E020184
:10360000EA15EA6F030EE66E75EC7EF0E552020EE7
:103610000201EA5D01E16AD65F0EE66E020EE66E19
:103620007BEC5FF0E552E552020EDB6A030EDB6ACB
:103630000B0EE15C02E2E16AE552E16EE552E7CF92
:10364000D9FF1200D9CFE6FFE1CFD9FF100EE12656
:10365000010EE76EFD0EDBCFE9FFFE0EDBCFEAFFCA
:10366000E750E926000EEA22EFCF5DF2020EE76E88
:10367000FD0EDBCFE9FFFE0EDBCFEAFFE750E926C8
:10368000000EEA22EFCF5EF2030EE76EFD0EDBCFF7
:10369000E9FFFE0EDBCFEAFFE750E926000EEA2243
:1036A000EFCF5FF2040EE76EFD0EDBCFE9FFFE0EFB
:1036B000DBCFEAFFE750E926000EEA22EFCF60F207
:1036C000050EE76EFD0EDBCFE9FFFE0EDBCFEAFF56
:1036D000E750E926000EEA22EFCF61F2060EE76E10
:1036E000FD0EDBCFE9FFFE0EDBCFEAFFE750E92658
:1036F000000EEA22EFCF62F2070EE76EFD0EDBCF7F
:10370000E9FFFE0EDBCFEAFFE750E926000EEA22D2
:10371000EFCF63F202016151F36EF350E824E66EDD
:10372000D950020FE96EDACFEAFFE552E750EE6EAC
:10373000ED6A6251F36EF350E76E020EDBCF14F0C8
:10374000030EDBCF15F0E7501426000E1522020EF3
:1037500014C0DBFF030E15C0DBFF6351F36EF350A3
:10376000E76E020EDBCF14F0030EDBCF15F0E7504F
:103770001426000E1522020E14C0DBFF030E15C026
:10378000DBFF020EDBCF08F0030EDBCF09F0590E92
:10379000081802E1010E091802E1C6EF35F0040E27
:1037A000081802E1010E091802E126EF35F0420E79
:1037B000081802E1010E091802E1DBEF33F01D0EDB
:1037C000081802E1010E091802E1D7EF33F01F0ECD
:1037D000081802E1010E091802E1BFEF33F0180EDC
:1037E000081802E1010E091802E147EF33F0160E46
:1037F000081802E1010E091802E143EF33F0310E1F
:10380000081802E1010E091802E1D1EF32F0380E7A
:10381000081802E1010E091802E13BEF31F0340E05
:10382000081802E1010E091802E1B8EF39F0140E90
:10383000081802E1010E091802E1D7EF33F03C0E3F
:10384000081802E1010E091802E1D8EF2FF0440E2A
:10385000081802E1010E091802E1A2EF2DF0390E5D
:10386000081802E1010E091802E146EF2CF0480E9B
:10387000081802E1010E091802E170EF2BF04E0E5C
:10388000081802E1010E091802E168EF2AF0400E63
:10389000081802E1010E091802E10CEF29F0570E99
:1038A000081802E1010E091802E11DEF24F02E0EA6
:1038B000081802E1010E091802E18CEF23F04D0E09
:1038C000081802E1010E091802E139EF22F0490E51
:1038D000081802E1010E091801E185D3540E0818F9
:1038E00002E1010E091801E10ED3550E081802E19C
:1038F000010E091801E1D8D2500E081802E1010E9C
:10390000091801E153D22A0E081802E1010E091824
:1039100001E1F2D14C0E081802E1010E091801E193
:1039200045D11E0E081802E1010E091801E1FCD074
:103930000E0E081802E1010E091801E1D5D03F0E64
:10394000081802E1010E091868E0230E081802E0C9
:10395000B3EF39F0010E091802E0B3EF39F0F29E2F
:10396000440E616F626F520E636F5CC200F15DC204
:1039700001F15EC202F15FC203F160C204F1430EC5
:10398000A86FA80EE66E020EE66E230EE66E010E1E
:10399000E66E060EE66EA6EC0CF0146E050EE15E09
:1039A0001450030EE66E75EC7EF0E5520201440EF3
:1039B000A86FA80EE66E020EE66E230EE66E010EEE
:1039C000E66E060EE66EA6EC0CF0146E050EE15ED9
:1039D00014500201460E6C6F6D6F020EDE6EDD6AD2
:1039E000DECF14F0DDCF15F0D890155004E6140E9C
:1039F000145C000E155802E3A1EF39F0DECFE9FFA9
:103A0000DDCFEAFF6C0EE926020EEA22780EEF6E99
:103A1000DF2A010EE5E3DB2AE3D7F29E020EE66E13
:103A200075EC7EF0E552720E0101855D02E0B8EFA3
:103A300039F0650E865D02E0B8EF39F0AA0EE66E49
:103A4000040EE66E44EC9DF0E552E552AA0EE66ED9
:103A5000030EE66E44EC9DF0E552E552AA0EE66ECA
:103A6000020EE66E44EC9DF0E552E552AA0EE66EBB
:103A7000010EE66E44EC9DF0E552E552AA0EE66EAC
:103A8000050EE66E44EC9DF0E552E552E668200E28
:103A9000E66E44EC9DF0E552E552E668210EE66ED6
:103AA00044EC9DF0E552E552E668220EE66E44ECE9
:103AB0009DF0E552E552E668230EE66E44EC9DF07B
:103AC000E552E552E668240EE66E44EC9DF0E552C0
:103AD000E552E668250EE66E44EC9DF0E552E552AF
:103AE000878A878AB8EF39F0F29E050EE66E75EC8C
:103AF0007EF0E5520201440E616F626F420E636F09
:103B00005CC200F15DC201F15EC202F15FC203F16D
:103B100060C204F161C205F162C206F1E8CF07F1AB
:103B200079EC95F0B1EF39F0F29E050EE66E75EC8A
:103B30007EF0E5520201440E616F626F520E636FB8
:103B40005CC200F15DC201F15EC202F15FC203F12D
:103B500060C204F161C205F162C206F1E8CF07F16B
:103B600002EC96F00201460E6C6F6D6F020EDE6E77
:103B7000DD6ADECF14F0DDCF15F0D890155004E6E5
:103B8000140E145C000E155802E3A1EF39F0DECFDD
:103B9000E9FFDDCFEAFF6C0EE926020EEA22780E7D
:103BA000EF6EDF2A010EE5E3DB2AE3D7F29E520E29
:103BB000616F540E626F636F0E0EE36FE46B5CC255
:103BC00000F15FC201F160C202F15DC203F15EC2A9
:103BD00004F161C205F162C206F163C207F185C159
:103BE000A8F286C1A9F285C108F186C109F1CFEC1E
:103BF00089F0DE6ADD6ADECF14F0DDCF15F0153412
:103C000004E214500A08000E15546CE3030EE66E2D
:103C1000E66A930EE66E020EE66EDECFE9FFDDCFBA
:103C2000EAFF020EE926000EEA22A80EE926020E9D
:103C3000EA22EFCF14F0156A14BE156814C0E6FF2F
:103C400015C0E6FF3CEC71F0166E060EE15E1650F4
:103C5000030E086E096ADECF0DF0DDCF0EF091EC99
:103C60009FF006C0E9FF07C0EAFF0A0EE926000E32
:103C7000EA22000EE926010EEA2293C2EFFF030EAC
:103C8000086E096ADECF0DF0DDCF0EF091EC9FF0EB
:103C900006C0E9FF07C0EAFF0B0EE926000EEA2284
:103CA000000EE926010EEA2294C2EFFF030E086E11
:103CB000096ADECF0DF0DDCF0EF091EC9FF006C06B
:103CC000E9FF07C0EAFF0C0EE926000EEA22000E0B
:103CD000E926010EEA2295C2EFFFDF2A010E8BE3EF
:103CE000DB2A89D72B0E0201E36FE46B0BEC56F055
:103CF0006DEC0CF0B8EF39F0F29E520E616F450E8C
:103D0000626F410E636F0E0EE36FE46B5CC200F1F5
:103D10005FC201F160C202F15DC203F15EC204F153
:103D200061C205F162C206F163C207F10F011B6BAC
:103D3000460E0101855D05E1460E865D02E10F013B
:103D40001B69FF0E0F011B5D05E1FF0E205D02E008
:103D50003DEC9DF046EC88F085C108F10F011F5144
:103D60000101460E096F57C20AF158C20BF159C240
:103D70000CF15AC20DF15BC20EF10F0E0201E36F9E
:103D8000E46B0BEC56F0010EE66E75EC7EF0E5523E
:103D9000C80EE66EAEEC5AF0E5526DEC0CF0010E7A
:103DA000E66E75EC7EF0E55209EF29F0F29E5A0EB0
:103DB000616F500E626F4C0E636F0F014129416FAE
:103DC0000E0E0201E36FE46B050EE66E000EE66E6A
:103DD000010EE66EE66A040EE66E060EE66E84ECF2
:103DE00059F0146E060EE15E1450730E0201E36F7B
:103DF000E46B0BEC56F0050E0201EA6AE325E96E6E
:103E0000E451EA22000EE926010EEA2269C2EFFF20
:103E10005CC200F15FC201F160C202F15DC203F158
:103E20005EC204F161C205F162C206F163C207F12C
:103E300081A015D002EC5CF0020E0201EA15020826
:103E40000EE1816B010EE66E75EC7EF0E552E66ADE
:103E5000060EE66E7AEC5CF0E55238EF31F0C80EF3
:103E6000E66EAEEC5AF0E5526DEC0CF0020E0F016E
:103E7000415D02E0B1EF39F0C80EE66EAEEC5AF0EB
:103E8000E5520101410E036F550E046F490E056F97
:103E90004E0E066F490E076F540E086F2A0E096FFB
:103EA0006DEC0CF0B1EF39F0F29E5A0E616F4F0ECF
:103EB000626F520E636F0E0EE36FE46B81A016D03B
:103EC00002EC5CF0020E0201EA1502080FE1816BC0
:103ED000010EE66E75EC7EF0E552E66A060EE66EC1
:103EE0007AEC5CF0E552E552B8EF39F09FEC7CF0EB
:103EF000820EE66E020EE66E310EE66E010EE66E84
:103F0000070ECEEF33F0F29E5A0E616F500E626FC5
:103F1000636F5CC200F15FC201F160C202F15DC279
:103F200003F15EC204F161C205F1E8CF06F1E8CF0A
:103F300007F1780EE36FE46B050EE66E7D0EE66E1C
:103F4000010EE66EE66A040EE66E060EE66EF9EC0B
:103F50005AF0146E060EE15E14500201460E6C6FAC
:103F60006D6F020EDE6EDD6ADECF14F0DDCF15F070
:103F7000D890155004E6140E145C000E15580FE28C
:103F8000DECFE9FFDDCFEAFF6C0EE926020EEA2262
:103F9000780EEF6EDF2A010EE7E3DB2AE5D76C0E21
:103FA000E66E020EE66E2E0EE66E010EE66E060E52
:103FB000E66EA6EC0CF0146E050EE15E1450050ED4
:103FC000E66E000EE66E010EE66EE66A040EE66E22
:103FD000060EE66E84EC59F0146E060EE15E145087
:103FE000878AB1EF39F0F29E5A0E616F430E626F0D
:103FF000520E636F5CC200F15FC201F160C202F158
:104000005DC203F15EC204F161C205F162C206F154
:10401000E8CF07F1080EE36FE46B200E0101855D28
:1040200002E1300E856F200E865D02E1300E866F54
:10403000200E875D02E1300E876F200E885D02E161
:10404000300E886F200E895D02E1300E896F200EE0
:10405000C25D02E1300EC26F200EC35D02E1300E80
:10406000C36F200EC45D02E1300EC46F200EC55D2B
:1040700002E1300EC56F200ECA5D02E1300ECA6F3C
:10408000200ECB5D02E1300ECB6F200ECC5D02E145
:10409000300ECC6F200ECD5D02E1300ECD6F200EC4
:1040A000CE5D02E1300ECE6F200EB65D02E1300E25
:1040B000B66F200EB75D02E1300EB76F200EB85D0F
:1040C00002E1300EB86F200ED55D02E1300ED56FE3
:1040D000200ED65D02E1300ED66F200ED75D02E1D4
:1040E000300ED76F200ED85D02E1300ED86F85C13B
:1040F00000F286C101F287C102F288C103F289C1D0
:1041000004F2040EDB6A440E805D05E1440EF36E9A
:10411000040EF3CFDBFF410E7E5D0EE1440E805DA9
:104120000BE0550EF36E040EF3CFDBFF010EE66ECF
:1041300075EC7EF0E55254D0440E805D51E00201F2
:10414000300E6C6F6D6F020EDE6EDD6ADECF14F026
:10415000DDCF15F0D890155004E6140E145C000E57
:1041600015580FE2DECFE9FFDDCFEAFF6C0EE9263E
:10417000020EEA22780EEF6EDF2A010EE7E3DB2A59
:10418000E5D7550EF36E040EF3CFDBFF490E0101A8
:104190007E5D16E16C0EE66E020EE66E2E0EE66E8B
:1041A000010EE66E070EE66EA6EC0CF0146E050E20
:1041B000E15E1450490EF36E040EF3CFDBFF10D016
:1041C0006C0EE66E020EE66E2E0EE66E010EE66ECA
:1041D000060EE66EA6EC0CF0146E050EE15E1450B1
:1041E000310E0201015D03E0300E015D03E10F01BC
:1041F000010E1C6F330E0201015D03E0320E015D02
:1042000003E10F01020E1C6F350E0201015D03E098
:10421000340E015D03E10F01030E1C6F370E020126
:10422000015D03E0360E015D03E10F01040E1C6F1A
:10423000390E0201015D03E0380E015D03E10F015B
:10424000050E1C6F320E0201015D06E1300E025DAB
:1042500003E10F01010E1C6F340E0201015D06E146
:10426000300E025D03E10F01020E1C6F360E0201DB
:10427000015D06E1300E025D03E10F01030E1C6FCC
:10428000380E0201015D06E1300E025D03E10F010F
:10429000040E1C6F310E0201005D09E1300E015D5C
:1042A00006E1300E025D03E10F01050E1C6F310EB9
:1042B0000201005D07E1300E006F320E016F300E1B
:1042C000026F39D0320E015D0CE0340E015D09E061
:1042D000360E015D06E0380E015D03E0300E015D33
:1042E00005E1300E025D02E0300E016F320E015D1D
:1042F0000CE0340E015D09E0360E015D06E0380E7B
:10430000015D03E0300E015D05E1300E025D02E16A
:10431000320E016F310E015D0CE0330E015D09E0DC
:10432000350E015D06E0370E015D03E0390E015DDB
:1043300002E1310E016F00C285F101C286F102C2B5
:1043400087F100C2B6F101C2B7F102C2B8F1040EA2
:10435000DB5049081AE03F0E0101C15D02E03F0E4B
:10436000C16F3F0EC65D02E03F0EC66F3F0EC75DD8
:1043700002E03F0EC76F3F0EC85D02E03F0EC86F00
:104380003F0EC95D02E03F0EC96F7D0EE66E010E65
:10439000E66E1D0EE66E010EE66E1CCFE6FFA6EC85
:1043A0000CF0146E050EE15E14500F011C05E8249C
:1043B000146E300E0201015D1424016F0A0E015DBE
:1043C00006E1310E006F300E016F026F03D0300E28
:1043D0000125016F00C208F101C209F102C20AF110
:1043E000040EDB5044080AE10F012A5107E1300EA8
:1043F0000201035D03E1300E045D02E090EC87F002
:10440000040EDB50440802E1A0EF2DF00201460E3D
:104410006C6F6D6F020EDE6EDD6ADECF14F0DDCFE5
:1044200015F0D890155004E6140E145C000E1558C3
:104430000FE2DECFE9FFDDCFEAFF6C0EE926020EC8
:10444000EA22780EEF6EDF2A010EE7E3DB2AE5D7DA
:10445000040EDB50490802E090EF2DF06C0EE66E82
:10446000020EE66E2E0EE66E010EE66E070E99EF58
:104470002DF0F29EF10E816F5A0E616F540E626F35
:10448000450E636F5CC200F15FC201F160C202F1D0
:104490005DC203F15EC204F161C205F162C206F1C0
:1044A000E8CF07F185C193F286C194F20A0EE36F5B
:1044B000E46B0BEC56F0300E0101865DE66ED950D0
:1044C000020FE96EDACFEAFFE552E750EE6EED6AD1
:1044D000070EDB6A410E855D06E3400E855DE76EE3
:1044E000070EE7CFDBFF250EE66E17EC0CF0E5526A
:1044F000020EDBCF08F0030EDBCF09F0080E08C078
:10450000DBFF090E09C0DBFFDE6ADD6A080EDBCFC8
:1045100016F0090EDBCF17F01606000E175A140E10
:10452000086E096A16C00DF017C00EF091EC9FF0EE
:1045300006C014F007C015F0010E1426000E152257
:1045400014C0DEFF15C0DDFFDECF14F0DDCF15F0A7
:10455000140E086E096A080EDBCF0DF0090EDBCFD2
:104560000EF091EC9FF006C016F007C017F0075050
:104570001518E8AE02D0153404D01450165C15504E
:10458000175801E28DD002EC5CF0020E0201EA1530
:10459000020802E1E10E816F800E086E096ADECF2B
:1045A0000DF0DDCF0EF091EC9FF006C014F007C0C7
:1045B00015F0300E1426750E1522020E14C0DBFF06
:1045C000030E15C0DBFF040EE66E000EE66E030E52
:1045D000E66E020EDBCFE6FF030EDBCFE6FFE66EF4
:1045E00084EC59F0146E060EE15E1450320EE66E45
:1045F000AEEC5AF0E552070EDBCF14F0156A14BE8C
:104600001568DECF18F0DDCF19F0080EDBCF1AF0F9
:10461000090EDBCF1BF01A06000E1B5A140E086E93
:10462000096A1AC00DF01BC00EF091EC9FF0065005
:10463000185C166E07501958176E1650141802E1C0
:104640001750151803E0070EDB5024E1490E010155
:104650007E5D0AE1000EE66E030EE66E4D0EE66E1E
:10466000010EE66E070E0FD0720E0301025D02E12D
:10467000520E046F000EE66E030EE66E4D0EE66EF1
:10468000010EE66E060EE66EA6EC0CF0146E050E3C
:10469000E15E1450DF2A010E01E256D7DB2A54D71F
:1046A000240EE66E17EC0CF0E552240EE66E17ECC5
:1046B0000CF0E552240EE66E17EC0CF0E552640E99
:1046C000E66EAEEC5AF0E552240EE66E17EC0CF0F6
:1046D000E552240EE66E17EC0CF0E552240EE66E61
:1046E00017EC0CF0E552E10E0201815D07E1E66A8C
:1046F000060EE66E7AEC5CF0E552E552E10E020140
:10470000815D02E0A0EF2DF0E66A060EE66E7AEC1F
:104710005CF0E55266EF2AF0020EDB6A030EDB6AFC
:10472000080EE76EFD0EDBCFE9FFFE0EDBCFEAFFE2
:10473000E750E926000EEA22EFCF6AF2090EE76E93
:10474000FD0EDBCFE9FFFE0EDBCFEAFFE750E926E7
:10475000000EEA22EFCF6BF2300E6B5D146E156A1D
:1047600014BE1568020E14C0DBFF030E15C0DBFF7C
:10477000300E6A5D0A0DF3CF16F0176A16BE176881
:10478000020EDB501624146E030EDB501720156E3C
:10479000020E14C0DBFF030E15C0DBFFDE6ADD6A0C
:1047A000DE6ADD6ADECF14F0DDCF15F0D89015504B
:1047B00004E6120E145C000E155822E2DECF14F04F
:1047C000DDCF15F00A0E1426000E1522FD0EDB506B
:1047D0001424E96EFE0EDB501520EA6EEF50E66EF3
:1047E000DECFE9FFDDCFEAFF6C0EE926020EEA22FA
:1047F000E552E750EF6EDF2A010ED4E3DB2AD2D771
:104800001B0E0201E36FE46B57EC56F0020EDBCF98
:1048100008F0030EDBCF09F0081801E109500DE0A4
:10482000020E081801E1095008E0010E081801E124
:10483000095003E0085001E10950F29E02015A0EAE
:10484000616F490E626F5A0E636FCC0E816F5CC24E
:1048500000F15FC201F160C202F15DC203F15EC20C
:1048600004F161C205F162C206F163C207F10F01F2
:104870003F6B200E0101855D02E1300E856F200E39
:10488000865D02E1300E866F200E875D02E1300EFC
:10489000876F200E885D02E1300E886F200E895DE3
:1048A00002E1300E896F200E8B5D02E1300E8B6FBE
:1048B000200E8C5D02E1300E8C6F200E8D5D02E1CA
:1048C000300E8D6F200E8E5D02E1300E8E6F200E49
:1048D0008F5D02E1300E8F6F0F01236B85C193F264
:1048E00086C194F287C195F288C196F289C197F288
:1048F0008BC198F28CC199F28DC19AF28EC19BF254
:104900008FC19CF28AC122FF300E0201955D176EA5
:10491000300E945D0A0DF3CF16F0300E935D640DEA
:10492000F35016241724146E156A14BE1568080E69
:1049300014C0DBFF090E15C0DBFF300E975D166E4D
:10494000300E965D0A0DF3501624146E156A14BECF
:1049500015680A0E14C0DBFF0B0E15C0DBFF300E0E
:104960009A5D176E300E995D0A0DF3CF16F0300E7A
:10497000985D640DF35016241724146E156A14BE46
:1049800015680C0E14C0DBFF0D0E15C0DBFF300EDA
:104990009C5D166E300E9B5D0A0DF3501624146E4E
:1049A000156A14BE15680E0E14C0DBFF0F0E15C07D
:1049B000DBFF060EDB6A050EDB6A410E5D5D05E17D
:1049C000550E5E5D02E1060EDB68080EDBCF14F0CB
:1049D000090EDBCF15F00C0EDB5014181FE10D0E85
:1049E000DB5015181BE10A0EDBCF16F00B0EDBCFE8
:1049F00017F00E0EDB50161811E10F0EDB501718D2
:104A00000DE1050EDB68060EDB682B0E01018A5DE9
:104A100005E1DD0EF36E060EF3CFDBFFC80EE66E8A
:104A2000AEEC5AF0E552250EE66E17EC0CF0E552AE
:104A3000490E02015D5D12E14F0E5E5D0FE1040E55
:104A4000E66EA0EC0BF0E5520201E56F3F0EE55D6E
:104A500005E1250EE66E17EC0CF0E552800E086EAF
:104A6000096A080EDBCF0DF0090EDBCF0EF091ECDA
:104A70009FF006C014F007C015F0300E1426750E16
:104A80001522020E14C0DBFF030E15C0DBFF040E5F
:104A9000E66E000EE66E0F0EE66E020EDBCFE6FF50
:104AA000030EDBCFE6FFE66E84EC59F0146E060EC3
:104AB000E15E14500301230E006F93C201F394C210
:104AC00002F395C203F396C204F397C205F32F0EC7
:104AD0000F01225D01E0DCD0080EDBCF14F0090EDF
:104AE000DBCF15F00C0EDBCF16F00D0EDBCF17F081
:104AF00017501518E8AE02D0153404D01450165CC7
:104B00001550175801E275D3720E025D14E1D950A9
:104B10000A0FE96EDACFEAFFEE50ED1001E1B8D0EE
:104B2000D9500A0FE96EDACFEAFF010EEE1803E161
:104B3000ED5001E1ADD0610E025D1DE1D9500A0FCB
:104B4000E96EDACFEAFFEE50ED1001E1A1D0030EDD
:104B5000E76E0A0EDBCFE9FF0B0EDBCFEAFFE75073
:104B6000E926000EEA22000EE9260F0EEA22EF5097
:104B7000410801E18DD0690E025D01E189D0630E2B
:104B8000025D01E185D0680E025D01E181D0010E78
:104B9000E76E0A0EDBCF14F00B0EDBCF15F0E750FB
:104BA0001426000E15220A0E14C0DBFF0B0E15C0D2
:104BB000DBFFD9500A0FE96EDACFEAFF110EEE18CB
:104BC00018E1ED5016E10A0EDB6A0B0EDB6A010EEE
:104BD000E76E080EDBCF14F0090EDBCF15F0E750BF
:104BE0001426000E1522080E14C0DBFF090E15C096
:104BF000DBFF030EE66EE66A000EE66E030EE66E5F
:104C0000080EDBCFE6FF090EDBCFE6FF3CEC71F0D0
:104C1000146E060EE15E145000C393F201C394F2C9
:104C200002C395F2020EE66EE66A000EE66E030E11
:104C3000E66E0A0EDBCFE6FF0B0EDBCFE6FF3CECA9
:104C400071F0146E060EE15E145000C396F201C3BB
:104C500097F2080EDBCF14F0090EDBCF15F0010E32
:104C6000E76E0C0EDBCF16F00D0EDBCF17F0E75022
:104C70001626000E172215501718E8AE02D017346A
:104C800004D01650145C1750155801E3B2D2E6D682
:104C900081A002D0010E3F6F010EE66E7D0EE66E22
:104CA000010EE66E000EE66E030EE66EBEEC56F0EA
:104CB000E552E552F3CF14F0F4CF15F0F3CFE6FF51
:104CC000F4CFE6FF000EE66E030EE66E9EEC58F0A3
:104CD000E552E552E66E84EC59F0166E060EE15E82
:104CE000165002015A0E616F490E626F5A0E636FC1
:104CF0005CC200F15FC201F160C202F15DC203F16A
:104D00005EC204F161C205F162C206F1E8CF07F1AB
:104D10002EEC60F00BEC56F0060EDB50FF0801E0C5
:104D200000D1D9500A0FE96EDACFEAFFEE50ED104C
:104D30000BE16F0EE66E930EE66E020EE66EECEC85
:104D400084F0E552E552E5520A0EDBCF14F00B0E6B
:104D5000DBCF15F0153411E214500008000E155485
:104D60000CE20A0EDBCFE6FF930EE66E020EE66E55
:104D7000ECEC84F0E552E552E55201C328FF010E48
:104D80000F01E76E2819E8AE02D0E73402D0E750F1
:104D9000285D0DE3140EE76E2819E8AE02D0283521
:104DA00003D0E750D880285502E3010E286F150E76
:104DB000E76E2819E8AE02D0E73402D0E750285D4C
:104DC0000DE3280EE76E2819E8AE02D0283503D08F
:104DD000E750D880285502E3020E286F290EE76EAF
:104DE0002819E8AE02D0E73402D0E750285D0DE381
:104DF0003C0EE76E2819E8AE02D0283503D0E75004
:104E0000D880285502E3030E286F3D0EE76E28195F
:104E1000E8AE02D0E73402D0E750285D0DE3500E33
:104E2000E76E2819E8AE02D0283503D0E750D880C5
:104E3000285502E3040E286F510EE76E2819E8AEDC
:104E400002D0E73402D0E750285D0DE3640EE76E30
:104E50002819E8AE02D0283503D0E750D88028556D
:104E600002E3050E286F4DC23AFF0201C15101E075
:104E700083D00F01460E3A6F080EF36E020EF3CF89
:104E8000DBFF030EDB6A020EDBCF14F0030EDBCF79
:104E900015F0D890155004E6600E145C000E1558FD
:104EA00012E2020EDBCFE9FF030EDBCFEAFF000EBA
:104EB000E926010EEA22460EEF6E020EDB2A030EF1
:104EC000E2E3DB2AE0D70F012805E96EEA6AE9BED2
:104ED000EA68570EE926020EEA22EF504D0807E174
:104EE000310E0201045D03E10101520E0D6F0F014D
:104EF0002805E96EEA6AE9BEEA68570EE926020E5D
:104F0000EA22EF50450807E1310E0201045D03E19A
:104F10000101410E0D6F0101260E606F2A0E616FB7
:104F20002BD0060EDB50DD0810E1E66A930EE66E2C
:104F3000020EE66EECEC84F0E552E552E552020119
:104F4000C15103E10101260E606F050E0201EA6AFC
:104F5000E325E96EE451EA22000EE926010EEA2279
:104F600069C2EFFF01C308F102C309F103C30AF1EB
:104F700004C30BF105C30CF1640EE66EAEEC5AF0FF
:104F8000E552640EE66EAEEC5AF0E552020EDB6AB4
:104F9000030EDB6A6DEC0CF0410E02015D5D05E174
:104FA000550E5E5D02E1020E01D00F0EE66E2BEC97
:104FB0000CF0E552240E01017F5D02E10201E2697D
:104FC000FF0E0201E25D2EE1410E5D5D17E1550E1F
:104FD0005E5D14E1020EDBCF14F0030EDBCF15F0A3
:104FE000D890155004E6030E145C000E155806E226
:104FF000020EDB2A030ECEE3DB2ACCD7020EDB2A1D
:10500000030E01E3DB2A020EDBCF14F0030EDBCF2D
:1050100015F0D890155004E6010E145C000E1558DA
:10502000B9E3E7D0020EDB6A030EDB6A410E010131
:10503000855D04E1410E865D01E1EAD00F013F0587
:105040002AE13F6B02EC5CF0020E0201EA15020855
:1050500022E1240EE66E17EC0CF0E552240EE66E0B
:1050600017EC0CF0E552240EE66E17EC0CF0E5524E
:10507000410EE66E17EC0CF0E552550EE66E17EC9D
:105080000CF0E5520201816BE66A060EE66E7AECE0
:105090005CF0E552BCD0010EE76E0A0EDBCF14F0D7
:1050A0000B0EDBCF15F0E7501426000E15220A0E6A
:1050B00014C0DBFF0B0E15C0DBFFD9500A0FE96EE1
:1050C000DACFEAFF110EEE181BE1ED5019E10F01E6
:1050D000010E236F0A0EDB6A0B0EDB6A010EE76E10
:1050E000080EDBCF14F0090EDBCF15F0E7501426C5
:1050F000000E1522080E14C0DBFF090E15C0DBFFE1
:10510000030EE66EE66A000EE66E030EE66E080E0D
:10511000DBCFE6FF090EDBCFE6FF3CEC71F0146E4F
:10512000060EE15E145000C393F201C394F202C371
:1051300095F2020EE66EE66A000EE66E030EE66E6D
:105140000A0EDBCFE6FF0B0EDBCFE6FF3CEC71F087
:10515000146E060EE15E145000C396F201C397F27E
:105160000A0EDBCF14F00B0EDBCF15F00E0EDB506A
:10517000141819E10F0EDB50151815E1080EDBCFDE
:1051800016F0090EDBCF17F00C0EDB5016180BE1F2
:105190000D0EDB50171807E1050EDB50FF0803E08A
:1051A000050EDB6887D4050EDB500AE12F0E0F01D8
:1051B000225D01E07FD4230501E07CD4236B4ED433
:1051C0002C0EE66EAEEC5AF0E552240EE66E17ECAD
:1051D0000CF0E552240EE66E17EC0CF0E552240EAE
:1051E000E66E17EC0CF0E5522C0EE66EAEEC5AF0C3
:1051F000E552240EE66E17EC0CF0E552240EE66E36
:1052000017EC0CF0E552240EE66E17EC0CF0E552AC
:1052100081988198B1EF39F0F29E5A0E616F460E77
:10522000626F636F5CC200F15FC201F160C202F1A4
:105230005DC203F15EC204F161C205F1E8CF06F17F
:10524000E8CF07F1200E0101855D02E1300E856F88
:10525000200E865D02E1300E866F200E875D02E132
:10526000300E876F200E885D02E1300E886F200EB1
:10527000895D02E1300E896F85C193F286C194F297
:1052800087C195F288C196F289C197F2080E020192
:10529000E36FE46B0BEC56F0410E01017E5D0BE118
:1052A000550EF36E040EF3CFDBFF020EE66E75ECC7
:1052B0007EF0E55251D00201300E6C6F6D6F020E20
:1052C000DE6EDD6ADECF14F0DDCF15F0D89015501C
:1052D00004E6140E145C000E15580FE2DECFE9FF51
:1052E000DDCFEAFF6C0EE926020EEA22780EEF6EA1
:1052F000DF2A010EE7E3DB2AE5D7550EF36E040E35
:10530000F3CFDBFF490E01017E5D16E16C0EE66E08
:10531000020EE66E2E0EE66E010EE66E070EE66ECD
:10532000A6EC0CF0146E050EE15E1450490EF36EFF
:10533000040EF3CFDBFF10D06C0EE66E020EE66EAD
:105340002E0EE66E010EE66E060EE66EA6EC0CF074
:10535000146E050EE15E145093C200F294C201F285
:1053600095C202F296C203F297C204F2310E020114
:10537000005D0BE1300E005D02E0000E01D0010E79
:10538000320E016F300E026F39D0320E015D0FE028
:10539000340E015D0CE0360E015D09E0380E015D52
:1053A00006E0300E015D05E1300E025D02E0300ED8
:1053B000016F320E015D0CE0340E015D09E0360E26
:1053C000015D06E0380E015D03E0300E015D05E190
:1053D000300E025D02E1320E016F310E015D0CE014
:1053E000330E015D09E0350E015D06E0370E015D0B
:1053F00003E0390E015D02E1310E016FE66A0AEC4D
:1054000083F0E552010804E10201460E056F02D067
:1054100002014E0E056F000EE66E020EE66E160ECF
:10542000E66E010EE66E930EE66E020EE66E94ECEC
:105430007DF0E552E552E66EA6EC0CF0146E050E1A
:10544000E15E14500201460E6C6F6D6F020EDE6E4F
:10545000DD6ADECF14F0DDCF15F0D890155004E6EC
:10546000140E145C000E15580FE2DECFE9FFDDCFFD
:10547000EAFF6C0EE926020EEA22780EEF6EDF2AB2
:10548000010EE7E3DB2AE5D7040EDB5049080AE109
:105490006C0EE66E020EE66E2E0EE66E010EE66EE7
:1054A000070E09D06C0EE66E020EE66E2E0EE66E4C
:1054B000010EE66E060EE66EA6EC0CF0146E050EFE
:1054C000E15E1450010EE66E0AEC83F0E55238D32B
:1054D000F29E5A0E616F520E626F480E636F5CC28D
:1054E00000F15FC201F160C202F15DC203F15EC270
:1054F00004F161C205F162C206F1E8CF07F185C18E
:1055000082F286C183F287C184F288C185F289C1A3
:1055100086F28AC187F28BC188F28CC189F28DC173
:105520008AF28EC18BF28FC18CF290C18DF2320E55
:10553000E66EAEEC5AF0E552140E0201E36FE46B36
:105540000BEC56F00201300E6C6F6D6F020EDE6ECA
:10555000DD6ADECF14F0DDCF15F0D890155004E6EB
:10556000140E145C000E15580FE2DECFE9FFDDCFFC
:10557000EAFF6C0EE926020EEA22780EEF6EDF2AB1
:10558000010EE7E3DB2AE5D73FEC7DF00201460E92
:105590006C6F6D6F020EDE6EDD6ADECF14F0DDCF54
:1055A00015F0D890155004E6140E145C000E155832
:1055B0000FE2DECFE9FFDDCFEAFF6C0EE926020E37
:1055C000EA22780EEF6EDF2A010EE7E3DB2AE5D749
:1055D000AA0EE66E050EE66E44EC9DF0E552E5522D
:1055E000AA0EE66E040EE66E44EC9DF0E552E5521E
:1055F000AA0EE66E030EE66E44EC9DF0E552E5520F
:10560000AA0EE66E020EE66E44EC9DF0E552E552FF
:10561000AA0EE66E010EE66E44EC9DF0E552E552F0
:10562000E668200EE66E44EC9DF0E552E552E66831
:10563000210EE66E44EC9DF0E552E552E668220E3E
:10564000E66E44EC9DF0E552E552E668230EE66E08
:1056500044EC9DF0E552E552E668240EE66E44EC1B
:105660009DF0E552E552E668250EE66E44EC9DF0AD
:10567000E552E552410E02015D5D10E16C0EE66EF1
:10568000020EE66E2E0EE66E010EE66E060EE66E5B
:10569000A6EC0CF0146E050EE15E1450490E0201EA
:1056A0005D5D10E16C0EE66E020EE66E2E0EE66E8D
:1056B000010EE66E070EE66EA6EC0CF0146E050EFB
:1056C000E15E1450020EE66E75EC7EF0E552490E76
:1056D00002015F5D02E1D5EF2FF0878AD5EF2FF051
:1056E000F29E5A0E616F420E626F520E636F5CC281
:1056F00000F15FC201F160C202F15DC203F15EC25E
:1057000004F161C205F162C206F1E8CF07F1390E7A
:105710000101855D03E1390E855D36E0300E855D62
:105720000A0DF3CF91F1300E865D926FF350922502
:105730000F01196F1A6B010E195F000E1A5B070E2D
:10574000D89019371A37E806FBE1000E0F01192728
:10575000080E1A23010EE66E75EC7EF0E552060E79
:10576000E66E000EE66E010EE66E19CFE6FF1ACF6A
:10577000E6FF060EE66E84EC59F0146E060EE15E4E
:1057800014506DEC0CF07DD0010EDE6EDD6ADECFC4
:1057900014F0DDCF15F0D890155004E6160E145C09
:1057A000000E15586EE2DECF19FFDDCF1AFF0F0194
:1057B000010E195F000E1A5B070ED89019371A37C1
:1057C000E806FBE1000E0F011927080E1A23060E4A
:1057D000E66E000EE66E010EE66E19CFE6FF1ACFFA
:1057E000E6FF060EE66E84EC59F0146E060EE15EDE
:1057F00014500101430E016F4D0E026F490E036FED
:105800004F0E046F5A0E055D0BE0420E065D08E078
:10581000230E006F300E086F310E096F2A0E616F74
:105820006DEC0CF0640EE66EAEEC5AF0E552120E22
:10583000E66E2BEC0CF0E552460E0101855D1CE195
:10584000460E865D19E1DECF14F0DDCF15F01406AB
:10585000000E155A14C0DEFF15C0DDFFDECF14F0B8
:10586000DDCF15F0153404E214500108000E155474
:1058700003E3010EDE6EDD6ADF2A010E88E3DB2A18
:1058800086D70F014E0E406FB1EF39F0F29E5A0EDF
:10589000616F420E626F430E636F5CC200F15FC2C4
:1058A00001F160C202F15DC203F15EC204F161C2A6
:1058B00005F162C206F1E8CF07F1010EF36E020EA8
:1058C000F3CFDBFF030EDB6A020EDBCF14F0030E17
:1058D000DBCF15F0D890155004E6160E145C000EC0
:1058E000155801E3F1D0300E0101855D0A0DF3CFAB
:1058F000E1F1300E865DE26FF350E2250F01196F82
:105900001A6B230E01017D5D31E10F011A350EE2A4
:1059100019510708000E1A5509E20B0E1AAF02D0F2
:10592000D89003D0195D000E1A5920E31A350EE203
:1059300019511108000E1A5509E2150E1AAF02D0BE
:10594000D89003D0195D000E1A5910E3010E1AAF5A
:1059500002D0D89003D0195D000E1A5907E31A350A
:1059600017E219511B08000E1A5512E2020EDBCF86
:1059700014F0030EDBCF15F01406000E155A020EBC
:1059800014C0DBFF030E15C0DBFF0201460E5BD027
:10599000020EDBCF14F0030EDBCF15F0153401E35C
:1059A000CFD014500008000E155401E3C9D01A35A9
:1059B00010E219510708000E1A550BE21A3504E2DD
:1059C00019511108000E1A5504E3030E195F000E59
:1059D0001A5B1A3510E219511108000E1A550BE224
:1059E0001A3504E219511B08000E1A5504E3060E7D
:1059F000195F000E1A5B300E19250101786F0F0137
:105A0000010E195F000E1A5B070ED89019371A376E
:105A1000E806FBE1000E0F011927080E1A23060EF7
:105A2000E66E7D0EE66E010EE66E19CFE6FF1ACF2A
:105A3000E6FF060EE66EF9EC5AF0146E060EE15E15
:105A400014500201300E6C6F6D6F020EDE6EDD6A57
:105A5000DECF14F0DDCF15F0D890155004E6140E0B
:105A6000145C000E15580FE2DECFE9FFDDCFEAFF30
:105A70006C0EE926020EEA22780EEF6EDF2A010E86
:105A8000E7E3DB2AE5D7640EE66EAEEC5AF0E552AA
:105A90006C0EE66E020EE66E2E0EE66E010EE66EE1
:105AA000060EE66EA6EC0CF0146E050EE15E1450C8
:105AB000120EE66E2BEC0CF0E552020EDB2A030E02
:105AC00001E202D7DB2A00D70F01590E406F3FECED
:105AD00092F00201430E6C6F6D6F020EDE6EDD6A96
:105AE000DECF14F0DDCF15F0D890155004E6140E7B
:105AF000145C000E15580FE2DECFE9FFDDCFEAFFA0
:105B00006C0EE926020EEA22780EEF6EDF2A010EF5
:105B1000E7E3DB2AE5D7640EE66EAEEC5AF0E55219
:105B20006C0EE66E020EE66E2E0EE66E010EE66E50
:105B3000060EE66EA6EC0CF0146E050EE15E145037
:105B4000020133D2F29E220E816F5A0E616F490E0E
:105B5000626F470E636F5CC200F15FC201F160C209
:105B600002F15DC203F15EC204F161C205F162C2DD
:105B700006F1E8CF07F1490E5D5D05E14F0E5E5D70
:105B800002E10F013C6946EC88F0DE6ADD6ADECF97
:105B900014F0DDCF15F0D890155004E6030E145C18
:105BA000000E155801E3F4D1DFCFE6FFD6EC82F00A
:105BB000E552090EF36E020EF3CFDBFF030EDB6A34
:105BC000020EDBCF14F0030EDBCF15F0D89015508A
:105BD00004E67D0E145C000E155825E2020EDBCFA4
:105BE000E9FF030EDBCFEAFFE906000EEA5A000EDA
:105BF000E926030EEA22EF50E66E020EDBCFE9FF44
:105C0000030EDBCFEAFFE906000EEA5A000EE92692
:105C1000010EEA22E552E750EF6E020EDB2A030E78
:105C2000CFE3DB2ACDD7D9CFE9FFDACFEAFF020EE7
:105C3000EE1801E08FD1ED5001E08CD140CF46F15C
:105C4000200EE66E5EEC9DF0E552146E156A14BEF1
:105C50001568020E14C0DBFF030E15C0DBFFD95020
:105C6000020FE96EDACFEAFF640EEE1801E1ED50A3
:105C700022E0020EE66EE66A640EE66E020EE66E44
:105C8000010EE76E020EDBCF14F0030EDBCF15F032
:105C9000E7501426000E152214C0E6FF15C0E6FFDB
:105CA0003CEC71F0166E060EE15E165064C261F1B6
:105CB00065C262F105D00101640E616F300E626F42
:105CC000210EE66E5EEC9DF0E552146E156A14BE70
:105CD0001568020E14C0DBFF030E15C0DBFFD950A0
:105CE000020FE96EDACFEAFF640EEE1801E1ED5023
:105CF00022E0020EE66EE66A640EE66E020EE66EC4
:105D0000010EE76E020EDBCF14F0030EDBCF15F0B1
:105D1000E7501426000E152214C0E6FF15C0E6FF5A
:105D20003CEC71F0166E060EE15E165064C263F133
:105D300065C264F105D00101640E636F310E646FBA
:105D4000220EE66E5EEC9DF0E552146E156A14BEEE
:105D50001568020E14C0DBFF030E15C0DBFFD9501F
:105D6000020FE96EDACFEAFF640EEE1801E1ED50A2
:105D700022E0020EE66EE66A640EE66E020EE66E43
:105D8000010EE76E020EDBCF14F0030EDBCF15F031
:105D9000E7501426000E152214C0E6FF15C0E6FFDA
:105DA0003CEC71F0166E060EE15E165064C265F1B1
:105DB00065C266F105D00101640E656F320E666F33
:105DC000230EE66E5EEC9DF0E552146E156A14BE6D
:105DD0001568020E14C0DBFF030E15C0DBFFD9509F
:105DE000020FE96EDACFEAFF640EEE1801E1ED5022
:105DF00022E0020EE66EE66A640EE66E020EE66EC3
:105E0000010EE76E020EDBCF14F0030EDBCF15F0B0
:105E1000E7501426000E152214C0E6FF15C0E6FF59
:105E20003CEC71F0166E060EE15E165064C267F12E
:105E300065C268F105D00101640E676F330E686FAB
:105E4000240EE66E5EEC9DF0E552146E156A14BEEB
:105E50001568020E14C0DBFF030E15C0DBFFD9501E
:105E6000020FE96EDACFEAFF640EEE1801E1ED50A1
:105E700022E0020EE66EE66A640EE66E020EE66E42
:105E8000010EE76E020EDBCF14F0030EDBCF15F030
:105E9000E7501426000E152214C0E6FF15C0E6FFD9
:105EA0003CEC71F0166E060EE15E165064C269F1AC
:105EB00065C26AF105D00101640E696F340E6A6F24
:105EC000250EE66E5EEC9DF0E552146E156A14BE6A
:105ED0001568020E14C0DBFF030E15C0DBFFD9509E
:105EE000020FE96EDACFEAFF640EEE1801E1ED5021
:105EF00022E0020EE66EE66A640EE66E020EE66EC2
:105F0000010EE76E020EDBCF14F0030EDBCF15F0AF
:105F1000E7501426000E152214C0E6FF15C0E6FF58
:105F20003CEC71F0166E060EE15E165064C26BF129
:105F300065C26CF105D00101640E6B6F350E6C6F9C
:105F400057C26EF158C26FF159C270F15AC271F165
:105F50005BC272F1730E0201E36FE46B0BEC56F05F
:105F600002EC5CF0020E0201EA15020802E1E10E09
:105F7000816F6DEC0CF0090EE66E2BEC0CF0E55227
:105F800057EC56F0DF2A010E01E201D6DB2AFFD5DD
:105F9000E10E0201815D08E1816BE66A060EE66EA4
:105FA0007AEC5CF0E552E5520201816BB1EF39F019
:105FB000F29E5A0E616F410E626F470E636F5CC2B4
:105FC00000F15DC201F15EC202F15FC203F160C285
:105FD00004F161C205F162C206F1E8CF07F1080ED3
:105FE000E36FE46B300E6C6F6D6F020EDE6EDD6A78
:105FF000DECF14F0DDCF15F0D890155004E6140E66
:10600000145C000E15580FE2DECFE9FFDDCFEAFF8A
:106010006C0EE926020EEA22310EEF6EDF2A010E27
:10602000E7E3DB2AE5D76C0EE66E020EE66E2E0E77
:10603000E66E010EE66E060EE66EA6EC0CF0146E31
:10604000050EE15E1450020EDB6A030EDB6A020EDF
:10605000DBCF14F0030EDBCF15F0D890155004E61B
:10606000030E145C000E155801E3C1D00101450E6A
:10607000F56F120EE66E2BEC0CF0E55257EC56F075
:10608000410E01017E5D6BE1550E7F5D68E1430EBF
:10609000805D65E14D0E815D62E1D950020FE96ED0
:1060A000DACFEAFFEE50ED1016E1300E905D13E10D
:1060B000300E915D10E1310E925D0DE12A0EF55D1D
:1060C0000AE1E66A7D0EE66E010EE66E53EC7BF0A9
:1060D000E552E552E552D950020FE96EDACFEAFFF8
:1060E000010EEE181AE1ED5018E1300E0101905D3D
:1060F00014E1300E915D11E1340E925D0EE12A0E35
:10610000F55D0BE1010EE66E7D0EE66E010EE66EAC
:1061100053EC7BF0E552E552E552D950020FE96E9F
:10612000DACFEAFF020EEE181AE1ED5018E1300E58
:106130000101905D14E1300E915D11E1390E925D27
:106140000EE12A0EF55D0BE1020EE66E7D0EE66EA7
:10615000010EE66E53EC7BF0E552E552E55202018A
:10616000300E6C6F6D6F020EDE6EDD6ADECF14F0E6
:10617000DDCF15F0D890155004E6140E145C000E17
:1061800015581EE2DECFE9FFDDCFEAFF130EE92648
:10619000000EEA227D0EE926010EEA22EF50E66E9D
:1061A000DECFE9FFDDCFEAFF6C0EE926020EEA2220
:1061B000E552E750EF6EDF2A010ED8E3DB2AD6D78F
:1061C0006C0EE66E020EE66E2E0EE66E010EE66EAA
:1061D000060EE66EA6EC0CF0146E050EE15E145091
:1061E000020EDB2A030E01E232D7DB2A30D7030E80
:1061F000E66E000EE66E010EE66E000EE66EE66AD4
:10620000060EE66E84EC59F0146E060EE15E145034
:10621000640EE66EAEEC5AF0E552030EE66E000E2A
:10622000E66E010EE66E800EE66EE66A060EE66E1D
:1062300084EC59F0146E060EE15E1450640EE66EA6
:10624000AEEC5AF0E552030EE66E000EE66E010E5D
:10625000E66EE66A010EE66E060EE66E84EC59F016
:10626000146E060EE15E1450640EE66EAEEC5AF04B
:10627000E552B1EF39F0F29E0C0EE36FE46B57EC90
:1062800056F00201230EA26F86C1A3F287C1A4F2C9
:10629000010188050201A56F300EA66FA76FA35DEF
:1062A000640DF3CFE7F2E86BE7BFE869300EA45D59
:1062B0000A0DF3CF14F0156A14BE1568E7511424C3
:1062C000E76FE8511520E86F300EA55D146E156A72
:1062D00014BE1568E7511424E76FE8511520E86FE4
:1062E000E751E81105E1300EA36FA46F310EA56FE1
:1062F000010EE71907E1E85105E1300EA36F310EF9
:10630000A46FA56F020EE71908E1E85106E1300E0F
:10631000A36F320EA46F310EA56F030EE71908E1CB
:10632000E85106E1300EA36F330EA46F310EA56F56
:10633000040EE71908E1E85106E1300EA36F340EB0
:10634000A46F310EA56F050EE71908E1E85106E1CB
:10635000300EA36F350EA46F310EA56F060EE71930
:1063600008E1E85106E1300EA36F360EA46F310E3E
:10637000A56F070EE71908E1E85106E1300EA36F9B
:10638000370EA46F310EA56F080EE71908E1E8512A
:1063900006E1300EA36F380EA46F310EA56F090E03
:1063A000E71908E1E85106E1300EA36F390EA46F3A
:1063B000310EA56F010EDE6EDD6ADECF14F0DDCF8B
:1063C00015F0D890155004E60B0E145C000E15580D
:1063D00001E3B2D0A3C200F2A4C201F2A5C202F24C
:1063E0006F0EE66E000EE66E020EE66EECEC84F0CA
:1063F000E552E552E5520201C10509E0020EC15D18
:1064000006E0030EC15D03E0040EC15D03E1B8ECDC
:106410006EF009D0A3C208F1A4C209F1A5C20AF125
:106420000101460E1D6F0201300EA66FA76F620EAE
:10643000E36FE46B0BEC56F0050E0201EA6AE3250C
:10644000E96EE451EA22000EE926010EEA2269C251
:10645000EFFF5CC200F15FC201F160C202F15DC2F8
:1064600003F15EC204F161C205F162C206F163C2CA
:1064700007F192EC8AF06DEC0CF00101510E806F87
:10648000020EE66E2BEC0CF0E552FF0E0201E25D0F
:106490002FE16DEC0CF00101510E806F020EE66EE3
:1064A0002BEC0CF0E552FF0E0201E25D0AE16DEC0F
:1064B0000CF00101510E806F090EE66E2BEC0CF012
:1064C000E552FF0E0201E25D0FE1C80EE66EAEEC92
:1064D0005AF0E5526DEC0CF00101510E806F090E7F
:1064E000E66E2BEC0CF0E552FF0E0201E25D24E0BB
:1064F0005A0E616F410E626F430E636F390EA55DD8
:106500000EE1390EA45D06E1300EA56FA46F310EC9
:10651000A36F0CD0300EA56FA429A46F07D0DECFD7
:1065200014F0DDCF15F0310E1424A56FDF2A010E13
:1065300001E243D7DB2A41D7460E6C6F6D6F020E26
:10654000DE6EDD6ADECF14F0DDCF15F0D890155089
:1065500004E6140E145C000E15580FE2DECFE9FFBE
:10656000DDCFEAFF6C0EE926020EEA22780EEF6E0E
:10657000DF2A010EE7E3DB2AE5D76C0EE66E020E9A
:10658000E66E2E0EE66E010EE66E060EE66EA6ECCA
:106590000CF0146E050EE15E14500201816BF28E58
:1065A000E8D0080EE76EFD0EDBCFE9FFFE0EDBCF75
:1065B000EAFFE750E926000EEA22EFCF82F2090E49
:1065C000E76EFD0EDBCFE9FFFE0EDBCFEAFFE75003
:1065D000E926000EEA22EFCF83F20A0EE76EFD0EE7
:1065E000DBCFE9FFFE0EDBCFEAFFE750E926000E26
:1065F000EA22EFCF84F20B0EE76EFD0EDBCFE9FF50
:10660000FE0EDBCFEAFFE750E926000EEA22EFCFCD
:1066100085F20C0EE76EFD0EDBCFE9FFFE0EDBCF41
:10662000EAFFE750E926000EEA22EFCF86F20D0ED0
:10663000E76EFD0EDBCFE9FFFE0EDBCFEAFFE75092
:10664000E926000EEA22EFCF87F20E0EE76EFD0E6E
:10665000DBCFE9FFFE0EDBCFEAFFE750E926000EB5
:10666000EA22EFCF88F20F0EE76EFD0EDBCFE9FFD7
:10667000FE0EDBCFEAFFE750E926000EEA22EFCF5D
:1066800089F2100E01D0080EE36FE46B90D00D0E6E
:10669000E36FE46B57EC56F0020EDB6A030EDB6A25
:1066A000080EE76EFD0EDBCFE9FFFE0EDBCFEAFF43
:1066B000E750E926000EEA22EFCF93F2090EE76ECB
:1066C000FD0EDBCFE9FFFE0EDBCFEAFFE750E92648
:1066D000000EEA22EFCF94F20A0EE76EFD0EDBCF3A
:1066E000E9FFFE0EDBCFEAFFE750E926000EEA22C3
:1066F000EFCF95F20B0EE76EFD0EDBCFE9FFFE0E3E
:10670000DBCFEAFFE750E926000EEA22EFCF96F250
:106710000C0EE76EFD0EDBCFE9FFFE0EDBCFEAFFCE
:10672000E750E926000EEA22EFCF97F281EC48F01D
:106730005CC200F15FC201F160C202F15DC203F10F
:106740005EC204F161C205F162C206F163C207F1E3
:106750000BEC56F0050E0201EA6AE325E96EE451FE
:10676000EA22000EE926010EEA2269C2EFFF6DEC73
:106770000CF0020EDB6A030EDB6AB8EF39F0080E8C
:10678000E36FE46B57EC56F01FEC60F0820EE66EA0
:10679000020EE66E310EE66E010EE66EE66EA6ECB9
:1067A0000CF0146E050EE15E1450B8EF39F057ECA2
:1067B00056F0B8EF39F0F29E0D0EE36FE46B080E61
:1067C000E76EFD0EDBCFE9FFFE0EDBCFEAFFE75001
:1067D000E926000EEA22EFCF93F2090EE76EFD0ED6
:1067E000DBCFE9FFFE0EDBCFEAFFE750E926000E24
:1067F000EA22EFCF94F20A0EE76EFD0EDBCFE9FF3F
:10680000FE0EDBCFEAFFE750E926000EEA22EFCFCB
:1068100095F20B0EE76EFD0EDBCFE9FFFE0EDBCF30
:10682000EAFFE750E926000EEA22EFCF96F20C0EBF
:10683000E76EFD0EDBCFE9FFFE0EDBCFEAFFE75090
:10684000E926000EEA22EFCF97F257EC56F002014C
:10685000300E6C6F6D6F020EDE6EDD6ADECF14F0EF
:10686000DDCF15F0D890155004E6140E145C000E20
:1068700015580FE2DECFE9FFDDCFEAFF6C0EE92607
:10688000020EEA22780EEF6EDF2A010EE7E3DB2A22
:10689000E5D76C0EE66E020EE66E2E0EE66E010E6B
:1068A000E66E060EE66EA6EC0CF0146E050EE15ECA
:1068B000145093C200F294C201F295C202F296C241
:1068C00003F297C204F2300E0201045D166E300E20
:1068D000035D0A0DF3501624146E156A14BE156874
:1068E0000A0E14C0DBFF0B0E15C0DBFF6F0EE66E49
:1068F000000EE66E020EE66EECEC84F0E552E55218
:10690000E5520201C10502E00A0E12D00A0EDBCFE9
:10691000E6FF930EE66E020EE66EECEC84F0E552B6
:10692000E552E5520201C10502E10B0E01D0140E41
:10693000C16F310E005D07E1300E006F320E016F46
:10694000300E026F39D0320E015D0CE0340E015D65
:1069500009E0360E015D06E0380E015D03E0300E01
:10696000015D05E1300E025D02E0300E016F320E76
:10697000015D0CE0340E015D09E0360E015D06E0BC
:10698000380E015D03E0300E015D05E1300E025D61
:1069900002E1320E016F310E015D0CE0330E015D3C
:1069A00009E0350E015D06E0370E015D03E0390EAA
:1069B000015D02E1310E016F000EE66E020EE66E21
:1069C0002C0EE66E010EE66E930EE66E020EE66E7D
:1069D00094EC7DF0E552E552E66EA6EC0CF0146EF8
:1069E000050EE15E14500201460E6C6F6D6F020ED3
:1069F000DE6EDD6ADECF14F0DDCF15F0D8901550D5
:106A000004E6140E145C000E15580FE2DECFE9FF09
:106A1000DDCFEAFF6C0EE926020EEA22780EEF6E59
:106A2000DF2A010EE7E3DB2AE5D7490E0301015D0A
:106A300002E0A1EF39F06C0EE66E020EE66E2E0E4D
:106A4000E66E010EE66E070EAAEF39F0020EDB6A63
:106A5000030EDB6A300E0101855D640DF350020107
:106A6000E76FE86B300E0101865D0A0DF3500201FD
:106A7000E725E76F000EE821E86F300E0101875D22
:106A80000201E725E76F000EE821E86F010EE71924
:106A900001E1E85103E0E751E8110FE1000EE66E75
:106AA000010EE66E220EE66E010EE66EE66EA6ECB6
:106AB0000CF0146E050EE15E14500201020EE7198F
:106AC00001E1E85103E0E751E81110E1000EE66E44
:106AD000010EE66E220EE66E010EE66E020EE66E08
:106AE000A6EC0CF0146E050EE15E14500201030ECC
:106AF000E71901E1E85103E0E751E81110E1000E68
:106B0000E66E010EE66E220EE66E010EE66E030ED6
:106B1000E66EA6EC0CF0146E050EE15E1450020158
:106B2000040EE71901E1E85103E0E751E81110E133
:106B3000000EE66E010EE66E220EE66E010EE66EA9
:106B4000040EE66EA6EC0CF0146E050EE15E145019
:106B50000201050EE71901E1E85103E0E751E811F0
:106B600010E1000EE66E010EE66E220EE66E010EDC
:106B7000E66E050EE66EA6EC0CF0146E050EE15EF8
:106B80001450010EE66EC5EC78F0F1D3F29E0F01C1
:106B9000276B0D0E0201E36FE46B57EC56F0640EA9
:106BA000E66EAEEC5AF0E5520201300E6C6F6D6F7E
:106BB000020EDE6EDD6ADECF14F0DDCF15F0D89068
:106BC000155004E6140E145C000E15580FE2DECFCB
:106BD000E9FFDDCFEAFF6C0EE926020EEA22780E0D
:106BE000EF6EDF2A010EE7E3DB2AE5D76C0EE66ED7
:106BF000020EE66E2E0EE66E010EE66E060EE66ED6
:106C0000A6EC0CF0146E050EE15E1450020EDB6A69
:106C1000030EDB6A200E0101855D02E1300E856FF7
:106C2000200E865D02E1300E866F200E875D02E148
:106C3000300E876F300E855D640DF3500201E76FF3
:106C4000E86B300E0101865D0A0DF3500201E72565
:106C5000E76F000EE821E86F300E0101875D020149
:106C6000E725E76F000EE821E86F88C1A8F289C127
:106C7000A9F2300E936F946F310E956F300E966FB0
:106C8000976F986F320E996F300E9A6F310E9B6F1F
:106C9000360E9C6F0F01216B460E0201A85D11E1BB
:106CA000460EA95D0EE1460EAA6FAB6F300EA86FBF
:106CB0002F0EA96F300E946F310E956F0F01396B47
:106CC000DDD00F01010E396F85C193F286C194F2B8
:106CD00087C195F2300E0201945D06E1300E955D9C
:106CE00003E0010EE76FE86B310E945D03E1010EE6
:106CF000E76FE86B320E945D06E1300E955D03E0C0
:106D0000020EE76FE86B330E945D03E1020EE76F4E
:106D1000E86B340E945D06E1300E955D03E0030EE2
:106D2000E76FE86B350E945D03E1030EE76FE86BE8
:106D3000360E945D06E1300E955D03E0040EE76FBC
:106D4000E86B370E945D03E1040EE76FE86B380ED5
:106D5000945D06E1300E955D03E0050EE76FE86B8C
:106D6000390E945D03E1050EE76FE86B310E935D1C
:106D700009E1300E945D06E1300E955D03E1050EEC
:106D8000E76FE86B320E945D06E1300E955D03E12E
:106D9000010EE76FE86B340E945D06E1300E955DF1
:106DA00003E1020EE76FE86B360E945D06E1300EEC
:106DB000955D03E1030EE76FE86B380E945D06E125
:106DC000300E955D03E1040EE76FE86B310E935DC5
:106DD00006E1300E936F320E946F300E956F380EC1
:106DE000945D0CE0360E945D09E0340E945D06E08F
:106DF000320E945D03E0300E945D06E1300E945D3A
:106E000003E0300E936F946F380E945D0CE0360EF5
:106E1000945D09E0340E945D06E0320E945D03E06B
:106E2000300E945D09E1300E945D06E1300E936FF3
:106E3000320E946F300E946F310E945D0CE0330E71
:106E4000945D09E0350E945D06E0370E945D03E035
:106E5000390E945D04E1300E936F310E946F94C23D
:106E6000A8F295C2A9F293C298F294C299F295C27F
:106E70009AF2310E9B6F360E9C6FBED0460E020109
:106E8000AB5D0BE0390EA95D04E1A829996F300EC6
:106E900003D0A8C299F2A9299A6F460EAB5D01E012
:106EA000ABD0390EA95D05E1310EA96FA829A86FF5
:106EB00003D0020EA925A96F310EA85D04E1390E99
:106EC000A95D01E199D0010EE71901E1E85103E064
:106ED000E751E8110FE1A80EE66E020EE66E3B0EDA
:106EE000E66E010EE66EE66EA6EC0CF0146E050E74
:106EF000E15E14500201020EE71901E1E85103E0DE
:106F0000E751E81110E1A80EE66E020EE66E3B0EA8
:106F1000E66E010EE66E020EE66EA6EC0CF0146E46
:106F2000050EE15E14500201030EE71901E1E8517C
:106F300003E0E751E81110E1A80EE66E020EE66EDE
:106F40003B0EE66E010EE66E030EE66EA6EC0CF04E
:106F5000146E050EE15E14500201040EE71901E102
:106F6000E85103E0E751E81110E1A80EE66E020EC9
:106F7000E66E3B0EE66E010EE66E040EE66EA6ECC5
:106F80000CF0146E050EE15E14500201050EE719B7
:106F900001E1E85103E0E751E81110E1A80EE66EC7
:106FA000020EE66E3B0EE66E010EE66E050EE66E16
:106FB000A6EC0CF0146E050EE15E1450030EE66EA6
:106FC00075EC7EF0E5520F01270501E057D7310E31
:106FD0000201A85D07E1310EA95D04E1300EA86F42
:106FE000390E02D0020EA95DA96F300E946F310EDA
:106FF000956F0F01276B42D70201010EE71901E1DE
:10700000E85103E0E751E8110FE1A80EE66E020E29
:10701000E66E3B0EE66E010EE66EE66EA6EC0CF03A
:10702000146E050EE15E14500201020EE71901E133
:10703000E85103E0E751E81110E1A80EE66E020EF8
:10704000E66E3B0EE66E010EE66E020EE66EA6ECF6
:107050000CF0146E050EE15E14500201030EE719E8
:1070600001E1E85103E0E751E81110E1A80EE66EF6
:10707000020EE66E3B0EE66E010EE66E030EE66E47
:10708000A6EC0CF0146E050EE15E14500201040E25
:10709000E71901E1E85103E0E751E81110E1A80E1A
:1070A000E66E020EE66E3B0EE66E010EE66E040E16
:1070B000E66EA6EC0CF0146E050EE15E14500201B3
:1070C000050EE71901E1E85103E0E751E81110E18D
:1070D000A80EE66E020EE66E3B0EE66E010EE66E42
:1070E000050EE66EA6EC0CF0146E050EE15E145073
:1070F0000F01270507E1276B050EE66E75EC7EF0A4
:10710000E5527AD70201010EE71901E1E85103E0E7
:10711000E751E8110FE1930EE66E020EE66E140ED3
:10712000E66E010EE66EE66EA6EC0CF0146E050E31
:10713000E15E14500201020EE71901E1E85103E09B
:10714000E751E81110E1930EE66E020EE66E140EA2
:10715000E66E010EE66E020EE66EA6EC0CF0146E04
:10716000050EE15E14500201030EE71901E1E8513A
:1071700003E0E751E81110E1930EE66E020EE66EB1
:10718000140EE66E010EE66E030EE66EA6EC0CF033
:10719000146E050EE15E14500201040EE71901E1C0
:1071A000E85103E0E751E81110E1930EE66E020E9C
:1071B000E66E140EE66E010EE66E040EE66EA6ECAA
:1071C0000CF0146E050EE15E14500201050EE71975
:1071D00001E1E85103E0E751E81110E1930EE66E9A
:1071E000020EE66E140EE66E010EE66E050EE66EFB
:1071F000A6EC0CF0146E050EE15E14500201010EB7
:10720000E71901E1E85103E0E751E8110FE1A80EA9
:10721000E66E020EE66E300EE66E010EE66EE66E6D
:10722000A6EC0CF0146E050EE15E14500201020E85
:10723000E71901E1E85103E0E751E81110E1A80E78
:10724000E66E020EE66E300EE66E010EE66E020E81
:10725000E66EA6EC0CF0146E050EE15E1450020111
:10726000030EE71901E1E85103E0E751E81110E1ED
:10727000A80EE66E020EE66E300EE66E010EE66EAB
:10728000030EE66EA6EC0CF0146E050EE15E1450D3
:107290000201040EE71901E1E85103E0E751E811AA
:1072A00010E1A80EE66E020EE66E300EE66E010EDE
:1072B000E66E040EE66EA6EC0CF0146E050EE15EB2
:1072C00014500201050EE71901E1E85103E0E7510E
:1072D000E81110E1A80EE66E020EE66E300EE66EC4
:1072E000010EE66E050EE66EA6EC0CF0146E050EB1
:1072F000E15E1450640EE66EAEEC5AF0E552020107
:10730000460E6C6F6D6F020EDE6EDD6ADECF14F01E
:10731000DDCF15F0D890155004E6140E145C000E65
:1073200015580FE2DECFE9FFDDCFEAFF6C0EE9264C
:10733000020EEA22780EEF6EDF2A010EE7E3DB2A67
:10734000E5D76C0EE66E020EE66E2E0EE66E010EB0
:10735000E66E060EE66EA6EC0CF0146E050EE15E0F
:107360001450F28E05D0640EE66EAEEC5AF0E55283
:10737000100EE15C02E2E16AE552E16EE552E7CF10
:10738000D9FF1200D9CFE6FFE1CFD9FF040EE126E5
:10739000080EF36E020EF3CFDBFF030EDB6A310E35
:1073A00001017F5D03E10F01010E1C6F320E01012F
:1073B0007F5D03E10F01020E1C6F330E01017F5D43
:1073C00003E10F01030E1C6F340E01017F5D03E129
:1073D0000F01040E1C6F350E01017F5D03E10F01EB
:1073E000050E1C6F0101230E006F020EDBCFE9FFBB
:1073F000030EDBCFEAFF7D0EE926010EEA22EFCF76
:1074000000F2010EE76E020EDBCF14F0030EDBCFAD
:1074100015F0E7501426000E1522020E14C0DBFFF3
:10742000030E15C0DBFF020EDBCFE9FF030EDBCF3F
:10743000EAFF7D0EE926010EEA22EFCF01F2010EEE
:10744000E76E020EDBCF14F0030EDBCF15F0E75032
:107450001426000E1522020E14C0DBFF030E15C009
:10746000DBFF020EDBCFE9FF030EDBCFEAFF7D0E71
:10747000E926010EEA22EFCF02F2010EE76E020EBC
:10748000DBCF14F0030EDBCF15F0E7501426000E0F
:107490001522020E14C0DBFF030E15C0DBFF020E27
:1074A000DBCFE9FF030EDBCFEAFF7D0EE926010EFD
:1074B000EA22EFCF03F2010EE76E020EDBCF14F0EB
:1074C000030EDBCF15F0E7501426000E1522020E36
:1074D00014C0DBFF030E15C0DBFF020EDBCFE9FF9C
:1074E000030EDBCFEAFF7D0EE926010EEA22EFCF85
:1074F00004F2FD0EDB5072080DE10F011C05E824BB
:1075000002010125016F3A0E015D04E1300E016FA9
:10751000310E006F080EF36E020EF3CFDBFF030E89
:10752000DB6A020EDBCFE9FF030EDBCFEAFF070EBB
:10753000E95E000EEA5A000EE926010EEA2200C2B8
:10754000EFFF010EE76E020EDBCF14F0030EDBCF70
:1075500015F0E7501426000E1522020E14C0DBFFB2
:10756000030E15C0DBFF020EDBCFE9FF030EDBCFFE
:10757000EAFF070EE95E000EEA5A000EE926010E48
:10758000EA2201C2EFFF010EE76E020EDBCF14F01C
:10759000030EDBCF15F0E7501426000E1522020E65
:1075A00014C0DBFF030E15C0DBFF020EDBCFE9FFCB
:1075B000030EDBCFEAFF070EE95E000EEA5A000E6B
:1075C000E926010EEA2202C2EFFF010EE76E020E6B
:1075D000DBCF14F0030EDBCF15F0E7501426000EBE
:1075E0001522020E14C0DBFF030E15C0DBFF020ED6
:1075F000DBCFE9FF030EDBCFEAFF070EE95E000EEB
:10760000EA5A000EE926010EEA2203C2EFFF010E3C
:10761000E76E020EDBCF14F0030EDBCF15F0E75060
:107620001426000E1522020E14C0DBFF030E15C037
:10763000DBFF020EDBCFE9FF030EDBCFEAFF070E15
:10764000E95E000EEA5A000EE926010EEA2204C2A3
:10765000EFFF010EE76E020EDBCF14F0030EDBCF5F
:1076600015F0E7501426000E1522020E14C0DBFFA1
:10767000030E15C0DBFF020EDBCFE9FF030EDBCFED
:10768000EAFF7D0EE926010EEA22EFCF06F2020E96
:10769000DBCFE9FF030EDBCFEAFF7D0EE926010E0B
:1076A000EA22EF50E66E020EDBCFE9FF030EDBCFDE
:1076B000EAFF070EE95E000EEA5A000EE926010E07
:1076C000EA22E552E750EF6E010EE76E020EDBCFC5
:1076D00014F0030EDBCF15F0E7501426000E152230
:1076E000020E14C0DBFF030E15C0DBFF020EDBCF62
:1076F000E9FF030EDBCFEAFF7D0EE926010EEA2249
:10770000EFCF07F2020EDBCFE9FF030EDBCFEAFF7C
:107710007D0EE926010EEA22EF50E66E020EDBCF67
:10772000E9FF030EDBCFEAFF070EE95E000EEA5A1F
:10773000000EE926010EEA22E552E750EF6E010E37
:10774000E76E020EDBCF14F0030EDBCF15F0E7502F
:107750001426000E1522020E14C0DBFF030E15C006
:10776000DBFF020EDBCFE9FF030EDBCFEAFF7D0E6E
:10777000E926010EEA22EFCF08F2020EDBCFE9FF85
:10778000030EDBCFEAFF7D0EE926010EEA22EF5061
:10779000E66E020EDBCFE9FF030EDBCFEAFF070E3A
:1077A000E95E000EEA5A000EE926010EEA22E552D1
:1077B000E750EF6E010EE76E020EDBCF14F0030E02
:1077C000DBCF15F0E7501426000E1522020E14C070
:1077D000DBFF030E15C0DBFF020EDBCFE9FF030E5C
:1077E000DBCFEAFF7D0EE926010EEA22EFCF09F298
:1077F000020EDBCFE9FF030EDBCFEAFF7D0EE926A9
:10780000010EEA22EF50E66E020EDBCFE9FF030E17
:10781000DBCFEAFF070EE95E000EEA5A000EE9260A
:10782000010EEA22E552E750EF6E010EE76E020EFE
:10783000DBCF14F0030EDBCF15F0E7501426000E5B
:107840001522020E14C0DBFF030E15C0DBFF020E73
:10785000DBCFE9FF030EDBCFEAFF7D0EE926010E49
:10786000EA22EFCF0AF2020EDBCFE9FF030EDBCFF5
:10787000EAFF7D0EE926010EEA22EF50E66E020EC7
:10788000DBCFE9FF030EDBCFEAFF070EE95E000E58
:10789000EA5A000EE926010EEA22E552E750EF6EA1
:1078A000010EE76E020EDBCF14F0030EDBCF15F0F6
:1078B000E7501426000E1522020E14C0DBFF030E43
:1078C00015C0DBFF020EDBCFE9FF030EDBCFEAFFC3
:1078D0007D0EE926010EEA22EFCF0BF2020EDBCF7E
:1078E000E9FF030EDBCFEAFF7D0EE926010EEA2257
:1078F000EF50E66E020EDBCFE9FF030EDBCFEAFFAF
:10790000070EE95E000EEA5A000EE926010EEA2291
:10791000E552E750EF6E010EE76E020EDBCF14F07A
:10792000030EDBCF15F0E7501426000E1522020ED1
:1079300014C0DBFF030E15C0DBFF020EDBCFE9FF37
:10794000030EDBCFEAFF7D0EE926010EEA22EFCF20
:107950000CF2020EDBCFE9FF030EDBCFEAFF7D0E58
:10796000E926010EEA22EF50E66E020EDBCFE9FFB8
:10797000030EDBCFEAFF070EE95E000EEA5A000EA7
:10798000E926010EEA22E552E750EF6E010EE76E9E
:10799000020EDBCF14F0030EDBCF15F0E7501426F8
:1079A000000E1522020E14C0DBFF030E15C0DBFF14
:1079B000020EDBCFE9FF030EDBCFEAFF7D0EE926E7
:1079C000010EEA22EFCF0DF2020EDBCFE9FF030E2C
:1079D000DBCFEAFF7D0EE926010EEA22EF50E66ECC
:1079E000020EDBCFE9FF030EDBCFEAFF070EE95EF5
:1079F000000EEA5A000EE926010EEA22E552E7508F
:107A0000EF6E010EE76E020EDBCF14F0030EDBCF3C
:107A100015F0E7501426000E1522020E14C0DBFFED
:107A2000030E15C0DBFF020EDBCFE9FF030EDBCF39
:107A3000EAFF7D0EE926010EEA22EFCF0EF2020EDA
:107A4000DBCFE9FF030EDBCFEAFF7D0EE926010E57
:107A5000EA22EF50E66E020EDBCFE9FF030EDBCF2A
:107A6000EAFF070EE95E000EEA5A000EE926010E53
:107A7000EA22E552E750EF6E010EE76E020EDBCF11
:107A800014F0030EDBCF15F0E7501426000E15227C
:107A9000020E14C0DBFF030E15C0DBFF020EDBCFAE
:107AA000E9FF030EDBCFEAFF7D0EE926010EEA2295
:107AB000EFCF0FF2020EDBCFE9FF030EDBCFEAFFC1
:107AC0007D0EE926010EEA22EF50E66E020EDBCFB4
:107AD000E9FF030EDBCFEAFF070EE95E000EEA5A6C
:107AE000000EE926010EEA22E552E750EF6E010E84
:107AF000E76E020EDBCF14F0030EDBCF15F0E7507C
:107B00001426000E1522020E14C0DBFF030E15C052
:107B1000DBFF020EDBCFE9FF030EDBCFEAFF7D0EBA
:107B2000E926010EEA22EFCF10F2020EDBCFE9FFC9
:107B3000030EDBCFEAFF7D0EE926010EEA22EF50AD
:107B4000E66E020EDBCFE9FF030EDBCFEAFF070E86
:107B5000E95E000EEA5A000EE926010EEA22E5521D
:107B6000E750EF6E010EE76E020EDBCF14F0030E4E
:107B7000DBCF15F0E7501426000E1522020E14C0BC
:107B8000DBFF030E15C0DBFF020EDBCFE9FF030EA8
:107B9000DBCFEAFF7D0EE926010EEA22EFCF11F2DC
:107BA000020EDBCFE9FF030EDBCFEAFF7D0EE926F5
:107BB000010EEA22EF50E66E020EDBCFE9FF030E64
:107BC000DBCFEAFF070EE95E000EEA5A000EE92657
:107BD000010EEA22E552E750EF6E010EE76E020E4B
:107BE000DBCF14F0030EDBCF15F0E7501426000EA8
:107BF0001522020E14C0DBFF030E15C0DBFF020EC0
:107C0000DBCFE9FF030EDBCFEAFF7D0EE926010E95
:107C1000EA22EFCF12F2020EDBCFE9FF030EDBCF39
:107C2000EAFF7D0EE926010EEA22EF50E66E020E13
:107C3000DBCFE9FF030EDBCFEAFF070EE95E000EA4
:107C4000EA5A000EE926010EEA22E552E750EF6EED
:107C5000010EE76E020EDBCF14F0030EDBCF15F042
:107C6000E7501426000E1522020E14C0DBFF030E8F
:107C700015C0DBFFDE6ADD6ADE6ADD6ADECF14F086
:107C8000DDCF15F0D890155004E60D0E145C000EF3
:107C900015584BE2020EDBCFE9FF030EDBCFEAFF04
:107CA0007D0EE926010EEA22EF50E66EDECFE9FFF7
:107CB000DDCFEAFF130EE926020EEA22E552E75075
:107CC000EF6E020EDBCFE9FF030EDBCFEAFF7D0E86
:107CD000E926010EEA22EF50E66E020EDBCFE9FF45
:107CE000030EDBCFEAFF070EE95E000EEA5A000E34
:107CF000E926010EEA22E552E750EF6E010EE76E2B
:107D0000020EDBCF14F0030EDBCF15F0E750142684
:107D1000000E1522020E14C0DBFF030E15C0DBFFA0
:107D2000DF2A010EABE3DB2AA9D7DE6ADD6ADE6A51
:107D3000DD6ADECF14F0DDCF15F0D890155004E6E3
:107D4000120E145C000E15584BE2020EDBCFE9FF59
:107D5000030EDBCFEAFF7D0EE926010EEA22EF508B
:107D6000E66EDECFE9FFDDCFEAFF200EE926020E48
:107D7000EA22E552E750EF6E020EDBCFE9FF030E79
:107D8000DBCFEAFF7D0EE926010EEA22EF50E66E18
:107D9000020EDBCFE9FF030EDBCFEAFF070EE95E41
:107DA000000EEA5A000EE926010EEA22E552E750DB
:107DB000EF6E010EE76E020EDBCF14F0030EDBCF89
:107DC00015F0E7501426000E1522020E14C0DBFF3A
:107DD000030E15C0DBFFDF2A010EABE3DB2AA9D7B8
:107DE000020EDBCFE9FF030EDBCFEAFF070EE95EF1
:107DF000000EEA5A000EE926010EEA2200C2EFFF49
:107E0000010EE76E020EDBCF14F0030EDBCF15F090
:107E1000E7501426000E1522020E14C0DBFF030EDD
:107E200015C0DBFF020EDBCFE9FF030EDBCFEAFF5D
:107E3000070EE95E000EEA5A000EE926010EEA225C
:107E400001C2EFFF010EE76E020EDBCF14F0030E4E
:107E5000DBCF15F0E7501426000E1522020E14C0D9
:107E6000DBFF030E15C0DBFF020EDBCFE9FF030EC5
:107E7000DBCFEAFF070EE95E000EEA5A000EE926A4
:107E8000010EEA2202C2EFFF010EE76E020EDBCF07
:107E900014F0030EDBCF15F0E7501426000E152268
:107EA000020E14C0DBFF030E15C0DBFF020EDBCF9A
:107EB000E9FF030EDBCFEAFF7D0EE926010EEA2281
:107EC000EF503F0801E00FD188C237F289C238F283
:107ED0008AC239F28BC23AF282C23BF283C23CF2CE
:107EE00084C23DF285C23EF2020EDBCFE9FF030EF3
:107EF000DBCFEAFF070EE95E000EEA5A000EE92624
:107F0000010EEA2288C2EFFF010EE76E020EDBCF00
:107F100014F0030EDBCF15F0E7501426000E1522E7
:107F2000020E14C0DBFF030E15C0DBFF020EDBCF19
:107F3000E9FF030EDBCFEAFF070EE95E000EEA5A07
:107F4000000EE926010EEA2238C2EFFF010EE76EAD
:107F5000020EDBCF14F0030EDBCF15F0E750142632
:107F6000000E1522020E14C0DBFF030E15C0DBFF4E
:107F7000020EDBCFE9FF030EDBCFEAFF070EE95E5F
:107F8000000EEA5A000EE926010EEA2239C2EFFF7E
:107F9000010EE76E020EDBCF14F0030EDBCF15F0FF
:107FA000E7501426000E1522020E14C0DBFF030E4C
:107FB00015C0DBFF020EDBCFE9FF030EDBCFEAFFCC
:107FC000070EE95E000EEA5A000EE926010EEA22CB
:107FD0003AC2EFFF010EE76E020EDBCF14F0030E84
:107FE000DBCF15F0E7501426000E1522020E14C048
:107FF000DBFF030E15C0DBFF020EDBCFE9FF030E34
:10800000DBCFEAFF070EE95E000EEA5A000EE92612
:10801000010EEA223BC2EFFF010EE76E020EDBCF3C
:1080200014F0030EDBCF15F0E7501426000E1522D6
:10803000020E14C0DBFF030E15C0DBFF020EDBCF08
:10804000E9FF030EDBCFEAFF070EE95E000EEA5AF6
:10805000000EE926010EEA223CC2EFFF010EE76E98
:10806000020EDBCF14F0030EDBCF15F0E750142621
:10807000000E1522020E14C0DBFF030E15C0DBFF3D
:10808000020EDBCFE9FF030EDBCFEAFF070EE95E4E
:10809000000EEA5A000EE926010EEA223DC2EFFF69
:1080A000010EE76E020EDBCF14F0030EDBCF15F0EE
:1080B000E7501426000E1522020E14C0DBFF030E3B
:1080C00015C0DBFF020EDBCFE9FF030EDBCFEAFFBB
:1080D000070EE95E000EEA5A000EE926010EEA22BA
:1080E0003EC2EFFFC6D1020EDBCFE9FF030EDBCFAE
:1080F000EAFF7D0EE926010EEA22EFCF37F2020EEB
:10810000DBCFE9FF030EDBCFEAFF7D0EE926010E90
:10811000EA22EF50E66E020EDBCFE9FF030EDBCF63
:10812000EAFF070EE95E000EEA5A000EE926010E8C
:10813000EA22E552E750EF6E010EE76E020EDBCF4A
:1081400014F0030EDBCF15F0E7501426000E1522B5
:10815000020E14C0DBFF030E15C0DBFF020EDBCFE7
:10816000E9FF030EDBCFEAFF7D0EE926010EEA22CE
:10817000EFCF38F2020EDBCFE9FF030EDBCFEAFFD1
:108180007D0EE926010EEA22EF50E66E020EDBCFED
:10819000E9FF030EDBCFEAFF070EE95E000EEA5AA5
:1081A000000EE926010EEA22E552E750EF6E010EBD
:1081B000E76E020EDBCF14F0030EDBCF15F0E750B5
:1081C0001426000E1522020E14C0DBFF030E15C08C
:1081D000DBFF020EDBCFE9FF030EDBCFEAFF7D0EF4
:1081E000E926010EEA22EFCF39F2020EDBCFE9FFDA
:1081F000030EDBCFEAFF7D0EE926010EEA22EF50E7
:10820000E66E020EDBCFE9FF030EDBCFEAFF070EBF
:10821000E95E000EEA5A000EE926010EEA22E55256
:10822000E750EF6E010EE76E020EDBCF14F0030E87
:10823000DBCF15F0E7501426000E1522020E14C0F5
:10824000DBFF030E15C0DBFF020EDBCFE9FF030EE1
:10825000DBCFEAFF7D0EE926010EEA22EFCF3AF2EC
:10826000020EDBCFE9FF030EDBCFEAFF7D0EE9262E
:10827000010EEA22EF50E66E020EDBCFE9FF030E9D
:10828000DBCFEAFF070EE95E000EEA5A000EE92690
:10829000010EEA22E552E750EF6E010EE76E020E84
:1082A000DBCF14F0030EDBCF15F0E7501426000EE1
:1082B0001522020E14C0DBFF030E15C0DBFF020EF9
:1082C000DBCFE9FF030EDBCFEAFF7D0EE926010ECF
:1082D000EA22EFCF3BF2020EDBCFE9FF030EDBCF4A
:1082E000EAFF7D0EE926010EEA22EF50E66E020E4D
:1082F000DBCFE9FF030EDBCFEAFF070EE95E000EDE
:10830000EA5A000EE926010EEA22E552E750EF6E26
:10831000010EE76E020EDBCF14F0030EDBCF15F07B
:10832000E7501426000E1522020E14C0DBFF030EC8
:1083300015C0DBFF020EDBCFE9FF030EDBCFEAFF48
:108340007D0EE926010EEA22EFCF3CF2020EDBCFD2
:10835000E9FF030EDBCFEAFF7D0EE926010EEA22DC
:10836000EF50E66E020EDBCFE9FF030EDBCFEAFF34
:10837000070EE95E000EEA5A000EE926010EEA2217
:10838000E552E750EF6E010EE76E020EDBCF14F000
:10839000030EDBCF15F0E7501426000E1522020E57
:1083A00014C0DBFF030E15C0DBFF020EDBCFE9FFBD
:1083B000030EDBCFEAFF7D0EE926010EEA22EFCFA6
:1083C0003DF2020EDBCFE9FF030EDBCFEAFF7D0EAD
:1083D000E926010EEA22EF50E66E020EDBCFE9FF3E
:1083E000030EDBCFEAFF070EE95E000EEA5A000E2D
:1083F000E926010EEA22E552E750EF6E010EE76E24
:10840000020EDBCF14F0030EDBCF15F0E75014267D
:10841000000E1522020E14C0DBFF030E15C0DBFF99
:10842000020EDBCFE9FF030EDBCFEAFF7D0EE9266C
:10843000010EEA22EFCF3EF2020EDBCFE9FF030E80
:10844000DBCFEAFF7D0EE926010EEA22EF50E66E51
:10845000020EDBCFE9FF030EDBCFEAFF070EE95E7A
:10846000000EEA5A000EE926010EEA22E552E75014
:10847000EF6E010EE76E020EDBCF14F0030EDBCFC2
:1084800015F0E7501426000E1522020E14C0DBFF73
:10849000030E15C0DBFF020EDBCFE9FF030EDBCFBF
:1084A000EAFF7D0EE926010EEA22EFCF3FF2020E2F
:1084B000DBCFE9FF030EDBCFEAFF7D0EE926010EDD
:1084C000EA22EF50E66E020EDBCFE9FF030EDBCFB0
:1084D000EAFF070EE95E000EEA5A000EE926010ED9
:1084E000EA22E552E750EF6E010EE76E020EDBCF97
:1084F00014F0030EDBCF15F0E7501426000E152202
:10850000020E14C0DBFF030E15C0DBFF020EDBCF33
:10851000E9FF030EDBCFEAFF7D0EE926010EEA221A
:10852000EFCF40F2020EDBCFE9FF030EDBCFEAFF15
:108530007D0EE926010EEA22EF50E66E020EDBCF39
:10854000E9FF030EDBCFEAFF070EE95E000EEA5AF1
:10855000000EE926010EEA22E552E750EF6E010E09
:10856000E76E020EDBCF14F0030EDBCF15F0E75001
:108570001426000E1522020E14C0DBFF030E15C0D8
:10858000DBFF020EDBCFE9FF030EDBCFEAFF7D0E40
:10859000E926010EEA22EFCF41F2020EDBCFE9FF1E
:1085A000030EDBCFEAFF7D0EE926010EEA22EF5033
:1085B000E66E020EDBCFE9FF030EDBCFEAFF070E0C
:1085C000E95E000EEA5A000EE926010EEA22E552A3
:1085D000E750EF6E010EE76E020EDBCF14F0030ED4
:1085E000DBCF15F0E7501426000E1522020E14C042
:1085F000DBFF030E15C0DBFF020EDBCFE9FF030E2E
:10860000DBCFEAFF7D0EE926010EEA22EFCF42F230
:10861000020EDBCFE9FF030EDBCFEAFF7D0EE9267A
:10862000010EEA22EF50E66E020EDBCFE9FF030EE9
:10863000DBCFEAFF070EE95E000EEA5A000EE926DC
:10864000010EEA22E552E750EF6E010EE76E020ED0
:10865000DBCF14F0030EDBCF15F0E7501426000E2D
:108660001522020E14C0DBFF030E15C0DBFF020E45
:10867000DBCFE9FF030EDBCFEAFF7D0EE926010E1B
:10868000EA22EFCF43F2020EDBCFE9FF030EDBCF8E
:10869000EAFF7D0EE926010EEA22EF50E66E020E99
:1086A000DBCFE9FF030EDBCFEAFF070EE95E000E2A
:1086B000EA5A000EE926010EEA22E552E750EF6E73
:1086C000010EE76E020EDBCF14F0030EDBCF15F0C8
:1086D000E7501426000E1522020E14C0DBFF030E15
:1086E00015C0DBFF020EDBCFE9FF030EDBCFEAFF95
:1086F0007D0EE926010EEA22EFCF44F2020EDBCF17
:10870000E9FF030EDBCFEAFF7D0EE926010EEA2228
:10871000EF50E66E020EDBCFE9FF030EDBCFEAFF80
:10872000070EE95E000EEA5A000EE926010EEA2263
:10873000E552E750EF6E010EE76E020EDBCF14F04C
:10874000030EDBCF15F0E7501426000E1522020EA3
:1087500014C0DBFF030E15C0DBFF020EDBCFE9FF09
:10876000030EDBCFEAFF7D0EE926010EEA22EFCFF2
:1087700045F2020EDBCFE9FF030EDBCFEAFF7D0EF1
:10878000E926010EEA22EF50E66E020EDBCFE9FF8A
:10879000030EDBCFEAFF070EE95E000EEA5A000E79
:1087A000E926010EEA22E552E750EF6E010EE76E70
:1087B000020EDBCF14F0030EDBCF15F0E7501426CA
:1087C000000E1522020E14C0DBFF030E15C0DBFFE6
:1087D000020EDBCFE9FF030EDBCFEAFF7D0EE926B9
:1087E000010EEA22EFCF46F2020EDBCFE9FF030EC5
:1087F000DBCFEAFF7D0EE926010EEA22EF50E66E9E
:10880000020EDBCFE9FF030EDBCFEAFF070EE95EC6
:10881000000EEA5A000EE926010EEA22E552E75060
:10882000EF6E010EE76E020EDBCF14F0030EDBCF0E
:1088300015F0E7501426000E1522020E14C0DBFFBF
:10884000030E15C0DBFF020EDBCFE9FF030EDBCF0B
:10885000EAFF7D0EE926010EEA22EFCF47F2020E73
:10886000DBCFE9FF030EDBCFEAFF7D0EE926010E29
:10887000EA22EF50E66E020EDBCFE9FF030EDBCFFC
:10888000EAFF070EE95E000EEA5A000EE926010E25
:10889000EA22E552E750EF6E010EE76E020EDBCFE3
:1088A00014F0030EDBCF15F0E7501426000E15224E
:1088B000020E14C0DBFF030E15C0DBFF020EDBCF80
:1088C000E9FF030EDBCFEAFF7D0EE926010EEA2267
:1088D000EFCF48F2020EDBCFE9FF030EDBCFEAFF5A
:1088E0007D0EE926010EEA22EF50E66E020EDBCF86
:1088F000E9FF030EDBCFEAFF070EE95E000EEA5A3E
:10890000000EE926010EEA22E552E750EF6E010E55
:10891000E76E020EDBCF14F0030EDBCF15F0E7504D
:108920001426000E1522020E14C0DBFF030E15C024
:10893000DBFF020EDBCFE9FF030EDBCFEAFF7D0E8C
:10894000E926010EEA22EFCF49F2020EDBCFE9FF62
:10895000030EDBCFEAFF7D0EE926010EEA22EF507F
:10896000E66E020EDBCFE9FF030EDBCFEAFF070E58
:10897000E95E000EEA5A000EE926010EEA22E552EF
:10898000E750EF6E010EE76E020EDBCF14F0030E20
:10899000DBCF15F0E7501426000E1522020E14C08E
:1089A000DBFF030E15C0DBFF020EDBCFE9FF030E7A
:1089B000DBCFEAFF7D0EE926010EEA22EFCF4AF275
:1089C000020EDBCFE9FF030EDBCFEAFF7D0EE926C7
:1089D000010EEA22EF50E66E020EDBCFE9FF030E36
:1089E000DBCFEAFF070EE95E000EEA5A000EE92629
:1089F000010EEA22E552E750EF6E010EE76E020E1D
:108A0000DBCF14F0030EDBCF15F0E7501426000E79
:108A10001522020E14C0DBFF030E15C0DBFF020E91
:108A2000DBCFE9FF030EDBCFEAFF7D0EE926010E67
:108A3000EA22EFCF4BF2020EDBCFE9FF030EDBCFD2
:108A4000EAFF7D0EE926010EEA22EF50E66E020EE5
:108A5000DBCFE9FF030EDBCFEAFF070EE95E000E76
:108A6000EA5A000EE926010EEA22E552E750EF6EBF
:108A7000010EE76E020EDBCF14F0030EDBCF15F014
:108A8000E7501426000E1522020E14C0DBFF030E61
:108A900015C0DBFF020EDBCFE9FF030EDBCFEAFFE1
:108AA0007D0EE926010EEA22EFCF4CF2020EDBCF5B
:108AB000E9FF030EDBCFEAFF7D0EE926010EEA2275
:108AC000EF50E66E020EDBCFE9FF030EDBCFEAFFCD
:108AD000070EE95E000EEA5A000EE926010EEA22B0
:108AE000E552E750EF6E010EE76E020EDBCF14F099
:108AF000030EDBCF15F0E7501426000E1522020EF0
:108B000014C0DBFF030E15C0DBFF020EDBCFE9FF55
:108B1000030EDBCFEAFF7D0EE926010EEA22EF50BD
:108B200058082AE1460E0F013A5D13E10201350EA5
:108B30004D6F020EDBCFE9FF030EDBCFEAFF070E1E
:108B4000E95E000EEA5A000EE926010EEA22350E11
:108B50003BD03ACF4DF2020EDBCFE9FF030EDBCF65
:108B6000EAFF070EE95E000EEA5A000EE926010E42
:108B7000EA223ACFEFFF29D0020EDBCFE9FF030E46
:108B8000DBCFEAFF7D0EE926010EEA22EFCF4DF2A0
:108B9000020EDBCFE9FF030EDBCFEAFF7D0EE926F5
:108BA000010EEA22EF50E66E020EDBCFE9FF030E64
:108BB000DBCFEAFF070EE95E000EEA5A000EE92657
:108BC000010EEA22E552E750EF6E010EE76E020E4B
:108BD000DBCF14F0030EDBCF15F0E7501426000EA8
:108BE0001522020E14C0DBFF030E15C0DBFF020EC0
:108BF000DBCFE9FF030EDBCFEAFF7D0EE926010E96
:108C0000EA22EFCF4EF2020EDBCFE9FF030EDBCFFD
:108C1000EAFF7D0EE926010EEA22EF50E66E020E13
:108C2000DBCFE9FF030EDBCFEAFF070EE95E000EA4
:108C3000EA5A000EE926010EEA22E552E750EF6EED
:108C4000010EE76E020EDBCF14F0030EDBCF15F042
:108C5000E7501426000E1522020E14C0DBFF030E8F
:108C600015C0DBFF020EDBCFE9FF030EDBCFEAFF0F
:108C70007D0EE926010EEA22EFCF4FF2020EDBCF86
:108C8000E9FF030EDBCFEAFF7D0EE926010EEA22A3
:108C9000EF50E66E020EDBCFE9FF030EDBCFEAFFFB
:108CA000070EE95E000EEA5A000EE926010EEA22DE
:108CB000E552E750EF6E010EE76E020EDBCF14F0C7
:108CC000030EDBCF15F0E7501426000E1522020E1E
:108CD00014C0DBFF030E15C0DBFF020EDBCFE9FF84
:108CE000030EDBCFEAFF7D0EE926010EEA22EFCF6D
:108CF00050F2020EDBCFE9FF030EDBCFEAFF7D0E61
:108D0000E926010EEA22EF50E66E020EDBCFE9FF04
:108D1000030EDBCFEAFF070EE95E000EEA5A000EF3
:108D2000E926010EEA22E552E750EF6E010EE76EEA
:108D3000020EDBCF14F0030EDBCF15F0E750142644
:108D4000000E1522020E14C0DBFF030E15C0DBFF60
:108D5000020EDBCFE9FF030EDBCFEAFF7D0EE92633
:108D6000010EEA22EFCF51F2020EDBCFE9FF030E34
:108D7000DBCFEAFF7D0EE926010EEA22EF50E66E18
:108D8000020EDBCFE9FF030EDBCFEAFF070EE95E41
:108D9000000EEA5A000EE926010EEA22E552E750DB
:108DA000EF6E010EE76E020EDBCF14F0030EDBCF89
:108DB00015F0E7501426000E1522020E14C0DBFF3A
:108DC000030E15C0DBFF020EDBCFE9FF030EDBCF86
:108DD000EAFF7D0EE926010EEA22EFCF52F2020EE3
:108DE000DBCFE9FF030EDBCFEAFF7D0EE926010EA4
:108DF000EA22EF50E66E020EDBCFE9FF030EDBCF77
:108E0000EAFF070EE95E000EEA5A000EE926010E9F
:108E1000EA22E552E750EF6E010EE76E020EDBCF5D
:108E200014F0030EDBCF15F0E7501426000E1522C8
:108E3000020E14C0DBFF030E15C0DBFF020EDBCFFA
:108E4000E9FF030EDBCFEAFF7D0EE926010EEA22E1
:108E5000EFCF53F2020EDBCFE9FF030EDBCFEAFFC9
:108E60007D0EE926010EEA22EF50E66E020EDBCF00
:108E7000E9FF030EDBCFEAFF070EE95E000EEA5AB8
:108E8000000EE926010EEA22E552E750EF6E010ED0
:108E9000E76E020EDBCF14F0030EDBCF15F0E750C8
:108EA0001426000E1522020E14C0DBFF030E15C09F
:108EB000DBFF020EDBCFE9FF030EDBCFEAFF7D0E07
:108EC000E926010EEA22EFCF54F2020EDBCFE9FFD2
:108ED000030EDBCFEAFF7D0EE926010EEA22EF50FA
:108EE000E66E020EDBCFE9FF030EDBCFEAFF070ED3
:108EF000E95E000EEA5A000EE926010EEA22E5526A
:108F0000E750EF6E010EE76E020EDBCF14F0030E9A
:108F1000DBCF15F0E7501426000E1522020E14C008
:108F2000DBFF030E15C0DBFF020EDBCFE9FF030EF4
:108F3000DBCFEAFF7D0EE926010EEA22EFCF55F2E4
:108F4000020EDBCFE9FF030EDBCFEAFF7D0EE92641
:108F5000010EEA22EF50E66E020EDBCFE9FF030EB0
:108F6000DBCFEAFF070EE95E000EEA5A000EE926A3
:108F7000010EEA22E552E750EF6E010EE76E020E97
:108F8000DBCF14F0030EDBCF15F0E7501426000EF4
:108F90001522020E14C0DBFF030E15C0DBFF020E0C
:108FA000DBCFE9FF030EDBCFEAFF7D0EE926010EE2
:108FB000EA22EFCF56F2020EDBCFE9FF030EDBCF42
:108FC000EAFF7D0EE926010EEA22EF50E66E020E60
:108FD000DBCFE9FF030EDBCFEAFF070EE95E000EF1
:108FE000EA5A000EE926010EEA22E552E750EF6E3A
:108FF000010EE76E020EDBCF14F0030EDBCF15F08F
:10900000E7501426000E1522020E14C0DBFF030EDB
:1090100015C0DBFF020EDBCFE9FF030EDBCFEAFF5B
:10902000070EE95E000EEA5A000EE926010EEA225A
:109030002A0EEF6EFE0EDB0425E1010EE66E000E39
:10904000E66E010EE66E000EE66E010EE66EBEECFA
:1090500056F0E552E552F3CF14F0F4CF15F0F3CF0C
:10906000E6FFF4CFE6FF000EE66E010EE66E9EEC24
:1090700058F0E552E552E66EF9EC5AF0166E060E1F
:10908000E15E1650390E0201025D06E1020EDBCFF1
:10909000E3F2030EDBCFE4F2010EE66E7D0EE66E28
:1090A000010EE66E000EE66E010EE66EBEEC56F0A8
:1090B000E552E552F3CF14F0F4CF15F0F3CFE6FF0D
:1090C000F4CFE6FF000EE66E010EE66E9EEC58F061
:1090D000E552E552E66E84EC59F0166E060EE15E3E
:1090E0001650020EDBCFE3F2030EDBCFE4F2040EE8
:1090F000E15C02E2E16AE552E16EE552E7CFD9FFB9
:109100001200D9CFE6FFE1CFD9FF0A0EE126080E03
:10911000F36E020EF3CFDBFF030EDB6A93C200F2A5
:10912000020EDBCFE9FF030EDBCFEAFF000EE926DC
:10913000010EEA2293C2EFFF010EE76E020EDBCFB3
:1091400014F0030EDBCF15F0E7501426000E1522A5
:10915000020E14C0DBFF030E15C0DBFF94C201F248
:10916000020EDBCFE9FF030EDBCFEAFF000EE9269C
:10917000010EEA2294C2EFFF010EE76E020EDBCF72
:1091800014F0030EDBCF15F0E7501426000E152265
:10919000020E14C0DBFF030E15C0DBFF95C202F206
:1091A000020EDBCFE9FF030EDBCFEAFF000EE9265C
:1091B000010EEA2295C2EFFF010EE76E020EDBCF31
:1091C00014F0030EDBCF15F0E7501426000E152225
:1091D000020E14C0DBFF030E15C0DBFF96C203F2C4
:1091E000020EDBCFE9FF030EDBCFEAFF000EE9261C
:1091F000010EEA2296C2EFFF010EE76E020EDBCFF0
:1092000014F0030EDBCF15F0E7501426000E1522E4
:10921000020E14C0DBFF030E15C0DBFF97C204F281
:10922000020EDBCFE9FF030EDBCFEAFF000EE926DB
:10923000010EEA2297C2EFFF010EE76E020EDBCFAE
:1092400014F0030EDBCF15F0E7501426000E1522A4
:10925000020E14C0DBFF030E15C0DBFF230EF36EFE
:10926000040EF3CFDBFF050E00C2DBFF060E01C2CA
:10927000DBFF070E02C2DBFF080E03C2DBFF090E95
:1092800004C2DBFF010EE66E7D0EE66E010EE66E99
:10929000D950040FE66E000EDA20E66EBEEC56F0F2
:1092A000E552E552F3CF14F0F4CF15F0F3CFE6FF1B
:1092B000F4CFE6FFD950040FE66E000EDA20E66E1A
:1092C0009EEC58F0E552E552E66E84EC59F0166ECD
:1092D000060EE15E16500201E56F020EDBCFE9FFDC
:1092E000030EDBCFEAFF070EE95E000EEA5A7D0EA1
:1092F000E926010EEA22EFCF06F2020EDBCFE9FFEC
:10930000030EDBCFEAFF070EE95E000EEA5A7D0E80
:10931000E926010EEA22EF50E66E020EDBCFE9FFEE
:10932000030EDBCFEAFF000EE926010EEA22E5522A
:10933000E750EF6E010EE76E020EDBCF14F0030E66
:10934000DBCF15F0E7501426000E1522020E14C0D4
:10935000DBFF030E15C0DBFF020EDBCFE9FF030EC0
:10936000DBCFEAFF070EE95E000EEA5A7D0EE92622
:10937000010EEA22EFCF07F2020EDBCFE9FF030E68
:10938000DBCFEAFF070EE95E000EEA5A7D0EE92602
:10939000010EEA22EF50E66E020EDBCFE9FF030E6C
:1093A000DBCFEAFF000EE926010EEA22E552E75084
:1093B000EF6E010EE76E020EDBCF14F0030EDBCF73
:1093C00015F0E7501426000E1522020E14C0DBFF24
:1093D000030E15C0DBFF020EDBCFE9FF030EDBCF70
:1093E000EAFF070EE95E000EEA5A7D0EE926010E3D
:1093F000EA22EFCF08F2020EDBCFE9FF030EDBCF4C
:10940000EAFF070EE95E000EEA5A7D0EE926010E1C
:10941000EA22EF50E66E020EDBCFE9FF030EDBCF50
:10942000EAFF000EE926010EEA22E552E750EF6E50
:10943000010EE76E020EDBCF14F0030EDBCF15F04A
:10944000E7501426000E1522020E14C0DBFF030E97
:1094500015C0DBFF020EDBCFE9FF030EDBCFEAFF17
:10946000070EE95E000EEA5A7D0EE926010EEA2299
:10947000EFCF09F2020EDBCFE9FF030EDBCFEAFFED
:10948000070EE95E000EEA5A7D0EE926010EEA2279
:10949000EF50E66E020EDBCFE9FF030EDBCFEAFFF3
:1094A000000EE926010EEA22E552E750EF6E010EAA
:1094B000E76E020EDBCF14F0030EDBCF15F0E750A2
:1094C0001426000E1522020E14C0DBFF030E15C079
:1094D000DBFF020EDBCFE9FF030EDBCFEAFF070E57
:1094E000E95E000EEA5A7D0EE926010EEA22EFCF70
:1094F0000AF2020EDBCFE9FF030EDBCFEAFF070E15
:10950000E95E000EEA5A7D0EE926010EEA22EF50CE
:10951000E66E020EDBCFE9FF030EDBCFEAFF000EA3
:10952000E926010EEA22E552E750EF6E010EE76EE2
:10953000020EDBCF14F0030EDBCF15F0E75014263C
:10954000000E1522020E14C0DBFF030E15C0DBFF58
:10955000020EDBCFE9FF030EDBCFEAFF070EE95E69
:10956000000EEA5A7D0EE926010EEA22EFCF0BF239
:10957000020EDBCFE9FF030EDBCFEAFF070EE95E49
:10958000000EEA5A7D0EE926010EEA22EF50E66E41
:10959000020EDBCFE9FF030EDBCFEAFF000EE92668
:1095A000010EEA22E552E750EF6E010EE76E020E61
:1095B000DBCF14F0030EDBCF15F0E7501426000EBE
:1095C0001522020E14C0DBFF030E15C0DBFF020ED6
:1095D000DBCFE9FF030EDBCFEAFF070EE95E000EEB
:1095E000EA5A7D0EE926010EEA22EFCF0CF2020EB6
:1095F000DBCFE9FF030EDBCFEAFF070EE95E000ECB
:10960000EA5A7D0EE926010EEA22EF50E66E020EBE
:10961000DBCFE9FF030EDBCFEAFF000EE926010EE8
:10962000EA22E552E750EF6E010EE76E020EDBCF45
:1096300014F0030EDBCF15F0E7501426000E1522B0
:10964000020E14C0DBFF030E15C0DBFF020EDBCFE2
:10965000E9FF030EDBCFEAFF070EE95E000EEA5AD0
:109660007D0EE926010EEA22EFCF0DF2020EDBCFCE
:10967000E9FF030EDBCFEAFF070EE95E000EEA5AB0
:109680007D0EE926010EEA22EF50E66E020EDBCFD8
:10969000E9FF030EDBCFEAFF000EE926010EEA2206
:1096A000E552E750EF6E010EE76E020EDBCF14F0CD
:1096B000030EDBCF15F0E7501426000E1522020E24
:1096C00014C0DBFF030E15C0DBFF020EDBCFE9FF8A
:1096D000030EDBCFEAFF070EE95E000EEA5A7D0EAD
:1096E000E926010EEA22EFCF0EF2020EDBCFE9FFF0
:1096F000030EDBCFEAFF070EE95E000EEA5A7D0E8D
:10970000E926010EEA22EF50E66E020EDBCFE9FFFA
:10971000030EDBCFEAFF000EE926010EEA22E55236
:10972000E750EF6E010EE76E020EDBCF14F0030E72
:10973000DBCF15F0E7501426000E1522020E14C0E0
:10974000DBFF030E15C0DBFF020EDBCFE9FF030ECC
:10975000DBCFEAFF070EE95E000EEA5A7D0EE9262E
:10976000010EEA22EFCF0FF2020EDBCFE9FF030E6C
:10977000DBCFEAFF070EE95E000EEA5A7D0EE9260E
:10978000010EEA22EF50E66E020EDBCFE9FF030E78
:10979000DBCFEAFF000EE926010EEA22E552E75090
:1097A000EF6E010EE76E020EDBCF14F0030EDBCF7F
:1097B00015F0E7501426000E1522020E14C0DBFF30
:1097C000030E15C0DBFF020EDBCFE9FF030EDBCF7C
:1097D000EAFF070EE95E000EEA5A7D0EE926010E49
:1097E000EA22EFCF10F2020EDBCFE9FF030EDBCF50
:1097F000EAFF070EE95E000EEA5A7D0EE926010E29
:10980000EA22EF50E66E020EDBCFE9FF030EDBCF5C
:10981000EAFF000EE926010EEA22E552E750EF6E5C
:10982000010EE76E020EDBCF14F0030EDBCF15F056
:10983000E7501426000E1522020E14C0DBFF030EA3
:1098400015C0DBFF020EDBCFE9FF030EDBCFEAFF23
:10985000070EE95E000EEA5A7D0EE926010EEA22A5
:10986000EFCF11F2020EDBCFE9FF030EDBCFEAFFF1
:10987000070EE95E000EEA5A7D0EE926010EEA2285
:10988000EF50E66E020EDBCFE9FF030EDBCFEAFFFF
:10989000000EE926010EEA22E552E750EF6E010EB6
:1098A000E76E020EDBCF14F0030EDBCF15F0E750AE
:1098B0001426000E1522020E14C0DBFF030E15C085
:1098C000DBFF020EDBCFE9FF030EDBCFEAFF070E63
:1098D000E95E000EEA5A7D0EE926010EEA22EFCF7C
:1098E00012F2020EDBCFE9FF030EDBCFEAFF070E19
:1098F000E95E000EEA5A7D0EE926010EEA22EF50DB
:10990000E66E020EDBCFE9FF030EDBCFEAFF000EAF
:10991000E926010EEA22E552E750EF6E010EE76EEE
:10992000020EDBCF14F0030EDBCF15F0E750142648
:10993000000E1522020E14C0DBFF030E15C0DBFF64
:10994000DE6ADD6ADE6ADD6ADECF14F0DDCF15F097
:10995000D890155004E60D0E145C000E15584FE219
:10996000020EDBCFE9FF030EDBCFEAFF070EE95E55
:10997000000EEA5A7D0EE926010EEA22EF50E66E4D
:10998000DECFE9FFDDCFEAFF130EE926020EEA2261
:10999000E552E750EF6E020EDBCFE9FF030EDBCF9F
:1099A000EAFF070EE95E000EEA5A7D0EE926010E77
:1099B000EA22EF50E66E020EDBCFE9FF030EDBCFAB
:1099C000EAFF000EE926010EEA22E552E750EF6EAB
:1099D000010EE76E020EDBCF14F0030EDBCF15F0A5
:1099E000E7501426000E1522020E14C0DBFF030EF2
:1099F00015C0DBFFDF2A010EA7E3DB2AA5D7DE6A4D
:109A0000DD6ADE6ADD6ADECF14F0DDCF15F0D890B6
:109A1000155004E6120E145C000E15584FE2020EAB
:109A2000DBCFE9FF030EDBCFEAFF070EE95E000E96
:109A3000EA5A7D0EE926010EEA22EF50E66EDECFED
:109A4000E9FFDDCFEAFF200EE926020EEA22E55209
:109A5000E750EF6E020EDBCFE9FF030EDBCFEAFF2C
:109A6000070EE95E000EEA5A7D0EE926010EEA2293
:109A7000EF50E66E020EDBCFE9FF030EDBCFEAFF0D
:109A8000000EE926010EEA22E552E750EF6E010EC4
:109A9000E76E020EDBCF14F0030EDBCF15F0E750BC
:109AA0001426000E1522020E14C0DBFF030E15C093
:109AB000DBFFDF2A010EA7E3DB2AA5D7020EDBCFEF
:109AC000E9FF030EDBCFEAFF070EE95E000EEA5A5C
:109AD0007D0EE926010EEA22EFCF34F2020EDBCF33
:109AE000E9FF030EDBCFEAFF070EE95E000EEA5A3C
:109AF0007D0EE926010EEA22EF50E66E020EDBCF64
:109B0000E9FF030EDBCFEAFF000EE926010EEA2291
:109B1000E552E750EF6E010EE76E020EDBCF14F058
:109B2000030EDBCF15F0E7501426000E1522020EAF
:109B300014C0DBFF030E15C0DBFF020EDBCFE9FF15
:109B4000030EDBCFEAFF070EE95E000EEA5A7D0E38
:109B5000E926010EEA22EFCF35F2020EDBCFE9FF54
:109B6000030EDBCFEAFF070EE95E000EEA5A7D0E18
:109B7000E926010EEA22EF50E66E020EDBCFE9FF86
:109B8000030EDBCFEAFF000EE926010EEA22E552C2
:109B9000E750EF6E010EE76E020EDBCF14F0030EFE
:109BA000DBCF15F0E7501426000E1522020E14C06C
:109BB000DBFF030E15C0DBFF020EDBCFE9FF030E58
:109BC000DBCFEAFF070EE95E000EEA5A7D0EE926BA
:109BD000010EEA22EFCF36F2020EDBCFE9FF030ED1
:109BE000DBCFEAFF070EE95E000EEA5A7D0EE9269A
:109BF000010EEA22EF50E66E020EDBCFE9FF030E04
:109C0000DBCFEAFF000EE926010EEA22E552E7501B
:109C1000EF6E010EE76E020EDBCF14F0030EDBCF0A
:109C200015F0E7501426000E1522020E14C0DBFFBB
:109C3000030E15C0DBFF020EDBCFE9FF030EDBCF07
:109C4000EAFF070EE95E000EEA5A7D0EE926010ED4
:109C5000EA22EFCF37F2020EDBCFE9FF030EDBCFB4
:109C6000EAFF070EE95E000EEA5A7D0EE926010EB4
:109C7000EA22EF50E66E020EDBCFE9FF030EDBCFE8
:109C8000EAFF000EE926010EEA22E552E750EF6EE8
:109C9000010EE76E020EDBCF14F0030EDBCF15F0E2
:109CA000E7501426000E1522020E14C0DBFF030E2F
:109CB00015C0DBFF020EDBCFE9FF030EDBCFEAFFAF
:109CC000070EE95E000EEA5A7D0EE926010EEA2231
:109CD000EFCF38F2020EDBCFE9FF030EDBCFEAFF56
:109CE000070EE95E000EEA5A7D0EE926010EEA2211
:109CF000EF50E66E020EDBCFE9FF030EDBCFEAFF8B
:109D0000000EE926010EEA22E552E750EF6E010E41
:109D1000E76E020EDBCF14F0030EDBCF15F0E75039
:109D20001426000E1522020E14C0DBFF030E15C010
:109D3000DBFF020EDBCFE9FF030EDBCFEAFF070EEE
:109D4000E95E000EEA5A7D0EE926010EEA22EFCF07
:109D500039F2020EDBCFE9FF030EDBCFEAFF070E7D
:109D6000E95E000EEA5A7D0EE926010EEA22EF5066
:109D7000E66E020EDBCFE9FF030EDBCFEAFF000E3B
:109D8000E926010EEA22E552E750EF6E010EE76E7A
:109D9000020EDBCF14F0030EDBCF15F0E7501426D4
:109DA000000E1522020E14C0DBFF030E15C0DBFFF0
:109DB000020EDBCFE9FF030EDBCFEAFF070EE95E01
:109DC000000EEA5A7D0EE926010EEA22EFCF3AF2A2
:109DD000020EDBCFE9FF030EDBCFEAFF070EE95EE1
:109DE000000EEA5A7D0EE926010EEA22EF50E66ED9
:109DF000020EDBCFE9FF030EDBCFEAFF000EE92600
:109E0000010EEA22E552E750EF6E010EE76E020EF8
:109E1000DBCF14F0030EDBCF15F0E7501426000E55
:109E20001522020E14C0DBFF030E15C0DBFF020E6D
:109E3000DBCFE9FF030EDBCFEAFF070EE95E000E82
:109E4000EA5A7D0EE926010EEA22EFCF3BF2020E1E
:109E5000DBCFE9FF030EDBCFEAFF070EE95E000E62
:109E6000EA5A7D0EE926010EEA22EF50E66E020E56
:109E7000DBCFE9FF030EDBCFEAFF000EE926010E80
:109E8000EA22E552E750EF6E010EE76E020EDBCFDD
:109E900014F0030EDBCF15F0E7501426000E152248
:109EA000020E14C0DBFF030E15C0DBFF020EDBCF7A
:109EB000E9FF030EDBCFEAFF070EE95E000EEA5A68
:109EC0007D0EE926010EEA22EFCF3CF2020EDBCF37
:109ED000E9FF030EDBCFEAFF070EE95E000EEA5A48
:109EE0007D0EE926010EEA22EF50E66E020EDBCF70
:109EF000E9FF030EDBCFEAFF000EE926010EEA229E
:109F0000E552E750EF6E010EE76E020EDBCF14F064
:109F1000030EDBCF15F0E7501426000E1522020EBB
:109F200014C0DBFF030E15C0DBFF020EDBCFE9FF21
:109F3000030EDBCFEAFF070EE95E000EEA5A7D0E44
:109F4000E926010EEA22EFCF3DF2020EDBCFE9FF58
:109F5000030EDBCFEAFF070EE95E000EEA5A7D0E24
:109F6000E926010EEA22EF50E66E020EDBCFE9FF92
:109F7000030EDBCFEAFF000EE926010EEA22E552CE
:109F8000E750EF6E010EE76E020EDBCF14F0030E0A
:109F9000DBCF15F0E7501426000E1522020E14C078
:109FA000DBFF030E15C0DBFF020EDBCFE9FF030E64
:109FB000DBCFEAFF070EE95E000EEA5A7D0EE926C6
:109FC000010EEA22EFCF3EF2020EDBCFE9FF030ED5
:109FD000DBCFEAFF070EE95E000EEA5A7D0EE926A6
:109FE000010EEA22EF50E66E020EDBCFE9FF030E10
:109FF000DBCFEAFF000EE926010EEA22E552E75028
:10A00000EF6E010EE76E020EDBCF14F0030EDBCF16
:10A0100015F0E7501426000E1522020E14C0DBFFC7
:10A02000030E15C0DBFF020EDBCFE9FF030EDBCF13
:10A03000EAFF070EE95E000EEA5A7D0EE926010EE0
:10A04000EA22EFCF3FF2020EDBCFE9FF030EDBCFB8
:10A05000EAFF070EE95E000EEA5A7D0EE926010EC0
:10A06000EA22EF50E66E020EDBCFE9FF030EDBCFF4
:10A07000EAFF000EE926010EEA22E552E750EF6EF4
:10A08000010EE76E020EDBCF14F0030EDBCF15F0EE
:10A09000E7501426000E1522020E14C0DBFF030E3B
:10A0A00015C0DBFF020EDBCFE9FF030EDBCFEAFFBB
:10A0B000070EE95E000EEA5A7D0EE926010EEA223D
:10A0C000EFCF40F2020EDBCFE9FF030EDBCFEAFF5A
:10A0D000070EE95E000EEA5A7D0EE926010EEA221D
:10A0E000EF50E66E020EDBCFE9FF030EDBCFEAFF97
:10A0F000000EE926010EEA22E552E750EF6E010E4E
:10A10000E76E020EDBCF14F0030EDBCF15F0E75045
:10A110001426000E1522020E14C0DBFF030E15C01C
:10A12000DBFF020EDBCFE9FF030EDBCFEAFF070EFA
:10A13000E95E000EEA5A7D0EE926010EEA22EFCF13
:10A1400041F2020EDBCFE9FF030EDBCFEAFF070E81
:10A15000E95E000EEA5A7D0EE926010EEA22EF5072
:10A16000E66E020EDBCFE9FF030EDBCFEAFF000E47
:10A17000E926010EEA22E552E750EF6E010EE76E86
:10A18000020EDBCF14F0030EDBCF15F0E7501426E0
:10A19000000E1522020E14C0DBFF030E15C0DBFFFC
:10A1A000020EDBCFE9FF030EDBCFEAFF070EE95E0D
:10A1B000000EEA5A7D0EE926010EEA22EFCF42F2A6
:10A1C000020EDBCFE9FF030EDBCFEAFF070EE95EED
:10A1D000000EEA5A7D0EE926010EEA22EF50E66EE5
:10A1E000020EDBCFE9FF030EDBCFEAFF000EE9260C
:10A1F000010EEA22E552E750EF6E010EE76E020E05
:10A20000DBCF14F0030EDBCF15F0E7501426000E61
:10A210001522020E14C0DBFF030E15C0DBFF020E79
:10A22000DBCFE9FF030EDBCFEAFF070EE95E000E8E
:10A23000EA5A7D0EE926010EEA22EFCF43F2020E22
:10A24000DBCFE9FF030EDBCFEAFF070EE95E000E6E
:10A25000EA5A7D0EE926010EEA22EF50E66E020E62
:10A26000DBCFE9FF030EDBCFEAFF000EE926010E8C
:10A27000EA22E552E750EF6E010EE76E020EDBCFE9
:10A2800014F0030EDBCF15F0E7501426000E152254
:10A29000020E14C0DBFF030E15C0DBFF020EDBCF86
:10A2A000E9FF030EDBCFEAFF070EE95E000EEA5A74
:10A2B0007D0EE926010EEA22EFCF44F2020EDBCF3B
:10A2C000E9FF030EDBCFEAFF070EE95E000EEA5A54
:10A2D0007D0EE926010EEA22EF50E66E020EDBCF7C
:10A2E000E9FF030EDBCFEAFF000EE926010EEA22AA
:10A2F000E552E750EF6E010EE76E020EDBCF14F071
:10A30000030EDBCF15F0E7501426000E1522020EC7
:10A3100014C0DBFF030E15C0DBFF020EDBCFE9FF2D
:10A32000030EDBCFEAFF070EE95E000EEA5A7D0E50
:10A33000E926010EEA22EFCF45F2020EDBCFE9FF5C
:10A34000030EDBCFEAFF070EE95E000EEA5A7D0E30
:10A35000E926010EEA22EF50E66E020EDBCFE9FF9E
:10A36000030EDBCFEAFF000EE926010EEA22E552DA
:10A37000E750EF6E010EE76E020EDBCF14F0030E16
:10A38000DBCF15F0E7501426000E1522020E14C084
:10A39000DBFF030E15C0DBFF020EDBCFE9FF030E70
:10A3A000DBCFEAFF070EE95E000EEA5A7D0EE926D2
:10A3B000010EEA22EFCF46F2020EDBCFE9FF030ED9
:10A3C000DBCFEAFF070EE95E000EEA5A7D0EE926B2
:10A3D000010EEA22EF50E66E020EDBCFE9FF030E1C
:10A3E000DBCFEAFF000EE926010EEA22E552E75034
:10A3F000EF6E010EE76E020EDBCF14F0030EDBCF23
:10A4000015F0E7501426000E1522020E14C0DBFFD3
:10A41000030E15C0DBFF020EDBCFE9FF030EDBCF1F
:10A42000EAFF070EE95E000EEA5A7D0EE926010EEC
:10A43000EA22EFCF47F2020EDBCFE9FF030EDBCFBC
:10A44000EAFF070EE95E000EEA5A7D0EE926010ECC
:10A45000EA22EF50E66E020EDBCFE9FF030EDBCF00
:10A46000EAFF000EE926010EEA22E552E750EF6E00
:10A47000010EE76E020EDBCF14F0030EDBCF15F0FA
:10A48000E7501426000E1522020E14C0DBFF030E47
:10A4900015C0DBFF020EDBCFE9FF030EDBCFEAFFC7
:10A4A000070EE95E000EEA5A7D0EE926010EEA2249
:10A4B000EFCF48F2020EDBCFE9FF030EDBCFEAFF5E
:10A4C000070EE95E000EEA5A7D0EE926010EEA2229
:10A4D000EF50E66E020EDBCFE9FF030EDBCFEAFFA3
:10A4E000000EE926010EEA22E552E750EF6E010E5A
:10A4F000E76E020EDBCF14F0030EDBCF15F0E75052
:10A500001426000E1522020E14C0DBFF030E15C028
:10A51000DBFF020EDBCFE9FF030EDBCFEAFF070E06
:10A52000E95E000EEA5A7D0EE926010EEA22EFCF1F
:10A5300049F2020EDBCFE9FF030EDBCFEAFF070E85
:10A54000E95E000EEA5A7D0EE926010EEA22EF507E
:10A55000E66E020EDBCFE9FF030EDBCFEAFF000E53
:10A56000E926010EEA22E552E750EF6E010EE76E92
:10A57000020EDBCF14F0030EDBCF15F0E7501426EC
:10A58000000E1522020E14C0DBFF030E15C0DBFF08
:10A59000020EDBCFE9FF030EDBCFEAFF070EE95E19
:10A5A000000EEA5A7D0EE926010EEA22EFCF4AF2AA
:10A5B000020EDBCFE9FF030EDBCFEAFF070EE95EF9
:10A5C000000EEA5A7D0EE926010EEA22EF50E66EF1
:10A5D000020EDBCFE9FF030EDBCFEAFF000EE92618
:10A5E000010EEA22E552E750EF6E010EE76E020E11
:10A5F000DBCF14F0030EDBCF15F0E7501426000E6E
:10A600001522020E14C0DBFF030E15C0DBFF020E85
:10A61000DBCFE9FF030EDBCFEAFF070EE95E000E9A
:10A62000EA5A7D0EE926010EEA22EFCF4BF2020E26
:10A63000DBCFE9FF030EDBCFEAFF070EE95E000E7A
:10A64000EA5A7D0EE926010EEA22EF50E66E020E6E
:10A65000DBCFE9FF030EDBCFEAFF000EE926010E98
:10A66000EA22E552E750EF6E010EE76E020EDBCFF5
:10A6700014F0030EDBCF15F0E7501426000E152260
:10A68000020E14C0DBFF030E15C0DBFF020EDBCF92
:10A69000E9FF030EDBCFEAFF070EE95E000EEA5A80
:10A6A0007D0EE926010EEA22EFCF4CF2020EDBCF3F
:10A6B000E9FF030EDBCFEAFF070EE95E000EEA5A60
:10A6C0007D0EE926010EEA22EF50E66E020EDBCF88
:10A6D000E9FF030EDBCFEAFF000EE926010EEA22B6
:10A6E000E552E750EF6E010EE76E020EDBCF14F07D
:10A6F000030EDBCF15F0E7501426000E1522020ED4
:10A7000014C0DBFF030E15C0DBFF020EDBCFE9FF39
:10A71000030EDBCFEAFF070EE95E000EEA5A7D0E5C
:10A72000E926010EEA22EFCF4DF2020EDBCFE9FF60
:10A73000030EDBCFEAFF070EE95E000EEA5A7D0E3C
:10A74000E926010EEA22EF50E66E020EDBCFE9FFAA
:10A75000030EDBCFEAFF000EE926010EEA22E552E6
:10A76000E750EF6E010EE76E020EDBCF14F0030E22
:10A77000DBCF15F0E7501426000E1522020E14C090
:10A78000DBFF030E15C0DBFF020EDBCFE9FF030E7C
:10A79000DBCFEAFF070EE95E000EEA5A7D0EE926DE
:10A7A000010EEA22EFCF4EF2020EDBCFE9FF030EDD
:10A7B000DBCFEAFF070EE95E000EEA5A7D0EE926BE
:10A7C000010EEA22EF50E66E020EDBCFE9FF030E28
:10A7D000DBCFEAFF000EE926010EEA22E552E75040
:10A7E000EF6E010EE76E020EDBCF14F0030EDBCF2F
:10A7F00015F0E7501426000E1522020E14C0DBFFE0
:10A80000030E15C0DBFF020EDBCFE9FF030EDBCF2B
:10A81000EAFF070EE95E000EEA5A7D0EE926010EF8
:10A82000EA22EFCF4FF2020EDBCFE9FF030EDBCFC0
:10A83000EAFF070EE95E000EEA5A7D0EE926010ED8
:10A84000EA22EF50E66E020EDBCFE9FF030EDBCF0C
:10A85000EAFF000EE926010EEA22E552E750EF6E0C
:10A86000010EE76E020EDBCF14F0030EDBCF15F006
:10A87000E7501426000E1522020E14C0DBFF030E53
:10A8800015C0DBFF020EDBCFE9FF030EDBCFEAFFD3
:10A89000070EE95E000EEA5A7D0EE926010EEA2255
:10A8A000EFCF50F2020EDBCFE9FF030EDBCFEAFF62
:10A8B000070EE95E000EEA5A7D0EE926010EEA2235
:10A8C000EF50E66E020EDBCFE9FF030EDBCFEAFFAF
:10A8D000000EE926010EEA22E552E750EF6E010E66
:10A8E000E76E020EDBCF14F0030EDBCF15F0E7505E
:10A8F0001426000E1522020E14C0DBFF030E15C035
:10A90000DBFF020EDBCFE9FF030EDBCFEAFF070E12
:10A91000E95E000EEA5A7D0EE926010EEA22EFCF2B
:10A9200051F2020EDBCFE9FF030EDBCFEAFF070E89
:10A93000E95E000EEA5A7D0EE926010EEA22EF508A
:10A94000E66E020EDBCFE9FF030EDBCFEAFF000E5F
:10A95000E926010EEA22E552E750EF6E010EE76E9E
:10A96000020EDBCF14F0030EDBCF15F0E7501426F8
:10A97000000E1522020E14C0DBFF030E15C0DBFF14
:10A98000020EDBCFE9FF030EDBCFEAFF070EE95E25
:10A99000000EEA5A7D0EE926010EEA22EFCF52F2AE
:10A9A000020EDBCFE9FF030EDBCFEAFF070EE95E05
:10A9B000000EEA5A7D0EE926010EEA22EF50E66EFD
:10A9C000020EDBCFE9FF030EDBCFEAFF000EE92624
:10A9D000010EEA22E552E750EF6E010EE76E020E1D
:10A9E000DBCF14F0030EDBCF15F0E7501426000E7A
:10A9F0001522020E14C0DBFF030E15C0DBFF020E92
:10AA0000DBCFE9FF030EDBCFEAFF070EE95E000EA6
:10AA1000EA5A7D0EE926010EEA22EFCF53F2020E2A
:10AA2000DBCFE9FF030EDBCFEAFF070EE95E000E86
:10AA3000EA5A7D0EE926010EEA22EF50E66E020E7A
:10AA4000DBCFE9FF030EDBCFEAFF000EE926010EA4
:10AA5000EA22E552E750EF6E010EE76E020EDBCF01
:10AA600014F0030EDBCF15F0E7501426000E15226C
:10AA7000020E14C0DBFF030E15C0DBFF020EDBCF9E
:10AA8000E9FF030EDBCFEAFF070EE95E000EEA5A8C
:10AA90007D0EE926010EEA22EFCF54F2020EDBCF43
:10AAA000E9FF030EDBCFEAFF070EE95E000EEA5A6C
:10AAB0007D0EE926010EEA22EF50E66E020EDBCF94
:10AAC000E9FF030EDBCFEAFF000EE926010EEA22C2
:10AAD000E552E750EF6E010EE76E020EDBCF14F089
:10AAE000030EDBCF15F0E7501426000E1522020EE0
:10AAF00014C0DBFF030E15C0DBFF020EDBCFE9FF46
:10AB0000030EDBCFEAFF070EE95E000EEA5A7D0E68
:10AB1000E926010EEA22EFCF55F2020EDBCFE9FF64
:10AB2000030EDBCFEAFF070EE95E000EEA5A7D0E48
:10AB3000E926010EEA22EF50E66E020EDBCFE9FFB6
:10AB4000030EDBCFEAFF000EE926010EEA22E552F2
:10AB5000E750EF6E010EE76E020EDBCF14F0030E2E
:10AB6000DBCF15F0E7501426000E1522020E14C09C
:10AB7000DBFF030E15C0DBFF020EDBCFE9FF030E88
:10AB8000DBCFEAFF070EE95E000EEA5A7D0EE926EA
:10AB9000010EEA22EFCF56F2020EDBCFE9FF030EE1
:10ABA000DBCFEAFF070EE95E000EEA5A7D0EE926CA
:10ABB000010EEA22EF50E66E020EDBCFE9FF030E34
:10ABC000DBCFEAFF000EE926010EEA22E552E7504C
:10ABD000EF6E010EE76E020EDBCF14F0030EDBCF3B
:10ABE00015F0E7501426000E1522020E14C0DBFFEC
:10ABF000030E15C0DBFF020EDBCFE3F2030EDBCF4B
:10AC0000E4F20A0EE15C02E2E16AE552E16EE5522D
:10AC1000E7CFD9FF12000201320E646F656F666FD5
:10AC2000676F686F000EE325E96E010EE421EA6E9E
:10AC300064C2EFFF010EEA6AE325E96EE451EA22FD
:10AC4000000EE926010EEA2265C2EFFF020EEA6A53
:10AC5000E325E96EE451EA22000EE926010EEA221C
:10AC600066C2EFFF030EEA6AE325E96EE451EA22C9
:10AC7000000EE926010EEA2267C2EFFF040EEA6A1F
:10AC8000E325E96EE451EA22000EE926010EEA22EC
:10AC900068C2EFFF050EEA6AE325E96EE451EA2295
:10ACA000000EE926010EEA222A0EEF6E12007D0E3A
:10ACB0000201E325E96E010EE421EA6EEFCF64F2B2
:10ACC000010EEA6AE325E96EE451EA227D0EE926E7
:10ACD000010EEA22EFCF65F2020EEA6AE325E96E81
:10ACE000E451EA227D0EE926010EEA22EFCF66F258
:10ACF000030EEA6AE325E96EE451EA227D0EE926B5
:10AD0000010EEA22EFCF67F2040EEA6AE325E96E4C
:10AD1000E451EA227D0EE926010EEA22EFCF68F225
:10AD20001200D9CFE6FFE1CFD9FF020EE126DE6A9D
:10AD3000DD6ADECF14F0DDCF15F0D890155004E6B3
:10AD40007D0E145C000E15580FE2DECFE9FFDDCF5B
:10AD5000EAFF000EE926010EEA22780EEF6EDF2AE6
:10AD6000010EE7E3DB2AE5D7020EE15C02E2E16ACD
:10AD7000E552E16EE552E7CFD9FF1200D9CFE6FFE9
:10AD8000E1CFD9FF060EE126DE6ADD6A030EE76E2B
:10AD9000FD0EDBCFE9FFFE0EDBCFEAFFE750E92631
:10ADA000000EEA22EF50E66ED950020FE96EDACFBC
:10ADB000EAFFE552E750EE6EED6A020EDBCF14F0CB
:10ADC000030EDBCF15F0300E145E000E155A020E86
:10ADD00014C0DBFF030E15C0DBFFD950020FE96E74
:10ADE000DACFEAFF090ED880EE54000EED5401E2EE
:10ADF0008BD0020EDBCF16F0030EDBCF17F0DE5048
:10AE00001624146EDD501720156E14C0DEFFDD6EA3
:10AE1000020EE76EFD0EDBCFE9FFFE0EDBCFEAFF91
:10AE2000E750E926000EEA22EF50E66ED950020FF5
:10AE3000E96EDACFEAFFE552E750EE6EED6A020EF8
:10AE4000DBCF14F0030EDBCF15F0300E145E000ED6
:10AE5000155A020E14C0DBFF030E15C0DBFFD950DC
:10AE6000020FE96EDACFEAFF090ED880EE54000E29
:10AE7000ED544AE3DECF16F0DDCF17F00A0E086E70
:10AE8000096A020EDBCF0DF0030EDBCF0EF0BEEC35
:10AE90009FF016500624146E17500720156E14C02C
:10AEA000DEFFDD6E010EE76EFD0EDBCFE9FFFE0E6D
:10AEB000DBCFEAFFE750E926000EEA22EF50E66E0C
:10AEC000D950020FE96EDACFEAFFE552E750EE6E95
:10AED000ED6A020EDBCF14F0030EDBCF15F0300E5F
:10AEE000145E000E155A020E14C0DBFF030E15C0CF
:10AEF000DBFFD950020FE96EDACFEAFF090ED880E6
:10AF0000EE54000EED5403E2DE6ADD6A01D1DECFBD
:10AF100016F0DDCF17F0640E086E096A020EDBCF63
:10AF20000DF0030EDBCF0EF0BEEC9FF016500624A2
:10AF3000146E17500720156E14C0DEFFDD6E800EF4
:10AF4000086E080E096EDECF0DF0DDCF0EF0BEEC00
:10AF50009FF0040E06C0DBFF050E07C0DBFFD9CF54
:10AF6000E9FFDACFEAFF1D0ED880EE54000EED5453
:10AF700018E2DECF14F0DDCF15F01E0E145E000EC9
:10AF8000155A800E086E080E096E14C00DF015C01B
:10AF90000EF0BEEC9FF0040E06C0DBFF050E07C0EE
:10AFA000DBFFD9CFE9FFDACFEAFF3B0ED880EE54C2
:10AFB000000EED5418E2DECF14F0DDCF15F03C0E9C
:10AFC000145E000E155A800E086E080E096E14C02D
:10AFD0000DF015C00EF0BEEC9FF0040E06C0DBFFB6
:10AFE000050E07C0DBFFD9CFE9FFDACFEAFF590E24
:10AFF000D880EE54000EED5418E2DECF14F0DDCF11
:10B0000015F05A0E145E000E155A800E086E080ECA
:10B01000096E14C00DF015C00EF0BEEC9FF0040ECA
:10B0200006C0DBFF050E07C0DBFFDE6ADD6A050E2A
:10B03000E76EFD0EDBCFE9FFFE0EDBCFEAFFE75048
:10B04000E926000EEA22EF50D00FE66ED950020F2B
:10B05000E96EDACFEAFFE552E750EE6EED6A020ED6
:10B06000DBCFDEFFDBCFDDFF040EE76EFD0EDBCFB7
:10B07000E9FFFE0EDBCFEAFFE750E926000EEA22E9
:10B08000EF50D00FE66ED950020FE96EDACFEAFF2B
:10B09000E552E750EE6EED6ADECF16F0DDCF17F029
:10B0A0000A0E086E096A020EDBCF0DF0030EDBCF2D
:10B0B0000EF0BEEC9FF016500624146E17500720B9
:10B0C000156E14C0DEFFDD6ED9CFE9FFDACFEAFFDF
:10B0D000020EEECFDBFF030EEDCFDBFF040EDBCF66
:10B0E00016F0050EDBCF17F0800E086E096A020E0F
:10B0F000DBCF0DF0030EDBCF0EF0BEEC9FF0165051
:10B100000624146E17500720156E14C0DEFFDD6E86
:10B110000A0EE66E23DAE552DECF14F0DDCF15F02D
:10B1200014C0F3FF15C0F4FF060EE15C02E2E16A11
:10B13000E552E16EE552E7CFD9FF1200D9CFE6FF25
:10B14000E1CFD9FF050EE126020EDB6A030EDB6AB2
:10B15000E76EFD0EDBCFE9FFFE0EDBCFEAFFE75027
:10B16000E926000EEA22EF50D00FDE6EDD6AD9CF5D
:10B17000E9FFDACFEAFF090ED880EE54000EED5455
:10B1800061E3020EDBCF16F0030EDBCF17F0DE50CB
:10B190001624146EDD501720156E020E14C0DBFF4E
:10B1A000030E15C0DBFF020EE76EFD0EDBCFE9FFDD
:10B1B000FE0EDBCFEAFFE750E926000EEA22EF5051
:10B1C000D00FDE6EDD6AD9CFE9FFDACFEAFF090ED4
:10B1D000D880EE54000EED5435E3020EDBCF16F0AE
:10B1E000030EDBCF17F00A0E086E096ADECF0DF0F2
:10B1F000DDCF0EF0BEEC9FF016500624146E1750F3
:10B200000720156E020E14C0DBFF030E15C0DBFF16
:10B21000010EE76EFD0EDBCFE9FFFE0EDBCFEAFF8E
:10B22000E750E926000EEA22EF50D00FDE6EDD6A0D
:10B23000D9CFE9FFDACFEAFF090ED880EE54000E2D
:10B24000ED5403E2040EDB6A4DD0020EDBCF16F0A4
:10B25000030EDBCF17F0640E086E096ADECF0DF027
:10B26000DDCF0EF0BEEC9FF016500624146E175082
:10B270000720156E020E14C0DBFF030E15C0DBFFA6
:10B28000040EDB6AD950020FE96EDACFEAFF1D0E19
:10B29000D880EE54000EED5405E2010EF36E040E5C
:10B2A000F3CFDBFFD950020FE96EDACFEAFF3B0E96
:10B2B000D880EE54000EED5405E2020EF36E040E3B
:10B2C000F3CFDBFFD950020FE96EDACFEAFF590E58
:10B2D000D880EE54000EED5405E2030EF36E040E1A
:10B2E000F3CFDBFF0A0EE66E39D9E552040EDB50D0
:10B2F000146E050EE15C02E2E16AE552E16E145063
:10B30000E552E7CFD9FF1200D9CFE6FFE1CFD9FF51
:10B31000060EE126FE0EDB50060805E10C0EF36E6C
:10B32000FE0EF3CFDBFFFE0EDB50050805E10A0E33
:10B33000F36EFE0EF3CFDBFFFE0EDB50040805E1DB
:10B34000080EF36EFE0EF3CFDBFFFE0EDB5003089C
:10B3500005E1060EF36EFE0EF3CFDBFFFE0EDB50B3
:10B36000020805E1040EF36EFE0EF3CFDBFFFE0EC6
:10B37000DB0405E1020EF36EFE0EF3CFDBFFFC0EE5
:10B38000DB50E76E050EE7CFDBFFFC0EFD0EDBCFDB
:10B3900015F015C014F0156A040E14C0DBFFFE0E84
:10B3A000DB50E76E020EE7CFDBFFDB50A009E76E54
:10B3B000020EE7CFDBFFC750040B01E0010E146E55
:10B3C0001F0EC5141410F7E1C580C5B0FED7C5B077
:10B3D000FED7020EDBCFE6FFE7ECA0F0E552C75048
:10B3E000040B01E0010E146E1F0EC5141410F7E1DA
:10B3F000040EDBCFE6FFE7ECA0F0E552C750040BEC
:10B4000001E0010E146E1F0EC5141410F7E1C5B251
:10B41000FED7050EDBCFE6FFE7ECA0F0E552C75004
:10B42000040B01E0010E146E1F0EC5141410F7E199
:10B43000C582C5B2FED7C5B2FED7020EDB500109E8
:10B44000E76E020EE7CFDBFFDBCFE6FFE7ECA0F015
:10B45000E552C750040B01E0010E146E1F0EC51417
:10B460001410F7E1F90EDB040DE1560EE66EFA0E4C
:10B47000DBCFE6FFFB0EDBCFE6FF27ECA1F0E552CA
:10B48000E552E552F90EDB500DE16C0EE66EFA0E58
:10B49000DBCFE6FFFB0EDBCFE6FF27ECA1F0E552AA
:10B4A000E552E552F90EDB5003080DE1740EE66E2D
:10B4B000FA0EDBCFE6FFFB0EDBCFE6FF27ECA1F0B9
:10B4C000E552E552E552F90EDB5004080DE1180E85
:10B4D000E66EFA0EDBCFE6FFFB0EDBCFE6FF27ECD6
:10B4E000A1F0E552E552E552F90EDB5005080DE1F9
:10B4F000780EE66EFA0EDBCFE6FFFB0EDBCFE6FF43
:10B5000027ECA1F0E552E552E552F90EDB500608B2
:10B510000DE1640EE66EFA0EDBCFE6FFFB0EDBCF2D
:10B52000E6FF27ECA1F0E552E552E552C58AC58851
:10B53000C5B8FED7C5B8FED7C584C5B4FED7C5B457
:10B54000FED7010E146E060EE15C02E2E16AE552DE
:10B55000E16E1450E552E7CFD9FF1200D9CFE6FFD4
:10B56000E1CFD9FF030EE126DF6ADFCF14F0FE0E34
:10B57000DB50E76E1418E8AE02D0E73402D0E75093
:10B58000145C24E2010EDB6ADBCF14F00A0EE76ED6
:10B590001418E8AE02D0E73402D0E750145C14E28D
:10B5A000020EDB6ADBCF14F0280EE76E1418E8AE4B
:10B5B00002D0E73402D0E750145C03E2020EDB2A2B
:10B5C000F1D7010EDB2AE0D7DF2ACFD7030EE15CEB
:10B5D00002E2E16AE552E16EE552E7CFD9FF1200DF
:10B5E00094869488C76A280EC66EC56A3B0EC86EDC
:10B5F0001200D9CFE6FFE1CFD9FF070EE126FE0EFC
:10B60000DB50060805E10C0EF36EFE0EF3CFDBFFF8
:10B61000FE0EDB50050805E10A0EF36EFE0EF3CFB9
:10B62000DBFFFE0EDB50040805E1080EF36EFE0E94
:10B63000F3CFDBFFFE0EDB50030805E1060EF36ED1
:10B64000FE0EF3CFDBFFFE0EDB50020805E1040E19
:10B65000F36EFE0EF3CFDBFFFE0EDB0405E1020E00
:10B66000F36EFE0EF3CFDBFFFE0EDB50DF6EA00E9F
:10B67000DF10DF6EFC0EDB50E76E060EE7CFDBFF60
:10B68000FC0EFD0EDBCF15F015C014F0156A050E8B
:10B6900014C0DBFFF90EDB040EE1550EE76EFA0E67
:10B6A000DBCFE9FFFB0EDBCFEAFFE750E926000E18
:10B6B000EA222A0EEF6EF90EDB5003080EE1730E3C
:10B6C000E76EFA0EDBCFE9FFFB0EDBCFEAFFE750B8
:10B6D000E926000EEA222A0EEF6EF90EDB5004086E
:10B6E0000EE1170EE76EFA0EDBCFE9FFFB0EDBCFA4
:10B6F000EAFFE750E926000EEA222A0EEF6EF90E65
:10B70000DB5005080EE1770EE76EFA0EDBCFE9FF9E
:10B71000FB0EDBCFEAFFE750E926000EEA222A0EF5
:10B72000EF6EF90EDB5006080EE1630EE76EFA0EBF
:10B73000DBCFE9FFFB0EDBCFEAFFE750E926000E87
:10B74000EA222A0EEF6EC750040B01E0010E146EC0
:10B750001F0EC5141410F7E1C580C5B0FED7C5B0E3
:10B76000FED7DFCFE6FFE7ECA0F0E552C750040BB1
:10B7700001E0010E146E1F0EC5141410F7E1050E42
:10B78000DBCFE6FFE7ECA0F0E552C750040B01E089
:10B79000010E146E1F0EC5141410F7E1060EDBCF58
:10B7A000E6FFE7ECA0F0E552C750040B01E0010E04
:10B7B000146E1F0EC5141410F7E1FA0EDBCFE6FF6E
:10B7C000FB0EDBCFE6FFDCEC70F0E552E552C75034
:10B7D000040B01E0010E146E1F0EC5141410F7E1E6
:10B7E000C584C5B4FED7C5B4FED7000E146E070ECF
:10B7F000E15C02E2E16AE552E16E1450E552E7CF06
:10B80000D9FF1200D9CFE6FFE1CFD9FF030EE12621
:10B81000010EDB6A020EDB6A839083968384640EDA
:10B82000E66E9CDEE552838083868394DF6ADFCFF9
:10B8300014F0070EE76E1418E8AE02D0E73402D019
:10B84000E750145C2AE2010EDBCFE6FF8150020BC9
:10B8500001E0010EE552E710E76E010EE7CFDBFFD6
:10B86000020EDBCFE6FF8150040B01E0010EE55232
:10B87000E710E76E020EE7CFDBFF83968386010EAB
:10B88000DB50020D010EF3CFDBFF020EDB50020D89
:10B89000020EF3CFDBFFDF2ACAD7010EDBCFE6FFB4
:10B8A0008150020B01E0010EE552E710E76E010E38
:10B8B000E7CFDBFF020EDBCFE6FF8150040B01E098
:10B8C000010EE552E710E76E020EE7CFDBFF839033
:10B8D00083968384010EDBCFEAF2020EDBCFE9F21E
:10B8E000030EE15C02E2E16AE552E16EE552E7CF68
:10B8F000D9FF1200D9CFE6FFE1CFD9FF020EE12632
:10B9000081DF640EE66E2ADEE5520F01426B010E06
:10B91000DF6E100E0201EA15DF6E040EEA15DF6E0F
:10B92000EA5106E1E95104E1640EE66E17DEE552E4
:10B93000FE0EDB50460817E0FE0EDB0404E10201B8
:10B94000020EE96FEA6BFE0EDB50070804E102010C
:10B95000E96B040EEA6FFE0EDB50060804E10201FB
:10B96000E96B020EEA6FFD0EDB50460803E0FD0EA8
:10B97000DBCF81F2020E0201EA15020801E04CD190
:10B98000DD0E815D02E1D10E816FE10E815D01E18D
:10B99000816BEE0E815D02E1E10E816FF10E815D42
:10B9A00002E1E10E816F220E815D01E1816BCC0E1F
:10B9B000815D01E1816B770E815D01E1816B8151D8
:10B9C00001E02AD1FF0E0F011F5D02E13DEC9DF069
:10B9D0000F01436B020EE66E75EC7EF0E55202013C
:10B9E000010E816F300E6C6F6D6FDE52020EDD6ED8
:10B9F000010EDBCF14F0140EE76E1418E8AE02D07F
:10BA0000E73402D0E750145C0FE2010EDBCFE9FF10
:10BA1000EA6AE9BEEA686C0EE926020EEA22780EAE
:10BA2000EF6E010EDB2AE4D76C0EE66E020EE66EB8
:10BA30002E0EE66E010EE66E060EE66EA6EC0CF01D
:10BA4000146E050EE15E1450090EE66E2BEC0CF040
:10BA5000E552230E01017D5D07E1410E7E5D04E1AB
:10BA6000550E7F5D01E177D00201E2690F01010E01
:10BA7000426F02014D0E6C6F6D6FDE52020EDD6E75
:10BA8000010EDBCF14F0140EE76E1418E8AE02D0EE
:10BA9000E73402D0E750145C1DE2010EDB50FE0FCC
:10BAA000E96EEA6AE9BEEA687D0EE926010EEA223D
:10BAB000EF50E66E010EDBCFE9FFEA6AE9BEEA6805
:10BAC0006C0EE926020EEA22E552E750EF6E010EF7
:10BAD000DB2AD6D76C0EE66E020EE66E2E0EE66EF2
:10BAE000010EE66E060EE66EA6EC0CF0146E050E68
:10BAF000E15E14500201300E6C6F6D6FDE52020E6B
:10BB0000DD6E010EDBCF14F0140EE76E1418E8AEF4
:10BB100002D0E73402D0E750145C0FE2010EDBCF15
:10BB2000E9FFEA6AE9BEEA686C0EE926020EEA223B
:10BB3000780EEF6E010EDB2AE4D70F01426B432B28
:10BB4000030EE76E4319E8AE02D0E73402D0E750A7
:10BB5000435D01E279D7FF0E0201E25D15E16C0E53
:10BB6000E66E020EE66E2E0EE66E010EE66E060E16
:10BB7000E66EA6EC0CF0146E050EE15E1450050E98
:10BB8000E66E2BEC0CF0E552FF0E0201E25D15E1D2
:10BB90006C0EE66E020EE66E2E0EE66E010EE66E80
:10BBA000060EE66EA6EC0CF0146E050EE15E145067
:10BBB000050EE66E2BEC0CF0E552FF0E0201E25D85
:10BBC00015E16C0EE66E020EE66E2E0EE66E010EAE
:10BBD000E66E060EE66EA6EC0CF0146E050EE15E47
:10BBE0001450050EE66E2BEC0CF0E552FF0E020130
:10BBF000E25D08E07D0EE66E010EE66E22EC1BF0C3
:10BC0000E55203D0640EE66EA9DCE5520201010E96
:10BC1000816FE85001E0816B020EE915020817E11F
:10BC2000815111E1090EE66E2BEC0CF0E552FF0E8E
:10BC30000201E25D08E07D0EE66E010EE66E22EC8A
:10BC40001BF0E552E552640EE66E88DCE552040E08
:10BC50000201EA15040801E082D00F01010E246FF1
:10BC6000260510E18750100B0DE1640EE66E76DCC0
:10BC7000E55281882C0EE66E71DCE55281980F0149
:10BC80001F6B6DD0DD0E0201815D02E1D20E816F6E
:10BC9000EE0E815D02E1E20E816F770E815D01E1C2
:10BCA000816B220E815D01E1816BCC0E815D01E132
:10BCB000816B81514FE1020E816FE66E75EC7EF073
:10BCC000E5520201300E6C6F6D6FDE52020EDD6EBA
:10BCD000010EDBCF14F0140EE76E1418E8AE02D09C
:10BCE000E73402D0E750145C0FE2010EDBCFE9FF2E
:10BCF000EA6AE9BEEA686C0EE926020EEA22780ECC
:10BD0000EF6E010EDB2AE4D76C0EE66E020EE66ED5
:10BD10002E0EE66E010EE66E070EE66EA6EC0CF039
:10BD2000146E050EE15E1450090EE66E2BEC0CF05D
:10BD3000E552FF0E0201E25D08E07D0EE66E010EA7
:10BD4000E66E22EC1BF0E552E552020E0201815D27
:10BD500001E1816B640EE66EAEEC5AF0E552010E25
:10BD60000201E915DF6E800EEA15DF6E400EEA155E
:10BD7000DF6E200EEA15DF6E010EEA15DF6E020E91
:10BD8000E15C02E2E16AE552E16EE552E7CFD9FFFC
:10BD90001200D9CFE6FFE1CFD9FFFD0EDBCFE9FFDF
:10BDA000FE0EDBCFEAFFEF50520816E1010EE76E00
:10BDB000FD0EDBCFE9FFFE0EDBCFEAFFE750E92601
:10BDC000000EEA22EF50310807E18596320EE66E4A
:10BDD000AEEC5AF0E5528586FD0EDBCFE9FFFE0E94
:10BDE000DBCFEAFFEF50520816E1010EE76EFD0EC1
:10BDF000DBCFE9FFFE0EDBCFEAFFE750E926000EBE
:10BE0000EA22EF50320807E18598320EE66EAEEC7A
:10BE10005AF0E5528588FD0EDBCFE9FFFE0EDBCF41
:10BE2000EAFFEF50520816E1010EE76EFD0EDBCF80
:10BE3000E9FFFE0EDBCFEAFFE750E926000EEA221B
:10BE4000EF50330807E1859A320EE66EAEEC5AF0F9
:10BE5000E552858AFD0EDBCFE9FFFE0EDBCFEAFF60
:10BE6000EF50520816E1010EE76EFD0EDBCFE9FF41
:10BE7000FE0EDBCFEAFFE750E926000EEA22EF5084
:10BE8000340807E1859C320EE66EAEEC5AF0E552BE
:10BE9000858CFD0EDBCFE9FFFE0EDBCFEAFFEF5016
:10BEA000520816E1010EE76EFD0EDBCFE9FFFE0E34
:10BEB000DBCFEAFFE750E926000EEA22EF50350813
:10BEC00007E1859E320EE66EAEEC5AF0E552858EA5
:10BED000C80EE66EAEEC5AF0E552C80EE66EAEEC59
:10BEE0005AF0E552C80EE66EAEEC5AF0E552E55255
:10BEF000E7CFD9FF1200D9CFE6FFE1CFD9FFFD0E82
:10BF0000DBCFE9FFFE0EDBCFEAFFEF50520810E176
:10BF1000010EE76EFD0EDBCFE9FFFE0EDBCFEAFF81
:10BF2000E750E926000EEA22EF50310801E185963C
:10BF30000A0EE66EAEEC5AF0E552FD0EDBCFE9FFDD
:10BF4000FE0EDBCFEAFFEF50520810E1010EE76E64
:10BF5000FD0EDBCFE9FFFE0EDBCFEAFFE750E9265F
:10BF6000000EEA22EF50320801E185980A0EE66ED3
:10BF7000AEEC5AF0E552FD0EDBCFE9FFFE0EDBCF53
:10BF8000EAFFEF50520810E1010EE76EFD0EDBCF25
:10BF9000E9FFFE0EDBCFEAFFE750E926000EEA22BA
:10BFA000EF50330801E1859A0A0EE66EAEEC5AF0C6
:10BFB000E552FD0EDBCFE9FFFE0EDBCFEAFFEF50CF
:10BFC000520810E1010EE76EFD0EDBCFE9FFFE0E19
:10BFD000DBCFEAFFE750E926000EEA22EF503408F3
:10BFE00001E1859C0A0EE66EAEEC5AF0E552FD0EBC
:10BFF000DBCFE9FFFE0EDBCFEAFFEF50520810E186
:10C00000010EE76EFD0EDBCFE9FFFE0EDBCFEAFF90
:10C01000E750E926000EEA22EF50350801E1859E3F
:10C020000A0EE66EAEEC5AF0E552E552E7CFD9FFC4
:10C030001200D9CFE6FFE552E7CFD9FF1200020187
:10C04000310E826F836F846F856F866F876F886F05
:10C05000896F8A6F8B6F8C6F8D6F1200D9CFE6FF5F
:10C06000E1CFD9FF040EE126080EF36E020EF3CFE6
:10C07000DBFF030EDB6A0101230E006F020EDBCF34
:10C08000E9FF030EDBCFEAFF070EE95E000EEA5A76
:10C090007D0EE926010EEA22EFCF00F2020EDBCF81
:10C0A000E9FF030EDBCFEAFF070EE95E000EEA5A56
:10C0B0007D0EE926010EEA22EF50E66E020EDBCF7E
:10C0C000E9FF030EDBCFEAFF000EE926010EEA22AC
:10C0D000E552E750EF6E010EE76E020EDBCF14F073
:10C0E000030EDBCF15F0E7501426000E1522020ECA
:10C0F00014C0DBFF030E15C0DBFF020EDBCFE9FF30
:10C10000030EDBCFEAFF070EE95E000EEA5A7D0E52
:10C11000E926010EEA22EFCF01F2020EDBCFE9FFA2
:10C12000030EDBCFEAFF070EE95E000EEA5A7D0E32
:10C13000E926010EEA22EF50E66E020EDBCFE9FFA0
:10C14000030EDBCFEAFF000EE926010EEA22E552DC
:10C15000E750EF6E010EE76E020EDBCF14F0030E18
:10C16000DBCF15F0E7501426000E1522020E14C086
:10C17000DBFF030E15C0DBFF020EDBCFE9FF030E72
:10C18000DBCFEAFF070EE95E000EEA5A7D0EE926D4
:10C19000010EEA22EFCF02F2020EDBCFE9FF030E1F
:10C1A000DBCFEAFF070EE95E000EEA5A7D0EE926B4
:10C1B000010EEA22EF50E66E020EDBCFE9FF030E1E
:10C1C000DBCFEAFF000EE926010EEA22E552E75036
:10C1D000EF6E010EE76E020EDBCF14F0030EDBCF25
:10C1E00015F0E7501426000E1522020E14C0DBFFD6
:10C1F000030E15C0DBFF020EDBCFE9FF030EDBCF22
:10C20000EAFF070EE95E000EEA5A7D0EE926010EEE
:10C21000EA22EFCF03F2020EDBCFE9FF030EDBCF02
:10C22000EAFF070EE95E000EEA5A7D0EE926010ECE
:10C23000EA22EF50E66E020EDBCFE9FF030EDBCF02
:10C24000EAFF000EE926010EEA22E552E750EF6E02
:10C25000010EE76E020EDBCF14F0030EDBCF15F0FC
:10C26000E7501426000E1522020E14C0DBFF030E49
:10C2700015C0DBFF020EDBCFE9FF030EDBCFEAFFC9
:10C28000070EE95E000EEA5A7D0EE926010EEA224B
:10C29000EFCF04F2020EDBCFE9FF030EDBCFEAFFA4
:10C2A000070EE95E000EEA5A7D0EE926010EEA222B
:10C2B000EF50E66E020EDBCFE9FF030EDBCFEAFFA5
:10C2C000000EE926010EEA22E552E750EF6E010E5C
:10C2D000E76E020EDBCF14F0030EDBCF15F0E75054
:10C2E0001426000E1522020E14C0DBFF030E15C02B
:10C2F000DBFF020EDBCFE9FF030EDBCFEAFF070E09
:10C30000E95E000EEA5A7D0EE926010EEA22EFCF21
:10C3100006F2020EDBCFE9FF030EDBCFEAFF070ECA
:10C32000E95E000EEA5A7D0EE926010EEA22EF5080
:10C33000E66E020EDBCFE9FF030EDBCFEAFF000E55
:10C34000E926010EEA22E552E750EF6E010EE76E94
:10C35000020EDBCF14F0030EDBCF15F0E7501426EE
:10C36000000E1522020E14C0DBFF030E15C0DBFF0A
:10C37000020EDBCFE9FF030EDBCFEAFF070EE95E1B
:10C38000000EEA5A7D0EE926010EEA22EFCF07F2EF
:10C39000020EDBCFE9FF030EDBCFEAFF070EE95EFB
:10C3A000000EEA5A7D0EE926010EEA22EF50E66EF3
:10C3B000020EDBCFE9FF030EDBCFEAFF000EE9261A
:10C3C000010EEA22E552E750EF6E010EE76E020E13
:10C3D000DBCF14F0030EDBCF15F0E7501426000E70
:10C3E0001522020E14C0DBFF030E15C0DBFF020E88
:10C3F000DBCFE9FF030EDBCFEAFF070EE95E000E9D
:10C40000EA5A7D0EE926010EEA22EFCF08F2020E6B
:10C41000DBCFE9FF030EDBCFEAFF070EE95E000E7C
:10C42000EA5A7D0EE926010EEA22EF50E66E020E70
:10C43000DBCFE9FF030EDBCFEAFF000EE926010E9A
:10C44000EA22E552E750EF6E010EE76E020EDBCFF7
:10C4500014F0030EDBCF15F0E7501426000E152262
:10C46000020E14C0DBFF030E15C0DBFF020EDBCF94
:10C47000E9FF030EDBCFEAFF070EE95E000EEA5A82
:10C480007D0EE926010EEA22EFCF09F2020EDBCF84
:10C49000E9FF030EDBCFEAFF070EE95E000EEA5A62
:10C4A0007D0EE926010EEA22EF50E66E020EDBCF8A
:10C4B000E9FF030EDBCFEAFF000EE926010EEA22B8
:10C4C000E552E750EF6E010EE76E020EDBCF14F07F
:10C4D000030EDBCF15F0E7501426000E1522020ED6
:10C4E00014C0DBFF030E15C0DBFF020EDBCFE9FF3C
:10C4F000030EDBCFEAFF070EE95E000EEA5A7D0E5F
:10C50000E926010EEA22EFCF0AF2020EDBCFE9FFA5
:10C51000030EDBCFEAFF070EE95E000EEA5A7D0E3E
:10C52000E926010EEA22EF50E66E020EDBCFE9FFAC
:10C53000030EDBCFEAFF000EE926010EEA22E552E8
:10C54000E750EF6E010EE76E020EDBCF14F0030E24
:10C55000DBCF15F0E7501426000E1522020E14C092
:10C56000DBFF030E15C0DBFF020EDBCFE9FF030E7E
:10C57000DBCFEAFF070EE95E000EEA5A7D0EE926E0
:10C58000010EEA22EFCF0BF2020EDBCFE9FF030E22
:10C59000DBCFEAFF070EE95E000EEA5A7D0EE926C0
:10C5A000010EEA22EF50E66E020EDBCFE9FF030E2A
:10C5B000DBCFEAFF000EE926010EEA22E552E75042
:10C5C000EF6E010EE76E020EDBCF14F0030EDBCF31
:10C5D00015F0E7501426000E1522020E14C0DBFFE2
:10C5E000030E15C0DBFF020EDBCFE9FF030EDBCF2E
:10C5F000EAFF070EE95E000EEA5A7D0EE926010EFB
:10C60000EA22EFCF0CF2020EDBCFE9FF030EDBCF05
:10C61000EAFF070EE95E000EEA5A7D0EE926010EDA
:10C62000EA22EF50E66E020EDBCFE9FF030EDBCF0E
:10C63000EAFF000EE926010EEA22E552E750EF6E0E
:10C64000010EE76E020EDBCF14F0030EDBCF15F008
:10C65000E7501426000E1522020E14C0DBFF030E55
:10C6600015C0DBFF020EDBCFE9FF030EDBCFEAFFD5
:10C67000070EE95E000EEA5A7D0EE926010EEA2257
:10C68000EFCF0DF2020EDBCFE9FF030EDBCFEAFFA7
:10C69000070EE95E000EEA5A7D0EE926010EEA2237
:10C6A000EF50E66E020EDBCFE9FF030EDBCFEAFFB1
:10C6B000000EE926010EEA22E552E750EF6E010E68
:10C6C000E76E020EDBCF14F0030EDBCF15F0E75060
:10C6D0001426000E1522020E14C0DBFF030E15C037
:10C6E000DBFF020EDBCFE9FF030EDBCFEAFF070E15
:10C6F000E95E000EEA5A7D0EE926010EEA22EFCF2E
:10C700000EF2020EDBCFE9FF030EDBCFEAFF070ECE
:10C71000E95E000EEA5A7D0EE926010EEA22EF508C
:10C72000E66E020EDBCFE9FF030EDBCFEAFF000E61
:10C73000E926010EEA22E552E750EF6E010EE76EA0
:10C74000020EDBCF14F0030EDBCF15F0E7501426FA
:10C75000000E1522020E14C0DBFF030E15C0DBFF16
:10C76000020EDBCFE9FF030EDBCFEAFF070EE95E27
:10C77000000EEA5A7D0EE926010EEA22EFCF0FF2F3
:10C78000020EDBCFE9FF030EDBCFEAFF070EE95E07
:10C79000000EEA5A7D0EE926010EEA22EF50E66EFF
:10C7A000020EDBCFE9FF030EDBCFEAFF000EE92626
:10C7B000010EEA22E552E750EF6E010EE76E020E1F
:10C7C000DBCF14F0030EDBCF15F0E7501426000E7C
:10C7D0001522020E14C0DBFF030E15C0DBFF020E94
:10C7E000DBCFE9FF030EDBCFEAFF070EE95E000EA9
:10C7F000EA5A7D0EE926010EEA22EFCF10F2020E70
:10C80000DBCFE9FF030EDBCFEAFF070EE95E000E88
:10C81000EA5A7D0EE926010EEA22EF50E66E020E7C
:10C82000DBCFE9FF030EDBCFEAFF000EE926010EA6
:10C83000EA22E552E750EF6E010EE76E020EDBCF03
:10C8400014F0030EDBCF15F0E7501426000E15226E
:10C85000020E14C0DBFF030E15C0DBFF020EDBCFA0
:10C86000E9FF030EDBCFEAFF070EE95E000EEA5A8E
:10C870007D0EE926010EEA22EFCF11F2020EDBCF88
:10C88000E9FF030EDBCFEAFF070EE95E000EEA5A6E
:10C890007D0EE926010EEA22EF50E66E020EDBCF96
:10C8A000E9FF030EDBCFEAFF000EE926010EEA22C4
:10C8B000E552E750EF6E010EE76E020EDBCF14F08B
:10C8C000030EDBCF15F0E7501426000E1522020EE2
:10C8D00014C0DBFF030E15C0DBFF020EDBCFE9FF48
:10C8E000030EDBCFEAFF070EE95E000EEA5A7D0E6B
:10C8F000E926010EEA22EFCF12F2020EDBCFE9FFAA
:10C90000030EDBCFEAFF070EE95E000EEA5A7D0E4A
:10C91000E926010EEA22EF50E66E020EDBCFE9FFB8
:10C92000030EDBCFEAFF000EE926010EEA22E552F4
:10C93000E750EF6E010EE76E020EDBCF14F0030E30
:10C94000DBCF15F0E7501426000E1522020E14C09E
:10C95000DBFF030E15C0DBFFDE6ADD6ADE6ADD6A1F
:10C96000DECF14F0DDCF15F0D890155004E60D0E93
:10C97000145C000E15584FE2020EDBCFE9FF030EE8
:10C98000DBCFEAFF070EE95E000EEA5A7D0EE926CC
:10C99000010EEA22EF50E66EDECFE9FFDDCFEAFFBF
:10C9A000130EE926020EEA22E552E750EF6E020E60
:10C9B000DBCFE9FF030EDBCFEAFF070EE95E000ED7
:10C9C000EA5A7D0EE926010EEA22EF50E66E020ECB
:10C9D000DBCFE9FF030EDBCFEAFF000EE926010EF5
:10C9E000EA22E552E750EF6E010EE76E020EDBCF52
:10C9F00014F0030EDBCF15F0E7501426000E1522BD
:10CA0000020E14C0DBFF030E15C0DBFFDF2A010E90
:10CA1000A7E3DB2AA5D7DE6ADD6ADE6ADD6ADECF40
:10CA200014F0DDCF15F0D890155004E6120E145C0A
:10CA3000000E15584FE2020EDBCFE9FF030EDBCFED
:10CA4000EAFF070EE95E000EEA5A7D0EE926010EA6
:10CA5000EA22EF50E66EDECFE9FFDDCFEAFF200EDF
:10CA6000E926020EEA22E552E750EF6E020EDBCF16
:10CA7000E9FF030EDBCFEAFF070EE95E000EEA5A7C
:10CA80007D0EE926010EEA22EF50E66E020EDBCFA4
:10CA9000E9FF030EDBCFEAFF000EE926010EEA22D2
:10CAA000E552E750EF6E010EE76E020EDBCF14F099
:10CAB000030EDBCF15F0E7501426000E1522020EF0
:10CAC00014C0DBFF030E15C0DBFFDF2A010EA7E356
:10CAD000DB2AA5D7020EDBCFE9FF030EDBCFEAFF8F
:10CAE000070EE95E000EEA5A7D0EE926010EEA22E3
:10CAF000EFCF34F2020EDBCFE9FF030EDBCFEAFF0C
:10CB0000070EE95E000EEA5A7D0EE926010EEA22C2
:10CB1000EF50E66E020EDBCFE9FF030EDBCFEAFF3C
:10CB2000000EE926010EEA22E552E750EF6E010EF3
:10CB3000E76E020EDBCF14F0030EDBCF15F0E750EB
:10CB40001426000E1522020E14C0DBFF030E15C0C2
:10CB5000DBFF020EDBCFE9FF030EDBCFEAFF070EA0
:10CB6000E95E000EEA5A7D0EE926010EEA22EF5038
:10CB70000201355D02E0000E01D0010E020EDBCF96
:10CB8000E9FF030EDBCFEAFF070EE95E000EEA5A6B
:10CB90007D0EE926010EEA22EF50E66E020EDBCF93
:10CBA000E9FF030EDBCFEAFF000EE926010EEA22C1
:10CBB000E552E750EF6E010EE76E020EDBCF14F088
:10CBC000030EDBCF15F0E7501426000E1522020EDF
:10CBD00014C0DBFF030E15C0DBFF020EDBCFE9FF45
:10CBE000030EDBCFEAFF070EE95E000EEA5A7D0E68
:10CBF000E926010EEA22EF50365D02E0000E01D078
:10CC0000010E020EDBCFE9FF030EDBCFEAFF070EBA
:10CC1000E95E000EEA5A7D0EE926010EEA22EF5087
:10CC2000E66E020EDBCFE9FF030EDBCFEAFF000E5C
:10CC3000E926010EEA22E552E750EF6E010EE76E9B
:10CC4000020EDBCF14F0030EDBCF15F0E7501426F5
:10CC5000000E1522020E14C0DBFF030E15C0DBFF11
:10CC6000020EDBCFE9FF030EDBCFEAFF070EE95E22
:10CC7000000EEA5A7D0EE926010EEA22EFCF37F2C6
:10CC8000020EDBCFE9FF030EDBCFEAFF070EE95E02
:10CC9000000EEA5A7D0EE926010EEA22EF50E66EFA
:10CCA000020EDBCFE9FF030EDBCFEAFF000EE92621
:10CCB000010EEA22E552E750EF6E010EE76E020E1A
:10CCC000DBCF14F0030EDBCF15F0E7501426000E77
:10CCD0001522020E14C0DBFF030E15C0DBFF020E8F
:10CCE000DBCFE9FF030EDBCFEAFF070EE95E000EA4
:10CCF000EA5A7D0EE926010EEA22EFCF38F2020E43
:10CD0000DBCFE9FF030EDBCFEAFF070EE95E000E83
:10CD1000EA5A7D0EE926010EEA22EF50E66E020E77
:10CD2000DBCFE9FF030EDBCFEAFF000EE926010EA1
:10CD3000EA22E552E750EF6E010EE76E020EDBCFFE
:10CD400014F0030EDBCF15F0E7501426000E152269
:10CD5000020E14C0DBFF030E15C0DBFF020EDBCF9B
:10CD6000E9FF030EDBCFEAFF070EE95E000EEA5A89
:10CD70007D0EE926010EEA22EFCF39F2020EDBCF5B
:10CD8000E9FF030EDBCFEAFF070EE95E000EEA5A69
:10CD90007D0EE926010EEA22EF50E66E020EDBCF91
:10CDA000E9FF030EDBCFEAFF000EE926010EEA22BF
:10CDB000E552E750EF6E010EE76E020EDBCF14F086
:10CDC000030EDBCF15F0E7501426000E1522020EDD
:10CDD00014C0DBFF030E15C0DBFF020EDBCFE9FF43
:10CDE000030EDBCFEAFF070EE95E000EEA5A7D0E66
:10CDF000E926010EEA22EFCF3AF2020EDBCFE9FF7D
:10CE0000030EDBCFEAFF070EE95E000EEA5A7D0E45
:10CE1000E926010EEA22EF50E66E020EDBCFE9FFB3
:10CE2000030EDBCFEAFF000EE926010EEA22E552EF
:10CE3000E750EF6E010EE76E020EDBCF14F0030E2B
:10CE4000DBCF15F0E7501426000E1522020E14C099
:10CE5000DBFF030E15C0DBFF020EDBCFE9FF030E85
:10CE6000DBCFEAFF070EE95E000EEA5A7D0EE926E7
:10CE7000010EEA22EFCF3BF2020EDBCFE9FF030EF9
:10CE8000DBCFEAFF070EE95E000EEA5A7D0EE926C7
:10CE9000010EEA22EF50E66E020EDBCFE9FF030E31
:10CEA000DBCFEAFF000EE926010EEA22E552E75049
:10CEB000EF6E010EE76E020EDBCF14F0030EDBCF38
:10CEC00015F0E7501426000E1522020E14C0DBFFE9
:10CED000030E15C0DBFF020EDBCFE9FF030EDBCF35
:10CEE000EAFF070EE95E000EEA5A7D0EE926010E02
:10CEF000EA22EFCF3CF2020EDBCFE9FF030EDBCFDD
:10CF0000EAFF070EE95E000EEA5A7D0EE926010EE1
:10CF1000EA22EF50E66E020EDBCFE9FF030EDBCF15
:10CF2000EAFF000EE926010EEA22E552E750EF6E15
:10CF3000010EE76E020EDBCF14F0030EDBCF15F00F
:10CF4000E7501426000E1522020E14C0DBFF030E5C
:10CF500015C0DBFF020EDBCFE9FF030EDBCFEAFFDC
:10CF6000070EE95E000EEA5A7D0EE926010EEA225E
:10CF7000EFCF3DF2020EDBCFE9FF030EDBCFEAFF7E
:10CF8000070EE95E000EEA5A7D0EE926010EEA223E
:10CF9000EF50E66E020EDBCFE9FF030EDBCFEAFFB8
:10CFA000000EE926010EEA22E552E750EF6E010E6F
:10CFB000E76E020EDBCF14F0030EDBCF15F0E75067
:10CFC0001426000E1522020E14C0DBFF030E15C03E
:10CFD000DBFF020EDBCFE9FF030EDBCFEAFF070E1C
:10CFE000E95E000EEA5A7D0EE926010EEA22EFCF35
:10CFF0003EF2020EDBCFE9FF030EDBCFEAFF070EA6
:10D00000E95E000EEA5A7D0EE926010EEA22EF5093
:10D01000E66E020EDBCFE9FF030EDBCFEAFF000E68
:10D02000E926010EEA22E552E750EF6E010EE76EA7
:10D03000020EDBCF14F0030EDBCF15F0E750142601
:10D04000000E1522020E14C0DBFF030E15C0DBFF1D
:10D05000020EDBCFE9FF030EDBCFEAFF070EE95E2E
:10D06000000EEA5A7D0EE926010EEA22EFCF3FF2CA
:10D07000020EDBCFE9FF030EDBCFEAFF070EE95E0E
:10D08000000EEA5A7D0EE926010EEA22EF50E66E06
:10D09000020EDBCFE9FF030EDBCFEAFF000EE9262D
:10D0A000010EEA22E552E750EF6E010EE76E020E26
:10D0B000DBCF14F0030EDBCF15F0E7501426000E83
:10D0C0001522020E14C0DBFF030E15C0DBFF020E9B
:10D0D000DBCFE9FF030EDBCFEAFF070EE95E000EB0
:10D0E000EA5A7D0EE926010EEA22EFCF40F2020E47
:10D0F000DBCFE9FF030EDBCFEAFF070EE95E000E90
:10D10000EA5A7D0EE926010EEA22EF50E66E020E83
:10D11000DBCFE9FF030EDBCFEAFF000EE926010EAD
:10D12000EA22E552E750EF6E010EE76E020EDBCF0A
:10D1300014F0030EDBCF15F0E7501426000E152275
:10D14000020E14C0DBFF030E15C0DBFF020EDBCFA7
:10D15000E9FF030EDBCFEAFF070EE95E000EEA5A95
:10D160007D0EE926010EEA22EFCF41F2020EDBCF5F
:10D17000E9FF030EDBCFEAFF070EE95E000EEA5A75
:10D180007D0EE926010EEA22EF50E66E020EDBCF9D
:10D19000E9FF030EDBCFEAFF000EE926010EEA22CB
:10D1A000E552E750EF6E010EE76E020EDBCF14F092
:10D1B000030EDBCF15F0E7501426000E1522020EE9
:10D1C00014C0DBFF030E15C0DBFF020EDBCFE9FF4F
:10D1D000030EDBCFEAFF070EE95E000EEA5A7D0E72
:10D1E000E926010EEA22EFCF42F2020EDBCFE9FF81
:10D1F000030EDBCFEAFF070EE95E000EEA5A7D0E52
:10D20000E926010EEA22EF50E66E020EDBCFE9FFBF
:10D21000030EDBCFEAFF000EE926010EEA22E552FB
:10D22000E750EF6E010EE76E020EDBCF14F0030E37
:10D23000DBCF15F0E7501426000E1522020E14C0A5
:10D24000DBFF030E15C0DBFF020EDBCFE9FF030E91
:10D25000DBCFEAFF070EE95E000EEA5A7D0EE926F3
:10D26000010EEA22EFCF43F2020EDBCFE9FF030EFD
:10D27000DBCFEAFF070EE95E000EEA5A7D0EE926D3
:10D28000010EEA22EF50E66E020EDBCFE9FF030E3D
:10D29000DBCFEAFF000EE926010EEA22E552E75055
:10D2A000EF6E010EE76E020EDBCF14F0030EDBCF44
:10D2B00015F0E7501426000E1522020E14C0DBFFF5
:10D2C000030E15C0DBFF020EDBCFE9FF030EDBCF41
:10D2D000EAFF070EE95E000EEA5A7D0EE926010E0E
:10D2E000EA22EFCF44F2020EDBCFE9FF030EDBCFE1
:10D2F000EAFF070EE95E000EEA5A7D0EE926010EEE
:10D30000EA22EF50E66E020EDBCFE9FF030EDBCF21
:10D31000EAFF000EE926010EEA22E552E750EF6E21
:10D32000010EE76E020EDBCF14F0030EDBCF15F01B
:10D33000E7501426000E1522020E14C0DBFF030E68
:10D3400015C0DBFF020EDBCFE9FF030EDBCFEAFFE8
:10D35000070EE95E000EEA5A7D0EE926010EEA226A
:10D36000EFCF45F2020EDBCFE9FF030EDBCFEAFF82
:10D37000070EE95E000EEA5A7D0EE926010EEA224A
:10D38000EF50E66E020EDBCFE9FF030EDBCFEAFFC4
:10D39000000EE926010EEA22E552E750EF6E010E7B
:10D3A000E76E020EDBCF14F0030EDBCF15F0E75073
:10D3B0001426000E1522020E14C0DBFF030E15C04A
:10D3C000DBFF020EDBCFE9FF030EDBCFEAFF070E28
:10D3D000E95E000EEA5A7D0EE926010EEA22EFCF41
:10D3E00046F2020EDBCFE9FF030EDBCFEAFF070EAA
:10D3F000E95E000EEA5A7D0EE926010EEA22EF50A0
:10D40000E66E020EDBCFE9FF030EDBCFEAFF000E74
:10D41000E926010EEA22E552E750EF6E010EE76EB3
:10D42000020EDBCF14F0030EDBCF15F0E75014260D
:10D43000000E1522020E14C0DBFF030E15C0DBFF29
:10D44000020EDBCFE9FF030EDBCFEAFF070EE95E3A
:10D45000000EEA5A7D0EE926010EEA22EFCF47F2CE
:10D46000020EDBCFE9FF030EDBCFEAFF070EE95E1A
:10D47000000EEA5A7D0EE926010EEA22EF50E66E12
:10D48000020EDBCFE9FF030EDBCFEAFF000EE92639
:10D49000010EEA22E552E750EF6E010EE76E020E32
:10D4A000DBCF14F0030EDBCF15F0E7501426000E8F
:10D4B0001522020E14C0DBFF030E15C0DBFF020EA7
:10D4C000DBCFE9FF030EDBCFEAFF070EE95E000EBC
:10D4D000EA5A7D0EE926010EEA22EFCF48F2020E4B
:10D4E000DBCFE9FF030EDBCFEAFF070EE95E000E9C
:10D4F000EA5A7D0EE926010EEA22EF50E66E020E90
:10D50000DBCFE9FF030EDBCFEAFF000EE926010EB9
:10D51000EA22E552E750EF6E010EE76E020EDBCF16
:10D5200014F0030EDBCF15F0E7501426000E152281
:10D53000020E14C0DBFF030E15C0DBFF020EDBCFB3
:10D54000E9FF030EDBCFEAFF070EE95E000EEA5AA1
:10D550007D0EE926010EEA22EFCF49F2020EDBCF63
:10D56000E9FF030EDBCFEAFF070EE95E000EEA5A81
:10D570007D0EE926010EEA22EF50E66E020EDBCFA9
:10D58000E9FF030EDBCFEAFF000EE926010EEA22D7
:10D59000E552E750EF6E010EE76E020EDBCF14F09E
:10D5A000030EDBCF15F0E7501426000E1522020EF5
:10D5B00014C0DBFF030E15C0DBFF020EDBCFE9FF5B
:10D5C000030EDBCFEAFF070EE95E000EEA5A7D0E7E
:10D5D000E926010EEA22EFCF4AF2020EDBCFE9FF85
:10D5E000030EDBCFEAFF070EE95E000EEA5A7D0E5E
:10D5F000E926010EEA22EF50E66E020EDBCFE9FFCC
:10D60000030EDBCFEAFF000EE926010EEA22E55207
:10D61000E750EF6E010EE76E020EDBCF14F0030E43
:10D62000DBCF15F0E7501426000E1522020E14C0B1
:10D63000DBFF030E15C0DBFF020EDBCFE9FF030E9D
:10D64000DBCFEAFF070EE95E000EEA5A7D0EE926FF
:10D65000010EEA22EFCF4BF2020EDBCFE9FF030E01
:10D66000DBCFEAFF070EE95E000EEA5A7D0EE926DF
:10D67000010EEA22EF50E66E020EDBCFE9FF030E49
:10D68000DBCFEAFF000EE926010EEA22E552E75061
:10D69000EF6E010EE76E020EDBCF14F0030EDBCF50
:10D6A00015F0E7501426000E1522020E14C0DBFF01
:10D6B000030E15C0DBFF020EDBCFE9FF030EDBCF4D
:10D6C000EAFF070EE95E000EEA5A7D0EE926010E1A
:10D6D000EA22EFCF4CF2020EDBCFE9FF030EDBCFE5
:10D6E000EAFF070EE95E000EEA5A7D0EE926010EFA
:10D6F000EA22EF50E66E020EDBCFE9FF030EDBCF2E
:10D70000EAFF000EE926010EEA22E552E750EF6E2D
:10D71000010EE76E020EDBCF14F0030EDBCF15F027
:10D72000E7501426000E1522020E14C0DBFF030E74
:10D7300015C0DBFF020EDBCFE9FF030EDBCFEAFFF4
:10D74000070EE95E000EEA5A7D0EE926010EEA2276
:10D75000EFCF4DF2020EDBCFE9FF030EDBCFEAFF86
:10D76000070EE95E000EEA5A7D0EE926010EEA2256
:10D77000EF50E66E020EDBCFE9FF030EDBCFEAFFD0
:10D78000000EE926010EEA22E552E750EF6E010E87
:10D79000E76E020EDBCF14F0030EDBCF15F0E7507F
:10D7A0001426000E1522020E14C0DBFF030E15C056
:10D7B000DBFF020EDBCFE9FF030EDBCFEAFF070E34
:10D7C000E95E000EEA5A7D0EE926010EEA22EFCF4D
:10D7D0004EF2020EDBCFE9FF030EDBCFEAFF070EAE
:10D7E000E95E000EEA5A7D0EE926010EEA22EF50AC
:10D7F000E66E020EDBCFE9FF030EDBCFEAFF000E81
:10D80000E926010EEA22E552E750EF6E010EE76EBF
:10D81000020EDBCF14F0030EDBCF15F0E750142619
:10D82000000E1522020E14C0DBFF030E15C0DBFF35
:10D83000020EDBCFE9FF030EDBCFEAFF070EE95E46
:10D84000000EEA5A7D0EE926010EEA22EFCF4FF2D2
:10D85000020EDBCFE9FF030EDBCFEAFF070EE95E26
:10D86000000EEA5A7D0EE926010EEA22EF50E66E1E
:10D87000020EDBCFE9FF030EDBCFEAFF000EE92645
:10D88000010EEA22E552E750EF6E010EE76E020E3E
:10D89000DBCF14F0030EDBCF15F0E7501426000E9B
:10D8A0001522020E14C0DBFF030E15C0DBFF020EB3
:10D8B000DBCFE9FF030EDBCFEAFF070EE95E000EC8
:10D8C000EA5A7D0EE926010EEA22EFCF50F2020E4F
:10D8D000DBCFE9FF030EDBCFEAFF070EE95E000EA8
:10D8E000EA5A7D0EE926010EEA22EF50E66E020E9C
:10D8F000DBCFE9FF030EDBCFEAFF000EE926010EC6
:10D90000EA22E552E750EF6E010EE76E020EDBCF22
:10D9100014F0030EDBCF15F0E7501426000E15228D
:10D92000020E14C0DBFF030E15C0DBFF020EDBCFBF
:10D93000E9FF030EDBCFEAFF070EE95E000EEA5AAD
:10D940007D0EE926010EEA22EFCF51F2020EDBCF67
:10D95000E9FF030EDBCFEAFF070EE95E000EEA5A8D
:10D960007D0EE926010EEA22EF50E66E020EDBCFB5
:10D97000E9FF030EDBCFEAFF000EE926010EEA22E3
:10D98000E552E750EF6E010EE76E020EDBCF14F0AA
:10D99000030EDBCF15F0E7501426000E1522020E01
:10D9A00014C0DBFF030E15C0DBFF020EDBCFE9FF67
:10D9B000030EDBCFEAFF070EE95E000EEA5A7D0E8A
:10D9C000E926010EEA22EFCF52F2020EDBCFE9FF89
:10D9D000030EDBCFEAFF070EE95E000EEA5A7D0E6A
:10D9E000E926010EEA22EF50E66E020EDBCFE9FFD8
:10D9F000030EDBCFEAFF000EE926010EEA22E55214
:10DA0000E750EF6E010EE76E020EDBCF14F0030E4F
:10DA1000DBCF15F0E7501426000E1522020E14C0BD
:10DA2000DBFF030E15C0DBFF020EDBCFE9FF030EA9
:10DA3000DBCFEAFF070EE95E000EEA5A7D0EE9260B
:10DA4000010EEA22EFCF53F2020EDBCFE9FF030E05
:10DA5000DBCFEAFF070EE95E000EEA5A7D0EE926EB
:10DA6000010EEA22EF50E66E020EDBCFE9FF030E55
:10DA7000DBCFEAFF000EE926010EEA22E552E7506D
:10DA8000EF6E010EE76E020EDBCF14F0030EDBCF5C
:10DA900015F0E7501426000E1522020E14C0DBFF0D
:10DAA000030E15C0DBFF020EDBCFE9FF030EDBCF59
:10DAB000EAFF070EE95E000EEA5A7D0EE926010E26
:10DAC000EA22EFCF54F2020EDBCFE9FF030EDBCFE9
:10DAD000EAFF070EE95E000EEA5A7D0EE926010E06
:10DAE000EA22EF50E66E020EDBCFE9FF030EDBCF3A
:10DAF000EAFF000EE926010EEA22E552E750EF6E3A
:10DB0000010EE76E020EDBCF14F0030EDBCF15F033
:10DB1000E7501426000E1522020E14C0DBFF030E80
:10DB200015C0DBFF020EDBCFE9FF030EDBCFEAFF00
:10DB3000070EE95E000EEA5A7D0EE926010EEA2282
:10DB4000EFCF55F2020EDBCFE9FF030EDBCFEAFF8A
:10DB5000070EE95E000EEA5A7D0EE926010EEA2262
:10DB6000EF50E66E020EDBCFE9FF030EDBCFEAFFDC
:10DB7000000EE926010EEA22E552E750EF6E010E93
:10DB8000E76E020EDBCF14F0030EDBCF15F0E7508B
:10DB90001426000E1522020E14C0DBFF030E15C062
:10DBA000DBFF020EDBCFE9FF030EDBCFEAFF070E40
:10DBB000E95E000EEA5A7D0EE926010EEA22EFCF59
:10DBC00056F2020EDBCFE9FF030EDBCFEAFF070EB2
:10DBD000E95E000EEA5A7D0EE926010EEA22EF50B8
:10DBE000E66E020EDBCFE9FF030EDBCFEAFF000E8D
:10DBF000E926010EEA22E552E750EF6E010EE76ECC
:10DC0000020EDBCF14F0030EDBCF15F0E750142625
:10DC1000000E1522020E14C0DBFF030E15C0DBFF41
:10DC2000020EDBCFE9FF030EDBCFEAFF000EE92691
:10DC3000010EEA222A0EEF6E020EDBCFE3F2030E94
:10DC4000DBCFE4F2040EE15C02E2E16AE552E16E50
:10DC5000E552E7CFD9FF1200D9CFE6FFE1CFD9FFD8
:10DC6000E6520101230E006FFD0EDBCFE9FFFE0E31
:10DC7000DBCFEAFFEFCF01F1010EE76EFD0EDBCF48
:10DC8000E9FFFE0EDBCFEAFFE750E926000EEA22AD
:10DC9000EFCF02F1020EE76EFD0EDBCFE9FFFE0EC5
:10DCA000DBCFEAFFE750E926000EEA22EFCF03F1CF
:10DCB000030EE76EFD0EDBCFE9FFFE0EDBCFEAFFC2
:10DCC000E750E926000EEA22EFCF04F1040EE76EDA
:10DCD000FD0EDBCFE9FFFE0EDBCFEAFFE750E926C2
:10DCE000000EEA22EFCF05F1060EDF6EDFCF14F053
:10DCF0007D0EE76E1418E8AE02D0E73402D0E7508C
:10DD0000145C0CE2DFCFE9FFEA6AE9BEEA68000EC4
:10DD1000E926010EEA22EF68DF2AE8D7010EE66E57
:10DD2000000EE66E010EE66E000EE66E010EE66E69
:10DD3000BEEC56F0E552E552F3CF14F0F4CF15F0F7
:10DD4000F3CFE6FFF4CFE6FF000EE66E010EE66EBF
:10DD50009EEC58F0E552E552E66EF9EC5AF0166E7C
:10DD6000060EE15E1650E552E552E7CFD9FF1200EC
:10DD7000D9CFE6FFE1CFD9FF0B0EE126070EA6C2F1
:10DD8000DBFF060EA5C2DBFF050EA4C2DBFF040EFF
:10DD9000A3C2DBFF030EA2C2DBFF91EC56F0060E1E
:10DDA000DB50D00F176E050EDB50D00F0A0DF3CFEE
:10DDB00016F0040EDB50D00F640DF3501624172418
:10DDC000146E156A14BE1568090E14C0DBFF0A0E26
:10DDD00015C0DBFF800E086E096A090EDBCF0DF05F
:10DDE0000A0EDBCF0EF0BEEC9FF006C014F007C0A9
:10DDF00015F0300E1426750E1522090E14C0DBFF27
:10DE00000A0E15C0DBFF040EE66E000EE66E030E72
:10DE1000E66E090EDBCFE6FF0A0EDBCFE6FF030E50
:10DE2000E66E84EC59F0146E060EE15E1450010E9D
:10DE3000E66E7D0EE66E010EE66EA20EE66E020E38
:10DE4000E66EBEEC56F0E552E552F3CF14F0F4CF97
:10DE500015F0F3CFE6FFF4CFE6FFA20EE66E020E5A
:10DE6000E66E9EEC58F0E552E552E66E84EC59F011
:10DE7000166E060EE15E16500101230E006F7EC184
:10DE800008F17FC109F180C10AF1DE520B0EDD6E8F
:10DE90001D0EF36E010EDBCFF4FFF350F45C17E2BE
:10DEA000010EDB50150FEA6A7D0FE96E010EEA22C2
:10DEB000EF50E66E010EDB50EA6A000FE96E010ECC
:10DEC000EA22E552E750EF6E010EDB2AE1D783C16B
:10DED0001DF181C11EF182C11FF1C8C120F1C9C16C
:10DEE00021F1460E0301035D04E10101460E206F9E
:10DEF000216F690E0301025D04E10101390E206FFB
:10DF0000216F630E0301025D04E10101380E206FF1
:10DF1000216F680E0301025D04E10101370E206FDD
:10DF2000216FDE52010EDD6E110EF36E010EDBCF9E
:10DF3000F4FFF350F45C01E335D10201300EA66F1B
:10DF40000A0EF36E010EDBCFF4FFF350F45C02E334
:10DF5000310EA66F0A0EF36E010EDBCFF4FFF35005
:10DF6000F45C04E2010EDB50300FA76F010EDB50B2
:10DF70000A0802E1300EA76F0A0EF36E010EDBCF26
:10DF8000F4FFF350F45C05E3010EDB50F60F300FA5
:10DF9000A76F010EE66E7D0EE66E010EE66EA20E16
:10DFA000E66E020EE66EBEEC56F0E552E552F3CF99
:10DFB00014F0F4CF15F0F3CFE6FFF4CFE6FFA20E96
:10DFC000E66E020EE66E9EEC58F0E552E552E66E05
:10DFD00084EC59F0166E060EE15E1650010EDB045D
:10DFE000040DF350220FEA6A000FE96E010EEA22D7
:10DFF00081C1EFFF010EDB04040DF350230FEA6A29
:10E00000000FE96E010EEA2282C1EFFF010EDB0470
:10E01000040DF350240FEA6A000FE96E010EEA22A4
:10E02000C8C1EFFF010EDB04040DF350250FEA6AAF
:10E03000000FE96E010EEA22C9C1EFFF010EDB50AD
:10E04000030FEA6A000FE96E030EEA22EF5046085A
:10E0500018E1010EDB04040DF350240FEA6A000FEF
:10E06000E96E010EEA22460EEF6E010EDB04040D8E
:10E07000F350250FEA6A000FE96E010EEA22460E00
:10E08000EF6E720E0301025D1BE1010EDB0418E16D
:10E09000010EDB04040DF350240FEA6A000FE96E51
:10E0A000010EEA22C8C1EFFF010EDB04040DF3509C
:10E0B000250FEA6A000FE96E010EEA22C9C1EFFFDF
:10E0C000690E025D18E1010EDB04040DF350240F0C
:10E0D000EA6A000FE96E010EEA22390EEF6E010EB8
:10E0E000DB04040DF350250FEA6A000FE96E010E00
:10E0F000EA22390EEF6E630E025D18E1010EDB04B9
:10E10000040DF350240FEA6A000FE96E010EEA22B3
:10E11000380EEF6E010EDB04040DF350250FEA6A92
:10E12000000FE96E010EEA22380EEF6E680E025DF6
:10E1300018E1010EDB04040DF350240FEA6A000F0E
:10E14000E96E010EEA22370EEF6E010EDB04040DBC
:10E15000F350250FEA6A000FE96E010EEA22370E2E
:10E16000EF6E720E025D1BE1010EDB0418E0010E82
:10E17000DB04040DF350240FEA6A000FE96E010E70
:10E18000EA22460EEF6E010EDB04040DF350250F5C
:10E19000EA6A000FE96E010EEA22460EEF6E010EEA
:10E1A000DB2AC2D60B0EE15C02E2E16AE552E16EC7
:10E1B000E552E7CFD9FF1200D9CFE6FFE1CFD9FF73
:10E1C000030EE126800EF36E010EF3CFDBFF020E8D
:10E1D000DB6ADF6ADFCF14F0010EDBCF15F0020E31
:10E1E000DBCF16F01550145C000E165438E2C6A6AC
:10E1F0001BD0FD0EDBCFE9FFFE0EDBCFEAFFEF50B9
:10E20000E66EE7ECA0F0E552000902E0FD0E28D032
:10E21000C750040B01E0010E146E1F0EC51414103C
:10E22000F7E1C5AC15D012D09E96FD0EDBCFE9FF0D
:10E23000FE0EDBCFEAFFEF50C96EC6889EA6FED762
:10E24000C750040B05E1C750010B02E1FE0E08D0D8
:10E25000FD0EDB2AFE0E01E3DB2ADF2ABBD7000E10
:10E26000146E030EE15C02E2E16AE552E16E1450C5
:10E27000E552E7CFD9FF1200D9CFE6FFE1CFD9FFB2
:10E280000A0EE126080EDB6A090EDB6ADE6ADD6A29
:10E29000020EDB6A030EDB6A040EDB6A050EDB6A24
:10E2A000060EDB6A070EDB6AD950FD0FE96EFF0E22
:10E2B000DA20EA6EEE50ED1001E109D3F90EDBCF62
:10E2C00014F0FA0EDBCF15F0D890155004E6040ECA
:10E2D000145C000E155801E29DD0E80E146E030E7A
:10E2E000156EFD0EDBCF08F0FE0EDBCF09F014C07B
:10E2F0000DF015C00EF06BEC9FF008C0DEFF09C0FA
:10E30000DDFFD9CFE9FFDACFEAFFEE50ED106DE087
:10E31000DECF16F0DDCF17F0300E1626000E1722D6
:10E32000080EDBCF14F0090EDBCF15F0FB0EDB502F
:10E330001424E96EFC0EDB501520EA6E16C0EFFFC8
:10E34000080EDBCF15F0090EDBCF16F0FB0EDB500D
:10E350001524E96EFC0EDB501620EA6EEFCF14F0A8
:10E36000300EE76E1418E8AE02D0E73402D0E75062
:10E37000145C10E2080EDBCF14F0090EDBCF15F0B1
:10E38000FB0EDB501424E96EFC0EDB501520EA6E08
:10E39000300EEF6E080EDBCF15F0090EDBCF16F056
:10E3A000FB0EDB501524E96EFC0EDB501620EA6EE6
:10E3B000EFCF14F0390EE76E1418E8AE02D0143423
:10E3C00003D0E750D880145420E2080EDBCF14F0BD
:10E3D000090EDBCF15F0FB0EDB501424E96EFC0EAA
:10E3E000DB501520EA6E390E0FD0080EDBCF14F08B
:10E3F000090EDBCF15F0FB0EDB501424E96EFC0E8A
:10E40000DB501520EA6E300EEF6E080EDB2A090E87
:10E4100001E3DB2AF90EDBCF14F0FA0EDBCF15F0A7
:10E42000D890155004E6030E145C000E155801E256
:10E43000BFD0FD0EDBCF16F0FE0EDBCF17F0E80EDF
:10E44000086E030E096EDECF0DF0DDCF0EF091ECFD
:10E450009FF00650165C146E07501758156E020E8A
:10E4600014C0DBFF030E15C0DBFF640E146E156ACB
:10E47000020EDBCF08F0030EDBCF09F014C00DF065
:10E4800015C00EF06BEC9FF0020E08C0DBFF030E10
:10E4900009C0DBFFD950020FE96EDACFEAFFEE5078
:10E4A000ED1071E0300EE76E020EDBCF16F0030EBA
:10E4B000DBCF17F0E7501626000E1722080EDBCF31
:10E4C00014F0090EDBCF15F0FB0EDB501424E96EBF
:10E4D000FC0EDB501520EA6E16C0EFFF080EDBCFF6
:10E4E00015F0090EDBCF16F0FB0EDB501524E96E9C
:10E4F000FC0EDB501620EA6EEFCF14F0300EE76E04
:10E500001418E8AE02D0E73402D0E750145C10E2F1
:10E51000080EDBCF14F0090EDBCF15F0FB0EDB503D
:10E520001424E96EFC0EDB501520EA6E300EEF6EFF
:10E53000080EDBCF15F0090EDBCF16F0FB0EDB501B
:10E540001524E96EFC0EDB501620EA6EEFCF14F0B6
:10E55000390EE76E1418E8AE02D0143403D0E75039
:10E56000D880145420E2080EDBCF14F0090EDBCF64
:10E5700015F0FB0EDB501424E96EFC0EDB50152069
:10E58000EA6E390E0FD0080EDBCF14F0090EDBCF88
:10E5900015F0FB0EDB501424E96EFC0EDB50152049
:10E5A000EA6E300EEF6E080EDB2A090E01E3DB2A5D
:10E5B000F90EDBCF14F0FA0EDBCF15F0D890155022
:10E5C00004E6020E145C000E155801E2D0D0FD0ED8
:10E5D000DBCF18F0FE0EDBCF19F0E80E086E030E4D
:10E5E000096EDECF0DF0DDCF0EF091EC9FF00650FE
:10E5F000185C166E07501958176E640E086E096A7B
:10E60000020EDBCF0DF0030EDBCF0EF091EC9FF08E
:10E610000650165C146E07501758156E040E14C081
:10E62000DBFF050E15C0DBFF0A0E146E156A040E23
:10E63000DBCF08F0050EDBCF09F014C00DF015C0DC
:10E640000EF06BEC9FF0040E08C0DBFF050E09C056
:10E65000DBFFD950040FE96EDACFEAFFEE50ED1080
:10E6600071E0300EE76E040EDBCF16F0050EDBCF47
:10E6700017F0E7501626000E1722080EDBCF14F015
:10E68000090EDBCF15F0FB0EDB501424E96EFC0EF7
:10E69000DB501520EA6E16C0EFFF080EDBCF15F039
:10E6A000090EDBCF16F0FB0EDB501524E96EFC0ED5
:10E6B000DB501620EA6EEFCF14F0300EE76E141820
:10E6C000E8AE02D0E73402D0E750145C10E2080E46
:10E6D000DBCF14F0090EDBCF15F0FB0EDB5014245A
:10E6E000E96EFC0EDB501520EA6E300EEF6E080E60
:10E6F000DBCF15F0090EDBCF16F0FB0EDB50152437
:10E70000E96EFC0EDB501620EA6EEFCF14F0390EE6
:10E71000E76E1418E8AE02D0143403D0E750D88066
:10E72000145420E2080EDBCF14F0090EDBCF15F0F5
:10E73000FB0EDB501424E96EFC0EDB501520EA6E54
:10E74000390E0FD0080EDBCF14F0090EDBCF15F019
:10E75000FB0EDB501424E96EFC0EDB501520EA6E34
:10E76000300EEF6E080EDB2A090E01E3DB2AFD0EE8
:10E77000DBCF1AF0FE0EDBCF1BF0E80E086E030EA7
:10E78000096EDECF0DF0DDCF0EF091EC9FF006505C
:10E790001A5C186E07501B58196E640E086E096AD1
:10E7A000020EDBCF0DF0030EDBCF0EF091EC9FF0ED
:10E7B0000650185C166E07501958176E0A0E086E30
:10E7C000096A040EDBCF0DF0050EDBCF0EF091ECE5
:10E7D0009FF00650165C146E07501758156E060E03
:10E7E00014C0DBFF070E15C0DBFF300EE76E060E10
:10E7F000DBCF16F0070EDBCF17F0E7501626000E22
:10E800001722080EDBCF14F0090EDBCF15F0FB0E3C
:10E81000DB501424E96EFC0EDB501520EA6E16C0A6
:10E82000EFFF080EDBCF15F0090EDBCF16F0FB0E65
:10E83000DB501524E96EFC0EDB501620EA6EEFCF9C
:10E8400014F0300EE76E1418E8AE02D0E73402D0B0
:10E85000E750145C10E2080EDBCF14F0090EDBCF9A
:10E8600015F0FB0EDB501424E96EFC0EDB50152076
:10E87000EA6E300EEF6E080EDBCF15F0090EDBCF1F
:10E8800016F0FB0EDB501524E96EFC0EDB50162053
:10E89000EA6EEFCF14F0390EE76E1418E8AE02D02E
:10E8A000143403D0E750D88014543BE2080EDBCF79
:10E8B00014F0090EDBCF15F0FB0EDB501424E96ECB
:10E8C000FC0EDB501520EA6E390EEF6E2AD0DE6AA0
:10E8D000DD6ADECF14F0DDCF15F0F90EDBCF16F0D8
:10E8E000FA0EDBCF17F015501718E8AE02D0173428
:10E8F00004D01650145C1750155813E2FB0EDBCFF2
:10E9000014F0FC0EDBCF15F0DE501424E96EDD5060
:10E910001520EA6E300EEF6EDF2A010EDAE3DB2AF5
:10E92000D8D70A0EE15C02E2E16AE552E16EE552F7
:10E93000E7CFD9FF12009280928292849286928AC7
:10E94000978097829784070EC16EB80EC06E146AC6
:10E95000156A166A400E176E14C0E6FF15C0E6FF72
:10E9600016C0E6FFE66E010EE66E050EE66EE66A7E
:10E9700061DAE552E552E552E552E7CF17F0E5528C
:10E98000E7CF16F0E552E7CF15F0E552E7CF14F0E8
:10E9900006C018F007C019F008C01AF009C01BF033
:10E9A00006C00CF007C00DF008C00EF009C00FF053
:10E9B00014C007F015C008F016C009F017C00AF01F
:10E9C000E4EC9EF007C0C2F208C0C3F209C0C4F272
:10E9D0000AC0C5F2146A156A166A400E176E14C092
:10E9E000E6FF15C0E6FF16C0E6FFE66E010EE66E16
:10E9F000050EE66E010EE66E1DDAE552E552E552B1
:10EA0000E552E7CF17F0E552E7CF16F0E552E7CF32
:10EA100015F0E552E7CF14F006C018F007C019F062
:10EA200008C01AF009C01BF006C00CF007C00DF0BA
:10EA300008C00EF009C00FF014C007F015C008F0B0
:10EA400016C009F017C00AF0E4EC9EF007C0C6F249
:10EA500008C0C7F209C0C8F20AC0C9F2146A156A30
:10EA6000166A400E176E14C0E6FF15C0E6FF16C00A
:10EA7000E6FFE66E010EE66E050EE66E020EE66E2F
:10EA8000D9D9E552E552E552E552E7CF17F0E55204
:10EA9000E7CF16F0E552E7CF15F0E552E7CF14F0D7
:10EAA00006C018F007C019F008C01AF009C01BF022
:10EAB00006C00CF007C00DF008C00EF009C00FF042
:10EAC00014C007F015C008F016C009F017C00AF00E
:10EAD000E4EC9EF007C0CAF208C0CBF209C0CCF249
:10EAE0000AC0CDF2146A156A166A400E176E14C079
:10EAF000E6FF15C0E6FF16C0E6FFE66E010EE66E05
:10EB0000050EE66E030EE66E95D9E552E552E55226
:10EB1000E552E7CF17F0E552E7CF16F0E552E7CF21
:10EB200015F0E552E7CF14F006C018F007C019F051
:10EB300008C01AF009C01BF006C00CF007C00DF0A9
:10EB400008C00EF009C00FF014C007F015C008F09F
:10EB500016C009F017C00AF0E4EC9EF007C0CEF230
:10EB600008C0CFF209C0D0F20AC0D1F2010EE66EA1
:10EB7000050EE66E040EE66E5DD9E552E552E552ED
:10EB800006C0D6F207C0D7F208C0D8F209C0D9F241
:10EB9000146A156A166A400E176E14C0E6FF15C097
:10EBA000E6FF16C0E6FFE66E010EE66E050EE66EA7
:10EBB000E66E40D9E552E552E552E552E7CF17F04F
:10EBC000E552E7CF16F0E552E7CF15F0E552E7CF73
:10EBD00014F006C018F007C019F008C01AF009C0F8
:10EBE0001BF006C00CF007C00DF008C00EF009C005
:10EBF0000FF014C007F015C008F016C009F017C0D8
:10EC00000AF0E4EC9EF007C0D2F208C0D3F209C0CB
:10EC1000D4F20AC0D5F2146A156A166A400E176E4D
:10EC200014C0E6FF15C0E6FF16C0E6FFE66E010E53
:10EC3000E66E050EE66E060EE66EFCD8E552E5526F
:10EC4000E552E552E7CF17F0E552E7CF16F0E5526F
:10EC5000E7CF15F0E552E7CF14F006C018F007C073
:10EC600019F008C01AF009C01BF006C00CF007C06C
:10EC70000DF008C00EF009C00FF014C007F015C069
:10EC800008F016C009F017C00AF0E4EC9EF007C0C7
:10EC9000DAF208C0DBF209C0DCF20AC0DDF2146A65
:10ECA000156A166A400E176E14C0E6FF15C0E6FF1F
:10ECB00016C0E6FFE66E010EE66E050EE66E070E66
:10ECC000E66EB8D8E552E552E552E552E7CF17F0C7
:10ECD000E552E7CF16F0E552E7CF15F0E552E7CF62
:10ECE00014F006C018F007C019F008C01AF009C0E7
:10ECF0001BF006C00CF007C00DF008C00EF009C0F4
:10ED00000FF014C007F015C008F016C009F017C0C6
:10ED10000AF0E4EC9EF007C0DEF208C0DFF209C0A2
:10ED2000E0F20AC0E1F2640EE66EAEEC5AF0E55293
:10ED30001200D9CFE6FFE1CFD9FF090EE126DE6A46
:10ED4000DE6AA00EDE6E3A0EDD6EDD52DD52FE0E84
:10ED5000DB50070A1EE0010A1AE0030A16E0010A66
:10ED600012E0070A0EE0010A0AE0030A05E0010AC0
:10ED700015E1040EDB6A12D0040EF36E0DD0080EFE
:10ED800009D00C0E07D0100E05D0140E03D0180EAB
:10ED900001D01C0EF36E040EF3CFDBFF000EC21485
:10EDA000C26E040EDB50C210C26E010EC210C26EE3
:10EDB000C282C2B2FED7C3CF08F0C4CF09F0E5ECDF
:10EDC0009DF0000EDFCF0CF0010EDBCF0DF0020E38
:10EDD000DBCF0EF0030EDBCF0FF0E4EC9EF0050E60
:10EDE00007C0DBFF060E08C0DBFF070E09C0DBFF14
:10EDF000080E0AC0DBFFC290050EDBCF14F0060E32
:10EE0000DBCF15F0070EDBCF16F0080EDBCF17F0C7
:10EE100014C006F015C007F016C008F017C009F0BE
:10EE2000090EE15C02E2E16AE552E16EE552E7CFEC
:10EE3000D9FF1200D9CFE6FFE1CFD9FF0E0EE126B0
:10EE4000DE6ADE6ADE6ADD6ADD52DD52040EDB6AEE
:10EE5000050EDB6A060EDB6A070EDB6A0D0EDB6A47
:10EE6000DBCF14F0FC0EDB50E76E1418E8AE02D0D6
:10EE7000E73402D0E750145C01E3D7D00C0EDB6A14
:10EE8000DBCF14F0FD0EDB50E76E1418E8AE02D0B5
:10EE9000E73402D0E750145C48E2FE0EDBCFE6FF19
:10EEA00048DFE552080E06C0DBFF090E07C0DBFF96
:10EEB0000A0E08C0DBFF0B0E09C0DBFF080EDBCF1C
:10EEC00014F0090EDBCF15F00A0EDBCF16F00B0E97
:10EED000DBCF17F0D9CFE9FFDACFEAFFEECF18F09A
:10EEE000EECF19F0EECF1AF0EFCF1BF018C00CF0F8
:10EEF00019C00DF01AC00EF01BC00FF014C007F0BF
:10EF000015C008F016C009F017C00AF0FBEC9DF020
:10EF100007C0DEFF08C0DEFF09C0DEFF0AC0DDFF5C
:10EF2000DD52DD520C0EDB2AABD7D9CFE9FFDACFA9
:10EF3000EAFFEECF14F0EECF15F0EECF16F0EFCFE4
:10EF400017F00C0EDBCF1CF01CC009F0D6EC9DF0C6
:10EF500007C018F008C019F009C01AF00AC01BF069
:10EF600007C00CF008C00DF009C00EF00AC00FF089
:10EF700014C007F015C008F016C009F017C00AF059
:10EF800091EC9EF0080E07C0DBFF090E08C0DBFF06
:10EF90000A0E09C0DBFF0B0E0AC0DBFF040EDBCF3D
:10EFA00014F0050EDBCF15F0060EDBCF16F0070EC2
:10EFB000DBCF17F0080EDBCF18F0090EDBCF19F00E
:10EFC0000A0EDBCF1AF00B0EDBCF1BF018C00CF0D3
:10EFD00019C00DF01AC00EF01BC00FF014C007F0DE
:10EFE00015C008F016C009F017C00AF0FBEC9DF040
:10EFF000040E07C0DBFF050E08C0DBFF060E09C0CC
:10F00000DBFF070E0AC0DBFF080EDB6A090EDB6AB6
:10F010000A0EDB6A0B0EDB6ADE6ADE6ADE6ADD6A16
:10F02000DD52DD520D0EDB2A1BD7040EDBCF14F0B0
:10F03000050EDBCF15F0060EDBCF16F0070EDBCF8B
:10F0400017F00D0EDBCF1CF01CC009F0D6EC9DF0C4
:10F0500007C018F008C019F009C01AF00AC01BF068
:10F0600007C00CF008C00DF009C00EF00AC00FF088
:10F0700014C007F015C008F016C009F017C00AF058
:10F0800091EC9EF0080E07C0DBFF090E08C0DBFF05
:10F090000A0E09C0DBFF0B0E0AC0DBFF080EDBCF38
:10F0A00014F0090EDBCF15F00A0EDBCF16F00B0EB5
:10F0B000DBCF17F014C006F015C007F016C008F03B
:10F0C00017C009F00E0EE15C02E2E16AE552E16E62
:10F0D000E552E7CFD9FF1200D9CFE6FFE1CFD9FF44
:10F0E000E6529A96968EDF6A84A202D0010EDF6EF7
:10F0F000DF5010E1888684AE05D0640EE66EAEEC7B
:10F100005AF0E55284BE06D0640EE66EAEEC5AF0BC
:10F11000E5528482DF0414E1330E0C6E0D6E530E43
:10F120000E6E400E0F6EDEC207F0DFC208F0E0C2C6
:10F1300009F0E1C20AF003ECA0F0010A01E08492B8
:10F140008896DF500AE184AE06D0640EE66EAEEC1F
:10F150005AF0E552849284AE84828896DF0410E1EE
:10F1600084AE06D0640EE66EAEEC5AF0E5528492A0
:10F1700084BE06D0640EE66EAEEC5AF0E552849280
:10F18000E552E552E7CFD9FF1200D9CFE6FFE1CF34
:10F19000D9FF070EE126DE6ADD6ADECF14F0DDCF8F
:10F1A00015F0C80E145C320E155801E368D1FE0E3E
:10F1B000DB5011E1E66A000EE66E030EE66EDECF6E
:10F1C000E6FFDDCFE6FF070EE66E84EC59F0146E25
:10F1D000060EE15E1450FE0EDB0411E1E66A000E3D
:10F1E000E66E030EE66EDECFE6FFDDCFE6FF050E30
:10F1F000E66E84EC59F0146E060EE15E1450060EB5
:10F20000E66EAEEC5AF0E552460E0301625D04E193
:10F21000980EDE6E3A0EDD6E020EDB6A030EDB6ABE
:10F22000020EDBCF14F0030EDBCF15F0110E145CD1
:10F23000000E155801E316D1050E086E096A020E7C
:10F24000DBCF0DF0030EDBCF0EF0BEEC9FF006C05F
:10F25000E9FF07C0EAFF0D0EE926000EEA22000EC4
:10F26000E926030EEA22EFCF93F2050E086E096A33
:10F27000020EDBCF0DF0030EDBCF0EF0BEEC9FF0E5
:10F2800006C0E9FF07C0EAFF0E0EE926000EEA22DB
:10F29000000EE926030EEA22EFCF94F2050E086E67
:10F2A000096A020EDBCF0DF0030EDBCF0EF0BEECD1
:10F2B0009FF006C0E9FF07C0EAFF0F0EE926000E27
:10F2C000EA22000EE926030EEA22EFCF95F2050EA0
:10F2D000086E096A020EDBCF0DF0030EDBCF0EF0D5
:10F2E000BEEC9FF006C0E9FF07C0EAFF100EE9265A
:10F2F000000EEA22000EE926030EEA22EFCF96F274
:10F30000050E086E096A020EDBCF0DF0030EDBCF8F
:10F310000EF0BEEC9FF006C0E9FF07C0EAFF110E39
:10F32000E926000EEA22000EE926030EEA22EFCFBC
:10F3300097F2780E0201935D01E1A1D0300E935D4A
:10F34000640DF3CF14F0156A14BE1568040E14C0D2
:10F35000DBFF050E15C0DBFF300E945D0A0DF3CF09
:10F3600016F0176A16BE1768040EDB501624146ECA
:10F37000050EDB501720156E040E14C0DBFF050EC2
:10F3800015C0DBFF300E955D166E176A16BE176846
:10F39000040EDB501624146E050EDB501720156E7C
:10F3A000040E14C0DBFF050E15C0DBFFF36E060E66
:10F3B000F3CFDBFF040EDBCF14F0050EDBCF15F02F
:10F3C0004F0E145C000E155805E2040EF36E060E87
:10F3D000F3CFDBFF040EDBCF14F0050EDBCF15F00F
:10F3E0003B0E145C000E155805E2030EF36E060E7C
:10F3F000F3CFDBFF040EDBCF14F0050EDBCF15F0EF
:10F40000270E145C000E155805E2020EF36E060E70
:10F41000F3CFDBFF040EDBCF14F0050EDBCF15F0CE
:10F42000130E145C000E155805E2010EF36E060E65
:10F43000F3CFDBFF930EE66E020EE66E140EE66E61
:10F44000010EE66E060EDBCFE6FFA6EC0CF0146EA6
:10F45000050EE15E1450020EDB2A030E01E2E0D637
:10F46000DB2ADED6DECF14F0DDCF15F0800E1426B9
:10F47000000E152214C0DEFF15C0DDFF8ED6640E0F
:10F48000E66EAEEC5AF0E552070EE15C02E2E16A8C
:10F49000E552E16EE552E7CFD9FF1200D9CFE6FF82
:10F4A000E1CFD9FF020EE126DE6ADD6ADECF14F07D
:10F4B000DDCF15F07D0E145C000E15580EE2DECF88
:10F4C000E9FFDDCFEAFF7D0EE926010EEA22EF68B3
:10F4D000DF2A010EEBE3DB2AE9D7DE6ADD6ADECF45
:10F4E00014F0DDCF15F0C80E145C320E15583AE258
:10F4F000FE0EDB5011E1E66A7D0EE66E010EE66E51
:10F50000DECFE6FFDDCFE6FF070EE66EF9EC5AF040
:10F51000146E060EE15E1450FE0EDB0411E1E66A85
:10F520007D0EE66E010EE66EDECFE6FFDDCFE6FF76
:10F53000050EE66EF9EC5AF0146E060EE15E1450FC
:10F54000060EE66EAEEC5AF0E552DECF14F0DDCFDB
:10F5500015F0800E1426000E152214C0DEFF15C013
:10F56000DDFFBDD7020EE15C02E2E16AE552E16E29
:10F57000E552E7CFD9FF1200D9CFE6FFE1CFD9FF9F
:10F58000020EE126630EE76EFD0EDBCFE9FFFE0EF5
:10F59000DBCFEAFFE750E926000EEA22EF50D00F5A
:10F5A000640DF350DE6EDD6A640EE76EFD0EDBCF98
:10F5B000E9FFFE0EDBCFEAFFE750E926000EEA2264
:10F5C000EF50D00F0A0DF350E76E000EDFCF14F0AE
:10F5D000010EDBCF15F0E7501426000E152214C0E3
:10F5E000DEFF15C0DDFF650EE76EFD0EDBCFE9FF28
:10F5F000FE0EDBCFEAFFE750E926000EEA22EF50CD
:10F60000D00FE76E000EDFCF14F0010EDBCF15F048
:10F61000E7501426000E152214C0DEFF15C0DDFFD2
:10F62000800E086E096ADECF0DF0DDCF0EF0BEEC65
:10F630009FF006C0DEFF07C0DDFFFC0EDB5013E1CC
:10F64000E66AFD0EDBCFE6FFFE0EDBCFE6FFDECF88
:10F65000E6FFDDCFE6FF070EE66EF9EC5AF0146E1A
:10F66000060EE15E1450FC0EDB0413E1E66AFD0EAB
:10F67000DBCFE6FFFE0EDBCFE6FFDECFE6FFDDCF22
:10F68000E6FF050EE66EF9EC5AF0146E060EE15E2A
:10F690001450020EE15C02E2E16AE552E16EE552CD
:10F6A000E7CFD9FF1200D9CFE6FFE1CFD9FF020E95
:10F6B000E126FC0EDB5002E1DE6ADD6AFC0EDB04B3
:10F6C00003E1800EDE6EDD6AFC0EDB50020803E112
:10F6D000DE6A010EDD6E030EE66EFD0EDBCFE6FF89
:10F6E000FE0EDBCFE6FFDECFE6FFDDCFE6FF060E48
:10F6F000E66EF9EC5AF0146E060EE15E1450640EDC
:10F70000E66EAEEC5AF0E552030EE66E000EE66EC3
:10F71000010EE66EDECFE6FFDDCFE6FF060EE66EFB
:10F7200084EC59F0146E060EE15E1450640EE66E21
:10F73000AEEC5AF0E552020EE15C02E2E16AE552FB
:10F74000E16EE552E7CFD9FF1200D9CFE6FFE1CF56
:10F75000D9FFC580C5B0FED7FE0EDBCFE6FFE7ECD4
:10F76000A0F0E552FD0EDBCFE6FFE7ECA0F0E5529E
:10F77000FC0EDBCFE6FFE7ECA0F0E552C584C5B494
:10F78000FED70B0EE66EAEEC5AF0E552E552E7CF2F
:10F79000D9FF1200D9CFE6FFE1CFD9FFE652C580ED
:10F7A000C5B0FED7FE0EDB50FE0BE66EE7ECA0F018
:10F7B000E552FD0EDBCFE6FFE7ECA0F0E552C58297
:10F7C000C5B2FED7FE0EDBCFE6FFE7ECA0F0E552B8
:10F7D000B1ECA1F0DF6EC584C5B4FED7DF50E552B1
:10F7E000E552E7CFD9FF1200D9CFE6FFE1CFD9FF2D
:10F7F000E652FE0EDB5007E1FD0EDB50800BE76E9C
:10F80000FD0EE7CFDBFFFE0EDB0407E1FD0EDB5054
:10F810007F0BE76EFD0EE7CFDBFFFE0EDB5002082D
:10F8200007E1FD0EDB503F0BE76EFD0EE7CFDBFF80
:10F83000FE0EDB50030807E1FD0EDB50070BE76E01
:10F84000FD0EE7CFDBFFFE0EDB50040807E1FD0EE7
:10F85000DB503F0BE76EFD0EE7CFDBFFFE0EDB500C
:10F86000050807E1FD0EDB501F0BE76EFD0EE7CF2D
:10F87000DBFFFE0EDB50060806E1FD0EDB50E76EF7
:10F88000FD0EE7CFDBFFFE0EDB50070806E1FD0EA5
:10F89000DB50E76EFD0EE7CFDBFFFD0EDBCFE6FFB3
:10F8A000FE0EDBCFE6FFD00EE66E4FDFE552E552EF
:10F8B000E552DF6EDF50E552E552E7CFD9FF120087
:10F8C000D9CFE6FFE1CFD9FFE652FE0EDBCFE6FF50
:10F8D000D10EE66E5FDFE552E552DF6EFE0EDB50C5
:10F8E00003E17F0EDF14DF6EFE0EDB0403E17F0E0B
:10F8F000DF14DF6EFE0EDB50020803E13F0EDF1463
:10F90000DF6EFE0EDB50030803E1070EDF14DF6E2F
:10F91000FE0EDB50040803E13F0EDF14DF6EFE0E27
:10F92000DB50050803E11F0EDF14DF6EFE0EDB5017
:10F930000608DF50E552E552E7CFD9FF1200060E68
:10F94000E66EBEDFE5520201F06F0A0EE66EAEEC27
:10F950005AF0E552050EE66EB3DFE5520201EE6F96
:10F960000A0EE66EAEEC5AF0E552040EE66EA8DF23
:10F97000E5520201F16F0A0EE66EAEEC5AF0E55266
:10F98000030EE66E9DDFE5520201EF6F0A0EE66E92
:10F99000AEEC5AF0E552020EE66E92DFE55202013D
:10F9A000EB6F0A0EE66EAEEC5AF0E552010EE66E13
:10F9B00087DFE5520201EC6F0A0EE66EAEEC5AF0FC
:10F9C000E552E66A7DDFE5520201ED6FF00EEB15C0
:10F9D000E8380F0B300F826F0F0EEB15300F836F6F
:10F9E000F00EEC15E8380F0B300F846F0F0EEC158E
:10F9F000300F856FF00EED15E8380F0B300F866F66
:10FA00000F0EED15300F876FF00EF115E8380F0B64
:10FA1000300F886F0F0EF115300F896FF00EEE1555
:10FA2000E8380F0B300F8A6F0F0EEE15300F8B6F0B
:10FA3000F00EF015E8380F0B300F8C6F0F0EF0152D
:10FA4000300F8D6F300E8C5D19E1300E8D5D16E13B
:10FA5000300E826F370E836F310E846F350E856FD7
:10FA6000300E866F876F320E886F390E896F310EB8
:10FA70008A6F8B6F300E8C6F320E8D6F1200300ECE
:10FA80000201825D100D300E835DF324EB6F300EAA
:10FA9000845D100D300E855DF324EC6F300E865DB5
:10FAA000100D300E875DF324ED6F300E885D100D64
:10FAB000300E895DF324F16F300E8A5D100D300E2B
:10FAC0008B5DF324EE6F300E8C5D100D300E8D5D6E
:10FAD000F324F06FEBC2E6FF020EE66E85DEE55220
:10FAE000E552ECC2E6FF010EE66E7EDEE552E5521F
:10FAF000EDC2E6FFE66A78DEE552E552F1C2E6FFC6
:10FB0000040EE66E71DEE552E552EEC2E6FF050E2A
:10FB1000E66E6ADEE552E552F0C2E6FF060EE66EDC
:10FB200063DEE552E5521200D9CFE6FFE1CFD9FFFF
:10FB3000040EE126020EDB6A030EDB6A020EE76E9C
:10FB4000FD0EDBCFE9FFFE0EDBCFEAFFE750E92633
:10FB5000000EEA22EF50D00F146E156A14BE15681D
:10FB600014C0DEFF15C0DDFF020EDBCF16F0030E62
:10FB7000DBCF17F0DE501624146EDD501720156E03
:10FB8000020E14C0DBFF030E15C0DBFF010EE76E93
:10FB9000FD0EDBCFE9FFFE0EDBCFEAFFE750E926E3
:10FBA000000EEA22EF50D00F146E156A14BE1568CD
:10FBB00014C0DEFF15C0DDFF020EDBCF16F0030E12
:10FBC000DBCF17F00A0E086E096ADECF0DF0DDCF2D
:10FBD0000EF0BEEC9FF016500624146E175007204E
:10FBE000156E020E14C0DBFF030E15C0DBFFFD0E09
:10FBF000DBCFE9FFFE0EDBCFEAFFEF50D00F146E34
:10FC0000156A14BE156814C0DEFF15C0DDFF020EB4
:10FC1000DBCF16F0030EDBCF17F0640E086E096A17
:10FC2000DECF0DF0DDCF0EF0BEEC9FF016500624B7
:10FC3000146E17500720156E020E14C0DBFF030E62
:10FC400015C0DBFFD950020FE96EDACFEAFF640E70
:10FC5000D880EE54000EED5403E3050EDE6EDD6A2F
:10FC6000D950020FE96EDACFEAFF500ED880EE5479
:10FC7000000EED5403E3040EDE6EDD6AD950020F70
:10FC8000E96EDACFEAFF3C0ED880EE54000EED5458
:10FC900003E3030EDE6EDD6AD950020FE96EDACFA0
:10FCA000EAFF280ED880EE54000EED5403E3020E56
:10FCB000DE6EDD6AD950020FE96EDACFEAFF140E6C
:10FCC000D880EE54000EED5403E3010EDE6EDD6AC3
:10FCD000DF50146E040EE15C02E2E16AE552E16E6F
:10FCE0001450E552E7CFD9FF1200D9CFE6FFE1CF9C
:10FCF000D9FFE652DF6ADFCF14F0FE0EDB50E76E6D
:10FD00001418E8AE02D0E73402D0E750145C34E2B5
:10FD1000640EE66EAEEC5AF0E552640EE66EAEECA2
:10FD20005AF0E552640EE66EAEEC5AF0E552640EFF
:10FD3000E66EAEEC5AF0E552640EE66EAEEC5AF0AA
:10FD4000E552640EE66EAEEC5AF0E552640EE66ED5
:10FD5000AEEC5AF0E552640EE66EAEEC5AF0E552A7
:10FD6000640EE66EAEEC5AF0E552640EE66EAEEC52
:10FD70005AF0E552DF2ABFD7E552E552E7CFD9FF67
:10FD80001200D9CFE6FFE1CFD9FF040EE126030E22
:10FD9000DB6AFB0EDBCF14F0FC0EDBCF15F0FD0EA3
:10FDA000DBCF16F0FE0EDBCF17F0080E1F0B07E0BF
:10FDB000D8901436153616361736E806F9E1FB0EDC
:10FDC00014C0DBFFFC0E15C0DBFFFD0E16C0DBFF11
:10FDD000FE0E17C0DBFF8DDAE668D4D9E552E6687F
:10FDE000D1D9E552839EE668D950FB0FE96EFF0E2C
:10FDF000DA20EA6EEECFE6FFEECFE6FFEECFE6FFCB
:10FE0000EFCFE6FF580EE66E35D9146E060EE15EB2
:10FE10001450DF6E838E030EDB2AFF0EDF5CDCE006
:10FE2000839EE668AFD9E552E668ACD9E552E6684C
:10FE3000A9D9E552E668A6D9E552E668A3D9E55204
:10FE4000E668A0D9E552FE0EE66E9CD9E552010E99
:10FE5000DB6A020EDB6A010EDBCF14F0020EDBCF91
:10FE600015F0000E145C020E155815E2010EDBCFE2
:10FE700014F0020EDBCF15F0FF0E145C000E1558C7
:10FE8000010EDBCFE6FF7ED9E552010EDB2A020E22
:10FE9000E2E3DB2AE0D7950EE66E74D9E552E66818
:10FEA00071D9E552DF6E030EDBCFF3FFDB2AF3508F
:10FEB0000A0802E2010E06D0E66864D9E55200099C
:10FEC000FBE1000E146E040EE15C02E2E16AE55211
:10FED000E16E1450E552E7CFD9FF1200D9CFE6FF0B
:10FEE000E1CFD9FF090EE126080EDB6AFB0EDBCF5E
:10FEF00014F0FC0EDBCF15F0FD0EDBCF16F0FE0E7E
:10FF0000DBCF17F0080E1F0B07E0D890143615361C
:10FF100016361736E806F9E1FB0E14C0DBFFFC0EBF
:10FF200015C0DBFFFD0E16C0DBFFFE0E17C0DBFFAA
:10FF3000080EDB6A839EE668D950FB0FE96EFF0E60
:10FF4000DA20EA6EEECFE6FFEECFE6FFEECFE6FF79
:10FF5000EFCFE6FF510EE66E8DD8146E060EE15E11
:10FF60001450DE6EDD6A838E080EDB2ADB500A0831
:10FF70001FE3D9CFE9FFDACFEAFFFF0EEE1801E168
:10FF8000ED50D8E0080EDB6A839EE668FBD8E552A8
:10FF9000FE0810E0080EDBCFF3FFDB2AF350146EEF
:10FFA000156A1534F2E21450F408010E1554EDE20E
:10FFB000010E54D0040EDB6A050EDB6A040EDBCFA3
:10FFC00014F0050EDBCF15F0000E145C020E155870
:10FFD0003DE2E668D7D8E552E66ED950020FE96EE9
:10FFE000DACFEAFFE552E750EE6EED6A040EDBCFA2
:10FFF000E9FF050EDBCFEAFF000EE926010EEA223B
:020000040001F9
:10000000020EDBCFEFFFDBCF14F0030E14C015F0B0
:10001000146A010EE76E040EDBCFE9FF050EDBCF9D
:10002000EAFFE750E926000EEA22000EE926010E5B
:10003000EA2214C0EFFF1E0EE66EAEEC5AF0E55257
:10004000040EDB2A050EBAE3DB2AB8D7E6689AD895
:10005000E552E66897D8E552838E000E146E090EBD
:10006000E15C02E2E16AE552E16E1450E552E7CF4D
:10007000D9FF1200D9CFE6FFE1CFD9FF030EE12669
:10008000020EDB6AFE0EDBCFE6FF7CD8E552DF6EA8
:10009000FA0EDBCF14F0FB0EDBCF15F0FC0EDBCF3E
:1000A00016F0FD0EDBCF17F0180ED890173216326F
:1000B00015321432E806F9E11450E66E63D8E552C1
:1000C000DF6EFA0EDBCF14F0FB0EDBCF15F0FC0E6B
:1000D000DBCF16F0FD0EDBCF17F0100ED8901732E5
:1000E000163215321432E806F9E11450E66E4AD899
:1000F000E552DF6EFA0EDBCF14F0FB0EDBCF15F00E
:10010000FC0EDBCF16F0FD0EDBCF17F0080ED890FB
:100110001732163215321432E806F9E11450E66E41
:1001200031D8E552DF6EFA0EDBCFE6FF2BD8E55271
:10013000DF6EF90EDBCFE6FF25D8E552DF6E020E4B
:10014000DB6A080EF36E020EDBCFF4FFF350F45CB3
:100150000CE2E66A17D8E552DF6EFF0EDF5C02E0C4
:10016000DF5004D0020EDB2AECD7DF50146E030EF2
:10017000E15C02E2E16AE552E16E1450E552E7CF3C
:10018000D9FF1200D9CFE6FFE1CFD9FFFE0EDB5039
:10019000666EA4AEFED7A49E6650E552E7CFD9FFA7
:1001A0001200D9CFE6FFE1CFD9FF040EE126030EFE
:1001B000DB6A9FD8838E010EDB6A0A0EF36E010E96
:1001C000DBCFF4FFF350F45C06E2E668DBDFE552D8
:1001D000010EDB2AF2D7839E010EDB6A020EF36E5C
:1001E000010EDBCFF4FFF350F45C06E2E668CADFF1
:1001F000E552010EDB2AF2D7DF28DF6E950EE66EA0
:10020000E66AE66AE66AE66A400EE66E33DF146E78
:10021000060EE15E1450E66EDF50EA6A000FE96EEA
:10022000010EEA22E552E750EF6E640EDF5C01E159
:10023000DF6ADF50EA6A000FE96E010EEA22EF047E
:10024000B9E1DF6ADF28DF6EE668E66AE66AE66A39
:10025000E66A410EE66E0EDF146E060EE15E145085
:10026000E66EDF50EA6A000FE96E010EEA22E552FF
:10027000E750EF6E640EDF5C01E1DF6ADF50EA6A8F
:10028000000FE96E010EEA22EF50DCE1DF6ADF28A1
:10029000DF6EE668E66AE66AE66AE66A7B0EE66EA6
:1002A000E9DE146E060EE15E1450E66EDF50EA6A77
:1002B000000FE96E010EEA22E552E750EF6E640E80
:1002C000DF5C01E1DF6ADF50EA6A000FE96E010ED0
:1002D000EA22EF50DCE110D8000E146E040EE15C4F
:1002E00002E2E16AE552E16E1450E552E7CFD9FF30
:1002F0001200220E636E1200210E636E1200959E94
:100300009598958A959C649E649C63986396639483
:1003100063826390638A838E1200D9CFE6FFE1CFB8
:10032000D9FFE652DF6ADFCF14F0FE0EDB50E76E36
:100330001418E8AE02D0E73402D0E750145C02E2B1
:10034000DF2AF1D7E552E552E7CFD9FF1200D9CF26
:10035000E6FFE1CFD9FF030EE126050EE76EFD0EA5
:10036000DBCFE9FFFE0EDBCFEAFFE750E926000E08
:10037000EA22EF50D00F146E156A14BE156814C02F
:10038000DEFF15C0DDFF0A0E086E096ADECF0DF034
:10039000DDCF0EF0BEEC9FF006C0DEFF07C0DDFF34
:1003A000060EE76EFD0EDBCFE9FFFE0EDBCFEAFFA8
:1003B000E750E926000EEA22EFCF16F0176A16BEC4
:1003C0001768DE501624146EDD501720156E300E9F
:1003D000145E000E155A14C0DEFF15C0DDFF020EBC
:1003E000DFCFDBFF800E086E096ADECF0DF0DDCFB8
:1003F0000EF0BEEC9FF006C014F007C015F0300EF2
:100400001426750E152214C0DEFF15C0DDFF030192
:10041000230E006F020EDBCF01F3F36EDB6EDBCF3A
:1004200014F0220EE76E1418E8AE02D0E73402D0C2
:10043000E750145C21E2020EDB50050F146E156AC2
:1004400014BE1568FD0EDB501424E96EFE0EDB5061
:100450001520EA6EEF50E66E020EDBCFE9FFEA6A86
:10046000E9BEEA68000EE926030EEA22E552E750EB
:10047000EF6E020EDB2AD3D7300E0301145D03E1C9
:100480000F01010E1C6F310E0301145D03E10F011A
:10049000020E1C6F320E0301145D03E10F01030E07
:1004A0001C6F330E0301145D03E10F01040E1C6F7A
:1004B000340E0301145D03E10F01050E1C6FDECF46
:1004C00016F0DDCF17F00F011C05186E196A18BE63
:1004D0001968086A0A0E096E18C00DF019C00EF0EE
:1004E00091EC9FF016500624146E17500720156EDD
:1004F00014C0DEFFDD6E0F011C05140DF350030167
:100500000125016F040EE66E000EE66E030EE66E28
:10051000DECFE6FFDDCFE6FF030EE66EF9EC5AF024
:10052000146E060EE15E1450030EE15C02E2E16A15
:10053000E552E16EE552E7CFD9FF1200D9CFE6FFD1
:10054000E1CFD9FF020EE126DE6ADD6ADECF14F0CC
:10055000DDCF15F0D890155004E67D0E145C000E2A
:1005600015581AE2DECFE9FFDDCFEAFF000EE926DB
:10057000010EEA22EF50E66EDECFE9FFDDCFEAFFA3
:100580007D0EE926010EEA22E552E750EF6EDF2AE2
:10059000010EDCE3DB2ADAD7020EE15C02E2E16A5B
:1005A000E552E16EE552E7CFD9FF1200D9CFE6FF61
:1005B000E1CFD9FF020EE126FE0EDB5002E1DE6A3A
:1005C000DD6AFE0EDB0403E1800EDE6EDD6AFE0EE8
:1005D000DB50020803E1DE6A010EDD6E030EE66EFB
:1005E000000EE66E030EE66EDECFE6FFDDCFE6FF21
:1005F000060EE66E84EC59F0146E060EE15E1450A1
:10060000020EE15C02E2E16AE552E16EE552E7CFFB
:10061000D9FF1200D9CFE6FFE1CFD9FF040EE126C2
:10062000010E00C2DBFF020E01C2DBFF030E02C29D
:10063000DBFF93C200F294C201F295C202F2020102
:10064000806BDF6ADFCF14F0110EE76E1418E8AE8E
:1006500002D0E73402D0E750145C11E2DFCFE6FFAE
:10066000000EE66E020EE66EB7D9E552E552E5528F
:100670000201C10502E18029806FDF2AE3D7FE0E67
:10068000DB0418E197C298F296C297F295C296F2EF
:1006900094C295F293C294F2230E936FE66A010E10
:1006A000E66E930EE66E020EE66E28D8E552E5522F
:1006B000E552E552010EDBCF00F2020EDBCF01F274
:1006C000030EDBCF02F2010E0201E76E8019E8AEE5
:1006D00002D0803503D0E750D880805502E3010E68
:1006E00001D0000E146E040EE15C02E2E16AE552F4
:1006F000E16E1450E552E7CFD9FF1200D9CFE6FFE3
:10070000E1CFD9FF050EE126FD0EDBCFE9FFFE0E9E
:10071000DBCFEAFF230EEF6E030EE76EFD0EDBCF9D
:10072000E9FFFE0EDBCFEAFFE750E926000EEA22E2
:10073000EF50D00F176E020EE76EFD0EDBCFE9FF14
:10074000FE0EDBCFEAFFE750E926000EEA22EF506B
:10075000D00F0A0DF3CF16F0010EE76EFD0EDBCFC2
:10076000E9FFFE0EDBCFEAFFE750E926000EEA22A2
:10077000EF50D00F640DF35016241724146E156A31
:1007800014BE156814C0DEFF15C0DDFF800E086EB4
:10079000096ADECF0DF0DDCF0EF0BEEC9FF006C093
:1007A00014F007C015F0300E1426750E152214C073
:1007B000DEFF15C0DDFF040EE66E000EE66E030ED2
:1007C000E66EDECFE6FFDDCFE6FF030EE66E84ECDD
:1007D00059F0146E060EE15E1450050EE76EFD0E24
:1007E000DBCFE9FFFE0EDBCFEAFFE750E926000E84
:1007F000EA22EF50D00F166E040EE76EFD0EDBCF2F
:10080000E9FFFE0EDBCFEAFFE750E926000EEA2201
:10081000EF50D00F0A0DF3501624146E156A14BE53
:100820001568020E14C0DBFF030E15C0DBFFFC0EC3
:10083000DB50020869E0FC0EDB5034E1060EE76E87
:10084000FD0EDBCFE9FFFE0EDBCFEAFFE750E92626
:10085000000EEA22EF50E66E030EE76E020EDBCFCB
:10086000E9FF030EDBCFEAFFE750E926000EEA229C
:10087000000EE926030EEA22E552E750EF6E030E62
:10088000E76E020EDBCFE9FF030EDBCFEAFFE75096
:10089000E926000EEA22000EE926030EEA22040EE3
:1008A000EFCFDBFF040EDB50410803E10301610ED3
:1008B000026F040EDB50520803E10301720E026F57
:1008C000FC0EDB0421E1030EE76E020EDBCFE9FF35
:1008D000030EDBCFEAFFE750E926000EEA22000E06
:1008E000E926030EEA22460EEF6E010E0201E76EC4
:1008F0008019E8AE02D0803503D0E750D88080550B
:1009000003E30301760E026FFB0EDB0403E1030138
:10091000680E026FFB0EDB50020803E10301680E54
:10092000026FFB0EDB50040806E1630E0301025D5B
:1009300002E015C302F3FB0EDB50050806E1630E6F
:100940000301025D02E015C302F3FB0EDB50060853
:1009500003E10301630E026FFB0EDB50070803E1A6
:100960000301630E026FFB0EDB50080802E115C3A2
:1009700002F3040EE66E000EE66E030EE66EDECFA8
:10098000E6FFDDCFE6FF030EE66EF9EC5AF0146EDB
:10099000060EE15E14500A0EE66EAEEC5AF0E55219
:1009A000040EE66E000EE66E030EE66EDECFE6FF88
:1009B000DDCFE6FF030EE66E84EC59F0146E060EF2
:1009C000E15E1450050EE15C02E2E16AE552E16E7F
:1009D000E552E7CFD9FF1200D9CFE6FFE1CFD9FF2B
:1009E000090EE126FC0EDB506F081AE1DF6ADFCF4B
:1009F00014F0130EE76E1418E8AE02D0E73402D0FC
:100A0000E750145C0DE2DFCFE9FFEA6AE9BEEA686D
:100A1000200EE926020EEA22200EEF6EDF2AE7D72B
:100A2000300EF36E060EF3CFDBFF300EF36E050EC5
:100A3000F3CFDBFF020EE76EFD0EDBCFE9FFFE0E0C
:100A4000DBCFEAFFE750E926000EEA22040EEFCFE3
:100A5000DBFF010EE76EFD0EDBCFE9FFFE0EDBCF05
:100A6000EAFFE750E926000EEA22030EEFCFDBFF94
:100A7000FD0EDBCFE9FFFE0EDBCFEAFF020EEFCF6C
:100A8000DBFFDE52230EDD6EFC0EDB506F081CE038
:100A90000A0E146E0E6EFC0EDBCF09F051EC9FF0C7
:100AA0000950300FE76E050EE7CFDBFFFC0EDB5081
:100AB000300F146E050EDB50D00F0A0DF350145C8E
:100AC000E76E060EE7CFDBFF040EDB50D00F176E8C
:100AD000030EDB50D00F0A0DF3CF16F0020EDB50E1
:100AE000D00F640DF35016241724146E156A14BE2B
:100AF0001568070E14C0DBFF080E15C0DBFF800E63
:100B0000086E096A070EDBCF0DF0080EDBCF0EF082
:100B1000BEEC9FF006C014F007C015F0300E14268E
:100B2000750E1522070E14C0DBFF080E15C0DBFF83
:100B3000040EE66E000EE66E030EE66E070EDBCFC9
:100B4000E6FF080EDBCFE6FF030EE66E84EC59F0FD
:100B5000146E060EE15E14500201C16BFC0EDB50F8
:100B60006F084FE1020EF36EFC0EF3CFDBFFDBCF1D
:100B7000E9FFEA6AE9BEEA68000EE926030EEA2206
:100B8000EF50610802E1010EC16FFC0EDBCFE9FFFF
:100B9000EA6AE9BEEA68000EE926030EEA22EF508F
:100BA000720802E1010EC16FFC0EDBCFE9FFEA6AB9
:100BB000E9BEEA68000EE926030EEA22EF50630858
:100BC00002E1020EC16FFC0EDBCFE9FFEA6AE9BE6B
:100BD000EA68000EE926030EEA22EF50680802E1F7
:100BE000030EC16FFC0EDBCFE9FFEA6AE9BEEA68DB
:100BF000000EE926030EEA22EF50690826E1040EF2
:100C000023D0FC0EDB50030FE76EFC0EE7CFDBFFBB
:100C1000DBCFE9FFEA6AE9BEEA68000EE926030EC7
:100C2000EA22EF50410802E1010EC16F720E03018A
:100C3000025D0BE1060EDB50310807E1050EDB50CB
:100C4000300803E10201010EC16F0201C10501E09C
:100C5000CBD0010EE66E000EE66E030EE66ED950A6
:100C6000010FE66E000EDA20E66EBEEC56F0E5529D
:100C7000E552F3CF14F0F4CF15F0F3CFE6FFF4CF45
:100C8000E6FFD950010FE66E000EDA20E66E9EEC0C
:100C900058F0E552E552E66E84EC59F0166E060EF9
:100CA000E15E165006C306F207C307F208C308F256
:100CB00009C309F20AC30AF20BC30BF20CC30CF20C
:100CC0000DC30DF20EC30EF20FC30FF210C310F2DC
:100CD00011C311F212C312F213C313F214C314F2AC
:100CE00015C315F216C316F217C317F218C318F27C
:100CF00019C319F21AC31AF21BC31BF21CC31CF24C
:100D00001DC31DF21EC31EF21FC31FF2DF6ADFCF19
:100D100014F0130EE76E1418E8AE02D0E73402D0D8
:100D2000E750145C1AE2200EDF24E96EEA6AE9BE9D
:100D3000EA68000EE926030EEA22EF50E66EDFCFE6
:100D4000E9FFEA6AE9BEEA68200EE926020EEA2215
:100D5000E552E750EF6EDF2ADAD732C334F233C3FD
:100D600035F234C336F235C337F236C338F237C3FF
:100D700039F238C33AF239C33BF23AC33CF23BC3CF
:100D80003DF23CC33EF23DC33FF23EC340F23FC39F
:100D900041F240C342F241C343F242C344F243C36F
:100DA00045F244C346F245C347F246C348F247C33F
:100DB00049F248C34AF249C34BF24AC34CF24BC30F
:100DC0004DF24CC34EF24DC34FF24EC350F24FC3DF
:100DD00051F250C352F251C353F252C354F253C3AF
:100DE00055F254C356F292D0300E076F086F096F58
:100DF0000A6F0B6F0C6F0D6F0E6F0F6F106F116F0F
:100E0000126FDF6ADFCF14F00D0EE76E1418E8AE34
:100E100002D0E73402D0E750145C0DE2DFCFE9FFE7
:100E2000EA6AE9BEEA68130EE926020EEA22200EFB
:100E3000EF6EDF2AE7D700C234F201C235F202C2F8
:100E400036F20201300E376F386F396F3A6F3B6FF1
:100E50003C6F3D6F3E6F3F0E3F6F03C240F204C2D6
:100E600041F2300E415D166E300E405D0A0DF350BA
:100E70001624010F146E156A14BE1568070E14C0EF
:100E8000DBFF080E15C0DBFF020EE66EE66A420EBF
:100E9000E66E020EE66E070EDBCFE6FF080EDBCF36
:100EA000E6FF3CEC71F0146E060EE15E1450020198
:100EB0003F0E446F456F466F476F4F6F506F516FD6
:100EC000526F300E536F380E546F300E556F566F91
:100ED000DF6ADFCF14F0060EE76E1418E8AE02D01A
:100EE000E73402D0E750145C0DE2DFCFE9FFEA6A95
:100EF000E9BEEA68480EE926020EEA22300EEF6EDD
:100F0000DF2AE7D70201300E4D6F4E6F090EE15C0C
:100F100002E2E16AE552E16EE552E7CFD9FF120045
:100F2000D9CFE6FFE1CFD9FF020EE126DF6ADFCF9E
:100F300014F07D0EE76E1418E8AE02D0E73402D04C
:100F4000E750145C19E2DFCFE9FFEA6AE9BEEA681C
:100F5000000EE926010EEA22EF50E66EDFCFE9FF30
:100F6000EA6AE9BEEA68000EE926030EEA22E552C3
:100F7000E750EF6EDF2ADBD70101300E0B6F0C6FED
:100F8000456F466F476F310E486F9EEC82F0610EE1
:100F9000E66E010EE66EC2EC39F0E552E552DF6A0C
:100FA000DFCF14F07D0EE76E1418E8AE02D0E73400
:100FB00002D0E750145C19E2DFCFE9FFEA6AE9BE2C
:100FC000EA68000EE926030EEA22EF50E66EDFCF54
:100FD000E9FFEA6AE9BEEA68000EE926010EEA22A4
:100FE000E552E750EF6EDF2ADBD79EEC82F0610E10
:100FF000E66E010EE66EC2EC39F0E552E552E66AA5
:10100000E66A000EE66E010EE66E7EEC83F0E552B7
:10101000E552E552E5520A0EE66EAEEC5AF0E552A4
:10102000010EE66E7D0EE66E010EE66E000EE66EB9
:10103000010EE66EBEEC56F0E552E552F3CF14F029
:10104000F4CF15F0F3CFE6FFF4CFE6FF000EE66E27
:10105000010EE66E9EEC58F0E552E552E66E84EC29
:1010600059F0166E060EE15E16500A0EE66EAEECF4
:101070005AF0E552146E020EE15C02E2E16AE552BA
:10108000E16E1450E552E7CFD9FF1200D9CFE6FF49
:10109000E1CFD9FF020EE1269BEC74F0010EDE6E6B
:1010A000DD6A040EE66E000EE66E030EE66E800E3E
:1010B000086E096ADECF0DF0DDCF0EF0BEEC9FF0BA
:1010C00006C014F007C015F0300E1426750E152258
:1010D00014C0E6FF15C0E6FF030EE66E84EC59F07F
:1010E000166E060EE15E16504D0E0301165D03E10D
:1010F00002014D0E02D00201450E576F0C6A0D6AB7
:101100000E6A400E0F6EC2C207F0C3C208F0C4C21E
:1011100009F0C5C20AF003ECA0F0010A03E00201E5
:10112000560E576F0C0E0F012B5D03E10201560E98
:10113000576F150EDE6EDD6A040EE66E000EE66E6B
:10114000030EE66E800E086E096ADECF0DF0DDCF6D
:101150000EF0BEEC9FF006C014F007C015F0300E84
:101160001426750E152214C0E6FF15C0E6FF030E07
:10117000E66E84EC59F0166E060EE15E16504D0ECA
:101180000301165D03E102014D0E02D00201450E7E
:10119000586F0C6A0D6A0E6A400E0F6EC6C207F0D9
:1011A000C7C208F0C8C209F0C9C20AF003ECA0F037
:1011B000010A03E00201560E586F0C0E0F012C5D60
:1011C00003E10201560E586F290EDE6EDD6A040E31
:1011D000E66E000EE66E030EE66E800E086E096A7D
:1011E000DECF0DF0DDCF0EF0BEEC9FF006C014F0A8
:1011F00007C015F0300E1426750E152214C0E6FF38
:1012000015C0E6FF030EE66E84EC59F0166E060E6E
:10121000E15E16504D0E0301165D03E102014D0E15
:1012200002D00201450E596F0C6A0D6A0E6A400E1B
:101230000F6ECAC207F0CBC208F0CCC209F0CDC213
:101240000AF003ECA0F0010A03E00201560E596F08
:101250000C0E0F012D5D03E10201560E596F3D0E7C
:10126000DE6EDD6A040EE66E000EE66E030EE66EBE
:10127000800E086E096ADECF0DF0DDCF0EF0BEECF9
:101280009FF006C014F007C015F0300E1426750E3E
:10129000152214C0E6FF15C0E6FF030EE66E84ECCF
:1012A00059F0166E060EE15E16504D0E0301165DE6
:1012B00003E102014D0E02D00201450E5A6F0C6A85
:1012C0000D6A0E6A400E0F6ECEC207F0CFC208F054
:1012D000D0C209F0D1C20AF003ECA0F0010A03E089
:1012E0000201560E5A6F0C0E0F012E5D03E1020132
:1012F000560E5A6F510EDE6EDD6A040EE66E000E5B
:10130000E66E030EE66E800E086E096ADECF0DF003
:10131000DDCF0EF0BEEC9FF006C014F007C015F054
:10132000300E1426750E152214C0E6FF15C0E6FF18
:10133000030EE66E84EC59F0166E060EE15E165052
:101340004D0E0301165D03E102014D0E02D00201B4
:10135000450E5B6F0C6A0D6A0E6A400E0F6ED2C2AC
:1013600007F0D3C208F0D4C209F0D5C20AF003ECEA
:10137000A0F0010A03E00201560E5B6F0C0E0F0194
:101380002F5D03E10201560E5B6F020EE15C02E28B
:10139000E16AE552E16EE552E7CFD9FF1200D9CFFD
:1013A000E6FFE1CFD9FF060EE126050EDB6A020E4D
:1013B000DE6EDD6ADECF14F0DDCF15F0153404E209
:1013C00014500D08000E15540EE3DECFE9FFDDCFFB
:1013D000EAFFA80EE926020EEA22EF6ADF2A010ED2
:1013E000E9E3DB2AE7D7DE6ADD6ADECF14F0DDCF82
:1013F00015F0D890155004E6640E145C000E1558D4
:1014000001E386D0030EE66EE66A930EE66E020EE8
:10141000E66EDECFE6FFDDCFE6FF3CEC71F0146E4A
:10142000060EE15E145095C296F294C295F293C2F4
:1014300094F20201230E936F300E976F986F010E96
:10144000E66E000EE66E030EE66E930EE66E020E7C
:10145000E66EBEEC56F0E552E552F3CF14F0F4CF51
:1014600015F0F3CFE6FFF4CFE6FF930EE66E020E23
:10147000E66E9EEC58F0E552E552E66E84EC59F0CB
:10148000166E060EE15E16500201230E936F020ED9
:1014900020C3DBFF030E21C3DBFF040E22C3DBFFEF
:1014A000050E23C3DBFF020EDB5052082BE1030EB7
:1014B000DB506F0827E1040EDB50A85D23E1050E29
:1014C000DB50A95D1FE1050EDB2ADBCF14F00A0E0D
:1014D000E76E1418E8AE02D0143403D0E750D88079
:1014E00014540DE3050EDB50020FE96EEA6AE9BE03
:1014F000EA68A80EE926020EEA22DFCFEFFF050E0A
:10150000DBCFB5F2DF2A010E01E26FD7DB2A6DD700
:10151000060EE15C02E2E16AE552E16EE552E7CFD8
:10152000D9FF1200460E01011D5D300E1E6F1F6FA8
:10153000390E205D03E1390E1E6F1F6F380E205DDE
:1015400003E1380E1E6F1F6F370E205D03E1370E6B
:101550001E6F1F6F340E205D30E0340E245D2DE0D1
:10156000340E285D2AE0340E2C5D27E0340E305D09
:1015700024E0340E345D21E0340E385D1EE0340E7C
:101580003C5D1BE0340E405D18E0340E445D15E018
:10159000340E485D12E0340E4C5D0FE0340E505DA9
:1015A0000CE0340E545D09E0340E585D06E0340E54
:1015B0005C5D03E0340E605D04E1330E1E6F300E9F
:1015C0001F6F350E205D30E0350E245D2DE0350EA9
:1015D000285D2AE0350E2C5D27E0350E305D24E0D5
:1015E000350E345D21E0350E385D1EE0350E3C5D74
:1015F0001BE0350E405D18E0350E445D15E0350EFC
:10160000485D12E0350E4C5D0FE0350E505D0CE08C
:10161000350E545D09E0350E585D06E0350E5C5D13
:1016200003E0350E605D04E1330E1E6F300E1F6F58
:10163000330E205D30E0330E245D2DE0330E285D47
:101640002AE0330E2C5D27E0330E305D24E0330EAC
:10165000345D21E0330E385D1EE0330E3C5D1BE04F
:10166000330E405D18E0330E445D15E0330E485DE7
:1016700012E0330E4C5D0FE0330E505D0CE0330E84
:10168000545D09E0330E585D06E0330E5C5D03E007
:10169000330E605D04E1330E1E6F300E1F6F310E8E
:1016A000215D03E0460E215D69E1310E255D03E019
:1016B000460E255D63E1310E295D03E0460E295D8E
:1016C0005DE1310E2D5D03E0460E2D5D57E1310EDB
:1016D000315D03E0460E315D51E1310E355D03E0D1
:1016E000460E355D4BE1310E395D03E0460E395D46
:1016F00045E1310E3D5D03E0460E3D5D3FE1310EBB
:10170000415D03E0460E415D39E1310E455D03E088
:10171000460E455D33E1310E495D03E0460E495DFD
:101720002DE1310E4D5D03E0460E4D5D27E1310E9A
:10173000515D03E0460E515D21E1310E555D03E040
:10174000460E555D1BE1310E595D03E0460E595DB5
:1017500015E1310E5D5D03E0460E5D5D0FE1310E7A
:10176000615D03E0460E615D09E1330E1E5D02E13D
:10177000330E01D0300E1E6F310E1F6F300E205D04
:1017800007E0310E215D04E0460E215D01E00ED13F
:10179000300E245D07E0310E255D04E0460E255D28
:1017A00001E004D1300E285D07E0310E295D04E030
:1017B000460E295D01E0FAD0300E2C5D07E0310EB7
:1017C0002D5D04E0460E2D5D01E0F0D0300E305D61
:1017D00007E0310E315D04E0460E315D01E0E6D0F8
:1017E000300E345D07E0310E355D04E0460E355DA8
:1017F00001E0DCD0300E385D07E0310E395D04E0E9
:10180000460E395D01E0D2D0300E3C5D07E0310E6E
:101810003D5D04E0460E3D5D01E0C8D0300E405D08
:1018200007E0310E415D04E0460E415D01E0BED0AF
:10183000300E445D07E0310E455D04E0460E455D27
:1018400001E0B4D0300E485D07E0310E495D04E0A0
:10185000460E495D01E0AAD0300E4C5D07E0310E26
:101860004D5D04E0460E4D5D01E0A0D0300E505DB0
:1018700007E0310E515D04E0460E515D01E096D067
:10188000300E545D07E0310E555D04E0460E555DA7
:1018900001E08CD0300E585D07E0310E595D04E058
:1018A000460E595D01E082D0300E5C5D07E0310EDE
:1018B0005D5D04E0460E5D5D01E078D0300E605D58
:1018C00006E0310E615D03E0460E615D6FE1300EB2
:1018D000205D03E0460E215D60E1300E245D03E0F3
:1018E000460E255D5AE1300E285D03E0460E295D67
:1018F00054E1300E2C5D03E0460E2D5D4EE1300EBE
:10190000305D03E0460E315D48E1300E345D03E0AA
:10191000460E355D42E1300E385D03E0460E395D1E
:101920003CE1300E3C5D03E0460E3D5D36E1300E9D
:10193000405D03E0460E415D30E1300E445D03E062
:10194000460E455D2AE1300E485D03E0460E495DD6
:1019500024E1300E4C5D03E0460E4D5D1EE1300E7D
:10196000505D03E0460E515D18E1300E545D03E01A
:10197000460E555D12E1300E585D03E0460E595D8E
:101980000CE1300E5C5D03E0460E5D5D06E1300E5D
:10199000605D0CE0460E615D09E0330E1E5D02E104
:1019A000330E01D0300E1E6F310E1F6F200E02015C
:1019B000E36FE46B0BEF56F0D9CFE6FFE1CFD9FF31
:1019C000070EE1267D0E0201E325E96E010EE421FA
:1019D000EA6EEFCF64F2010EEA6AE325E96EE451A4
:1019E000EA227D0EE926010EEA22EFCF65F2020E11
:1019F000EA6AE325E96EE451EA227D0EE926010E4A
:101A0000EA22EFCF66F2030EEA6AE325E96EE451BB
:101A1000EA227D0EE926010EEA22EFCF67F2040EDC
:101A2000EA6AE325E96EE451EA227D0EE926010E19
:101A3000EA22EFCF68F2E3C214F0E4C215F0140614
:101A4000000E155A1450E66E7D0EE66E010EE66E1F
:101A50003CD8E552E552E552050EF3CFDBFF060E0A
:101A6000F4CFDBFF050EE66ED9CFE6FFDACFE6FF57
:101A7000DBCFE6FF060EDBCFE6FFA7D8146E050E20
:101A8000E15E1450DF500201645D13E1010EDB5092
:101A9000655D0FE1020EDB50665D0BE1030EDB506E
:101AA000675D07E1040EDB50685D03E10F011E690D
:101AB00002D00F011E6B070EE15C02E2E16AE55203
:101AC000E16EE552E7CFD9FF1200D9CFE6FFE1CFB3
:101AD000D9FF060EE126020EDB68030EDB68FD0E61
:101AE000DBCF08F0FE0EDBCF09F0040E08C0DBFFF1
:101AF000050E09C0DBFFDF6A010EDB6A040EDBCFD7
:101B0000E9FF050EDBCFEAFFEFCF14F0156A14BE34
:101B10001568D950020FE96EDACFEAFF1450EE1AB9
:101B20001550ED1A030EDB50800B14E0D950020F54
:101B3000E96EDACFEAFF010ED890EE36ED36E80610
:101B4000FBE1D950020FE96EDACFEAFF210EEE1A5F
:101B5000ED780BD0D950020FE96EDACFEAFF010E13
:101B6000D890EE36ED36E806FBE1010EDB2A080ED2
:101B7000F36E010EDBCFF4FFF350F45CD3E3DF2808
:101B8000DF6E040EDB2A050E01E3DB2A010EDB50BB
:101B9000080802E1010EDB6AFC0EDB50DF5CAEE3FD
:101BA000DF6A020EDBCF14F0030EDBCF15F014C09A
:101BB000F3FF15C0F4FF060EE15C02E2E16AE552B4
:101BC000E16EE552E7CFD9FF1200D9CFE6FFE1CFB2
:101BD000D9FF0C0EE1260A0EDB6A0B0EDB6ADE6A09
:101BE000DD6A020EDB6A030EDB6A040EDB6A050E99
:101BF000DB6A060EDB6A070EDB6A080EDB6A090E7B
:101C0000DB6AD950FD0FE96EFF0EDA20EA6EEE5066
:101C1000ED1002E111EF92F0FA0EDBCF14F0050E99
:101C2000E76E1418E8AE02D0E73402D0E750145C37
:101C300001E2A4D0100E146E270E156EFD0EDBCF40
:101C400008F0FE0EDBCF09F014C00DF015C00EF049
:101C50007DECA1F0080E08C0DBFF090E09C0DBFF18
:101C6000D950080FE96EDACFEAFFEE50ED1071E0BF
:101C7000300EE76E080EDBCF16F0090EDBCF17F043
:101C8000E7501626000E17220A0EDBCF14F00B0EBB
:101C9000DBCF15F0FB0EDB501424E96EFC0EDB509D
:101CA0001520EA6E16C0EFFF0A0EDBCF15F00B0E03
:101CB000DBCF16F0FB0EDB501524E96EFC0EDB507B
:101CC0001620EA6EEFCF14F0300EE76E1418E8AE6F
:101CD00002D0E73402D0E750145C10E20A0EDBCFEA
:101CE00014F00B0EDBCF15F0FB0EDB501424E96E65
:101CF000FC0EDB501520EA6E300EEF6E0A0EDBCFC5
:101D000015F00B0EDBCF16F0FB0EDB501524E96E41
:101D1000FC0EDB501620EA6EEFCF14F0390EE76EA2
:101D20001418E8AE02D0143403D0E750D88014540D
:101D300020E20A0EDBCF14F00B0EDBCF15F0FB0E0A
:101D4000DB501424E96EFC0EDB501520EA6E390ED0
:101D50000FD00A0EDBCF14F00B0EDBCF15F0FB0E0D
:101D6000DB501424E96EFC0EDB501520EA6E300EB9
:101D7000EF6E0A0EDB2A0B0E01E3DB2AFA0EDBCF35
:101D800014F0040EE76E1418E8AE02D0E73402D067
:101D9000E750145C01E2B4D0FD0EDBCF16F0FE0E6E
:101DA000DBCF17F0100E086E270E096E080EDBCF82
:101DB0000DF0090EDBCF0EF0BEEC9FF00650165C66
:101DC000146E0750175814C0DEFFDD6EE80E146E57
:101DD000030E156E14C00DF00E6EDECF08F0DDCFD1
:101DE00009F07DECA1F008C0DEFF09C0DDFFD9CF0E
